:020000040800F2
:100000000050002015DB000881DA000865DB0008DD
:1000100000000000000000000000000000000000E0
:1000200000000000000000000000000065DB000888
:10003000000000000000000065DB0008C1C80008E7
:1000400065DB000865DB00082DD3000865DB0008D0
:1000500065DB00081BCD00082BCD00083BCD000858
:1000600065DB000865DB000865DB000865DB000870
:1000700065DB000865DB000865DB000865DB000860
:1000800065DB000865DB000865DB00080000000098
:1000900065DB000865DB000865DB000865DB000840
:1000A00065DB000865DB000865DB000865DB000830
:1000B00071DA000865DB000865DB000865DB000815
:1000C00010B5064C2378002B07D1054B002B02D02E
:1000D000044800E000BF0123237010BD700400201D
:1000E00000000000C0710108044B10B5002B03D0C4
:1000F0000349044800E000BF10BDC04600000000F6
:1001000074040020C0710108014B00221A7070476E
:100110007E050020014B18787047C0467E05002000
:1001200010B5034C227803490DF0D3FC207810BDA4
:100130007E0500208C04002010B50A4B1B78EF2BA5
:100140000DD85A1CD2B2084CE054531CDBB200202C
:10015000A054581CC0B2034A1070E15410BD0020D6
:10016000FCE7C0467E0500208C04002070B504002A
:10017000081C0F4B1D78EE2D17D80E4912F0ECF825
:1001800012F0CCFB01B26B1CDBB20B4A5455581C6D
:10019000C0B20224D454431CDBB20C121454581CB9
:1001A000C0B2034C2070D15470BD0020FCE7C046A3
:1001B0007E0500200000C8428C040020F8B507002E
:1001C0000E000024002506E00B4814F097FB0025E4
:1001D00005E00134E4B2B4420AD2002DF4D1395D15
:1001E000064814F08BFB631C1B07F2D10125F0E7D6
:1001F000014814F083FBF8BD3C600108E45B010892
:1002000010B5012803D0044814F078FB10BD034852
:1002100014F074FBFAE7C046245C0108EC5B0108AB
:1002200070B505004178194814F068FB012405E019
:100230002B195978164814F061FB0134072CF7DDAF
:10024000144814F05BFB697A134814F057FB01243F
:1002500005E02B19597A0E4814F050FB0134072C95
:10026000F7DD0C4814F04AFB697C0C4814F046FB9F
:100270000124032C06DC2B19597C054814F03EFBA5
:100280000134F6E7064814F039FB70BD5C5C0108E8
:10029000705C01083C600108785C01088C5C010816
:1002A000585C010870B5040015000B78012B0DD0C7
:1002B000032B27D0002B1BD01A4814F01FFB1A4821
:1002C00014F01CFB194814F019FB08E0154814F051
:1002D00015FB174814F012FB144814F00FFBA20092
:1002E000144BD158144814F009FB0B2C14D070BDDA
:1002F0000C4814F003FB114814F000FB0B4814F0F9
:10030000FDFAECE7074814F0F9FA0D4814F0F6FA94
:10031000064814F0F3FAE2E729000A4814F0EEFA6E
:10032000E5E7C046A05C0108B85D0108105D010862
:10033000D85C010844000020F05D0108485D010818
:10034000805D0108045E010870B5040015000B789B
:100350000A2B3DD89B00264AD3589F46254814F0C7
:10036000CDFA254814F0CAFA244814F0C7FAA200BE
:10037000234BD158234814F0C1FA0B2C32D070BD56
:100380001C4814F0BBFA204814F0B8FA1B4814F0CB
:10039000B5FAECE7174814F0B1FA1C4814F0AEFABD
:1003A000164814F0ABFAE2E7124814F0A7FA18481E
:1003B00014F0A4FA114814F0A1FAD8E70D4814F08B
:1003C0009DFA144814F09AFA0C4814F097FACEE704
:1003D000084814F093FA104814F090FA074814F003
:1003E0008DFAC4E729000D4814F088FAC7E7C04623
:1003F000A45F01081C5E0108545E0108105D01083D
:1004000044000020F05D01088C5E0108C45E010814
:10041000FC5E0108345F01086C5F0108045E01089E
:1004200010B5040003681B78002B18D00523C356B1
:10043000002B00D010BD114814F060FA104814F0E1
:100440005DFA2368D9690F4814F058FA0E4814F081
:1004500055FA042161560D4814F050FAEAE70748AE
:1004600014F04CFA0A4814F049FA2368D96909488B
:1004700014F044FA044814F041FADBE7D05F0108B5
:100480000860010810600108585C01082860010834
:10049000406001084860010830B58BB00400037863
:1004A000002B42D0494814F029FA63789B00484A4F
:1004B0009958484814F022FAE168474814F01EFAA7
:1004C000464D280014F01AFA00F08CFC444B195CDD
:1004D000444814F013FA280014F010FA217C424822
:1004E00014F00CFA637C002B2AD13C4814F006FA75
:1004F0000A2161563D4814F001FA01A81E23037039
:1005000005F080F9002833D018216156384814F0DE
:10051000F5F901A82323037005F074F9041E31D006
:100520002E4814F0EBF90BB030BD324814F0E6F968
:1005300063789B00264A9958264814F0DFF9F2E7C1
:100540002D4814F0DBF9237A012B0DD1637A002BAF
:1005500008D02A492A4814F0D1F9617C6069FFF774
:100560002DFEC2E72749F5E7274814F0C7F9F4E75D
:10057000627E53009B189B00029AD158234814F0C6
:10058000BDF9C1E7224814F0B9F900F0F9FC0928D7
:1005900017D880001F4B1B589F46029B19881E4886
:1005A00014F0ACF90D4814F0A9F9B9E7042CF9D806
:1005B0006300029A995A184814F0A0F90134E4B281
:1005C000F4E7164814F09AF9ECE7C046A460010875
:1005D00000000020F05D0108DC6001083C600108BB
:1005E000F8610108106101082461010868610108CF
:1005F000946101086C6001083861010868600108B5
:1006000048610108606001085861010880610108C3
:10061000A8610108FC610108B8610108C061010816
:1006200070B586B005000C006946284B0A0043CB24
:1006300043C243CB43C22378002B34D0244814F068
:100640005DF963789B00234A9958234814F056F9C2
:10065000E168224814F052F91023E3569B006A46E1
:1006600099581F4814F04AF929781E4814F046F9A1
:100670006B78002B22D11C4D280014F03FF9082183
:1006800061561A4814F03AF909216156184814F0D5
:1006900035F90A216156174814F030F9280014F092
:1006A0002DF906B070BD144814F028F963789B004A
:1006B000084A9958084814F021F9F2E70F4814F055
:1006C0001DF969786868FFF779FDD4E7FC640108D3
:1006D0005C62010800000020F05D010894620108DE
:1006E000C8620108DC6201083C6001086861010819
:1006F000006301081463010824620108F062010824
:1007000070B504004378022B0BD0032B33D0012BA0
:1007100003D01B4814F0F2F870BD1A4814F0EEF83C
:10072000FAE74168184814F0E9F8617D174814F0B9
:10073000E5F8174814F0E2F8200016300621FFF71C
:100740003DFD144D280014F0D9F8E168124814F06A
:10075000D5F8217C114814F0D1F81223E15E10483D
:1007600014F0CCF8142161560E4814F0C7F8280094
:1007700014F0C4F8D0E70C4814F0C0F8CCE7C04639
:10078000286301086063010898630108C0630108D9
:10079000D46301083C600108E46301086861010852
:1007A0000063010814630108F863010810B5034BE6
:1007B000195C034814F0A2F810BDC046F8610108A6
:1007C00030640108F8B506000D0014000B4F380026
:1007D00014F094F831000A4814F090F8E978AA78F7
:1007E0006B78084814F08AF8E178A27863780648B4
:1007F00014F084F8380014F081F8F8BD686401083A
:10080000A0640108BC640108DC6401087047012091
:10081000704701207047000070B505000E000024ED
:100820000EE0032D0AD11B6A002B07D03000984739
:1008300004E05B69002B01D030009847013464B2BA
:10084000032C1BDCA3000E4A9B58002BF6D0022D74
:100850000ED0E6D8002DECD0012DEFD19A69002AF8
:10086000ECD01978F3789942E8D130009047E5E769
:10087000DB69002BE2D030009847DFE770BDC0464F
:10088000A405002010B504000C4801230370637810
:1008900043700223E3568372E368C3600323E35685
:1008A00003762369437623794372054B1B685B6AA1
:1008B000984721000020FFF7AFFF10BDE0000020A7
:1008C000A005002030B587B001AD0A232B702800A9
:1008D00005F030FD0400074B1B68DB692A6929001D
:1008E0009847002C02D1002007B030BD01204042C3
:1008F000FAE7C046A005002030B587B001AD0C2353
:100900002B70280005F016FD0400074B1B68DB69FF
:100910002A6929009847002C02D1002007B030BD79
:1009200001204042FAE7C046A005002010B58EB075
:10093000002816D0012302AA1373154A1268927870
:1009400002A90A74134A1370134B1B68DC6905A8CB
:1009500005F0F0FC099B01931A0005A9A0470EB011
:1009600010BD0C4B03930A4B1B689B785BB202AA29
:1009700013720023537201331373137405A805F027
:100980006DF8054B1B681B6A03A89847E7E7C0464C
:10099000B4050020A4000020A005002030B58DB0D3
:1009A00003000A0040490A60404908604048414944
:1009B000016041494160414981604149C16041490B
:1009C0001C680C605C684C603F4C8C60DB68CB60E2
:1009D0003E4B00241C70127804F076FC00285AD19B
:1009E000FFF717FF00282DD1304B1B681B69984774
:1009F00003AC1D2323702C4D2B68DB782371200062
:100A000005F02CF8052323702B685B7823712000F8
:100A100005F024F82B68187905F046FE04F07EFEF8
:100A200001232370200004F0EDFE002836D103AB33
:100A30001B79002B35D11D4B1B685B6924489847F7
:100A400000202CE0022302AA137103A804F0DAFEAE
:100A5000049B01931E4C601C082219000DF039F80C
:100A6000032302AA137103A804F0CCFE049B019394
:100A700020000930082219000DF02BF8042302AAE7
:100A8000137103A804F0BEFE049920001130042263
:100A90000DF01FF8ACE70120404200E000200DB04F
:100AA00030BD0020FBE7C046B4050020A0050020B3
:100AB000C805002085080008FD0D0008AD0E0008DF
:100AC000110C0008B80500200D0800089C05002046
:100AD000A400002010B5024B1878FFF727FF10BDC7
:100AE000A400002000B58BB001A80123037004F01E
:100AF00089FE002805D101AB1879002802D0012019
:100B000000E000200BB000BD10B503F02BFB002867
:100B100000D010BDFFF7E6FF012804D1044B1B688D
:100B2000DB689847F5E7FFF7D5FF0120F1E7C046FE
:100B3000A405002030B589B004000D00FFF7D2FFF6
:100B400001283AD12D4B1B68DB689847002807D055
:100B500023782A4A12681278934201D0002B47D199
:100B6000274B1B6802229A5603AB9A73607802A93E
:100B700004F0DEFD002827D00023224A137203AAC6
:100B80001370059393811F4A1300103303CC03C3E2
:100B90001B4B1B689B785BB2937203A805F0A8FC03
:100BA0000400194B1B689B69079A019203A9984797
:100BB000002C20D1002009B030BD144B1878FFF76D
:100BC000B5FE01204042F6E70E4B1D72227803ABC2
:100BD0001A7162789A8162680592002D02D1002212
:100BE0001A70D0E703AB01221A700732DA73CAE732
:100BF00001204042DFE701204042DCE7A40500205D
:100C0000B4050020E0000020A0050020A400002082
:100C100030B58BB00400334A00231370437853700F
:100C20000E2B05D0304B1B689B6A110000209847A3
:100C300021000320FFF7F0FD23780B2B33D00F2B7F
:100C400013D0072B01D00BB030BD01AB00221A70BE
:100C50005A700292254B1B68DB6898470028F2D136
:100C6000002101A8FFF766FFEDE700256B461D7127
:100C70001D7201A804F0F2FE1D4C01236370656033
:100C8000657520001630062200210CF03AFF164D43
:100C90002B68DB6A002098472B681B6B2000984765
:100CA000FFF710FECFE763780E2B0DD0104803231B
:100CB0004370031D043426CC26C326CC26C30A4B1E
:100CC0001B681B6B9847BEE709480C3B4370031D2C
:100CD000043426CC26C326CC26C3034B1B681B6BCF
:100CE0009847B0E7CC000020A0050020A405002014
:100CF0008005002030B589B003AC0D232370063B7E
:100D000002001A40207907218843104318402071BF
:100D1000200005F00FFB05000A4B1B68DB69226908
:100D200021009847002D0AD100236A4613715371A0
:100D30000293002101A8FFF7FDFE09B030BD01209C
:100D40004042FAE7A005002010B58AB00400002355
:100D50006A46137101A804F055FD6B461B7AA34245
:100D600033D0012C17D0022C1CD0002C03D000242F
:100D700020000AB010BD002B01D10024F8E701A823
:100D80000023037104F06AFE002820D1134B1B6876
:100D9000DB6A9847ECE7FFF795FD0400104B012252
:100DA0001A70E5E7002B0DD1002401A8022303717E
:100DB00004F054FE00280DD1084B1B68DB6A02309A
:100DC0009847D5E701246442EFE70024D0E70124E7
:100DD0006442CDE701246442CAE7C046A005002072
:100DE0009C05002000B58BB000236A46137101A852
:100DF00004F008FD6B46187A0BB000BD10B584B046
:100E00000400214A0123137043785370002B2AD128
:100E10000423C356110013720E22835E4B721023FB
:100E2000C3568B724369CB601123C3560B74C378CE
:100E30006A461372037B537283680393134B1B68D8
:100E40009B6A02A89847237F002B05D00F4B1B6895
:100E50005B6B00210120984721000120FFF7DCFC9B
:100E60006379012B01D004B010BDFFF7BBFF002850
:100E7000F9D100236A46137053700193002168462C
:100E8000FFF758FEEFE7C046CC000020A005002089
:100E900000B58BB02C236A46137101A804F0B2FC94
:100EA0006B46082018560BB000BD000070B58AB024
:100EB00004002F4800230370637843702D4B1B6898
:100EC0005B6A984721000220FFF7A6FC23780C2BD1
:100ED0003FD00AD8012B1ED00A2B34D1264B1B78C9
:100EE000002B30D0FFF708FD2DE00D2B2BD16378C0
:100EF000002B38D100246B461C7101236A46137203
:100F000001A804F0ABFD1B4B1B68DB6A012098476E
:100F1000194B1C7017E001AD07232B70280004F05B
:100F200071FC164E33686A68DA61FFF7B1FF307101
:100F30006378002B09D1114B00225A710D4B1B68AD
:100F40001B6A0E4898470AB070BD0C4BFF225A71BD
:100F5000F4E76378002B03D10020FFF7CBFEF2E724
:100F6000FFF7B0FCEFE70020FFF7C4FEEBE7C04659
:100F7000E0000020A00500209C050020C400002007
:100F8000014B1B6818787047B405002000B58BB082
:100F900001AB2F221A700290180004F05FFD0028A8
:100FA00001D10BB000BD01204042FAE770B504004A
:100FB0000D0002282AD006D8002809D0012828D1FF
:100FC00000F0BCFC06E0032823D101F02BF901E07E
:100FD00000F0F2FE00281CD0A4000F4BE0500F4B95
:100FE0001B689A694262DA6982620D4AC2620D4ADE
:100FF00002630D4A42635B6B836344680B4B1B685F
:101000005A7999682800A047002070BD01F0ACFB18
:10101000E0E701204042F8E7A4050020A0050020F9
:101020002D090008350B0008C5080008B40500208C
:1010300010B58000044BC3589B68002B01D0984723
:1010400010BD0020FCE7C046A405002070B50024B8
:1010500001E0013464B2032C12DCA300094A9B585E
:10106000002BF6D01B69002BF3D0E0B2FFF7E0FFB6
:101070000028EED0A500034BEB581B699847E8E722
:1010800070BDC046A405002010B5094B1B6E002B97
:1010900000D0984704F0E4F8FFF7D8FFFFF7B7FB5C
:1010A000002804D1034B1B681B690130984710BD11
:1010B000CC6B0108A005002010B5030005480068AE
:1010C000002806D00468002C03D051430800190002
:1010D000A04710BDD805002010B5030005480068E2
:1010E000002806D04468002C03D0514308001900A2
:1010F000A04710BDD80500200300C208885C072265
:101100009A43104101231840704710B507248443C7
:101110000123A340DBB2A240D2B2C0080C5C9C43C6
:1011200012190A5410BD002200211F2A08D80123D9
:1011300093400340D340C918C9B20132D2B2F4E798
:10114000012901D0002070470120FCE730B50023C1
:10115000934205DAC45CCD5C6C40C4540133F7E7BC
:1011600030BDF8B5CE46474680B507008946904663
:101170000025454511DAAEB239003000FFF7BCFF5B
:10118000040049463000FFF7B7FF4440E2B239009F
:101190003000FFF7BAFF0135EBE70CBC90469946EB
:1011A000F8BD030040115A10584080058023DB032E
:1011B000184010187047F0B5C64600B504000D0081
:1011C00090460800FFF7AFFF002809D00126E30092
:1011D0001B191B011B1BDC00E41A0134002307E070
:1011E0000026F4E74246D218002111700133DBB229
:1011F000EA109A42F6DA00270EE02000FFF7D1FF4E
:101200000400711910F0AEFCA942F6DA88B201228E
:101210004146FFF77AFF01376B10BB4202DD8021A8
:101220004902F1E704BC9046F0BD70B506000D0020
:101230000024AC4208D231002000FFF75DFF0128F6
:1012400003D00134A4B2F4E70024200070BD70B5CF
:1012500006000D000024AC4208D231002000FFF748
:101260004BFF012804D00134A4B2F4E7012070BD83
:101270000020FCE710B5124A4223D35A00E00133A4
:10128000421E9A420FDD0E4A92889A42F7DD0C49BF
:1012900040240A5B013292B20A531C0008346400F5
:1012A00009194A80EBE7064A92889A4203DD044A0C
:1012B0004223D05210BD013201494223CA52F9E7FC
:1012C000D805002001000020084B9B8883420BD9E1
:1012D000020008325200054B9B185A884B1C9A4258
:1012E00003D0013080B2EFE700207047D80500201E
:1012F000F8B5CE46474680B506000C1E90461CD079
:101300004B1E4B435D1013004B435B1BDF10DA1782
:10131000520F9B1807251D40AD1A002C12D0002338
:101320009946A1450ED2002231004846FFF7EDFE56
:101330004B4601339BB29946F3E700250027ECE7C3
:101340000134A4B2444511D20A4BDB191A7B07239E
:101350005B1B1A4101231A4031002000FFF7D5FE24
:101360000135082DECD101370025E9E70CBC90468A
:101370009946F8BDD8050020F0B5C64600B507006F
:101380000C00160000290ED04B1E4B435D100B00C5
:1013900053435B1BDA109046DA17520F9B18072550
:1013A0001D40AD1A08E000250023984604E00135F1
:1013B000082D16D00134A4B2B44217D2390020004F
:1013C000FFF79AFE0028F2D10A4A42440C20105638
:1013D0000721491B01238B40DB435BB2034013739E
:1013E000E5E701239C46E0440025E3E704BC904682
:1013F000F0BDC046D805002070B582B005000E00D3
:10140000244B1A6098809971002242215A52023965
:101410005A529A60002308E01C00083464001D4AF8
:1014200012190121518001339BB2142BF4D90023EE
:10143000002B01D000230BE0164AD2183C320021C9
:1014400011700133F4E7134AD218FF2111730133ED
:10145000042BF8D9002400E0013433006B43A3428D
:101460000FD90C4B1B68002BF6D01A68002AF3D05A
:1014700001A9094A12780A701B68012220009847C6
:10148000EAE7044B002240215A5202315A5202B07C
:1014900070BDC046D805002014650108004870479B
:1014A0001A040000F0B5DE4657464E464546E0B504
:1014B00091B004008946032200210FA80CF021FB03
:1014C0003222002102A80CF01CFB0122002101A8FD
:1014D0000CF017FB0122002168460CF012FB904B28
:1014E000DC8742229B5AA34200D913E18C4B9B8894
:1014F000A3420FD28A4A4023D35A052B1CD9442336
:101500000121D154002011B03CBC90469946A2461E
:10151000AB46F0BD824DAA79611E89B24846FFF7FD
:10152000CBFDE31D5B00ED1800236B802000FFF76F
:10153000A1FE01204042E6E72000FFF79BFE784A2B
:101540004023D05A0028DED09188601A0FAAFFF7F6
:1015500032FE0024002609E0013880B2012201A9F0
:10156000FFF7D3FD002E00D1013601346C4B9B8870
:10157000A3421FDDA5B20FA92800FFF7BDFD01287A
:10158000F3D1220008325200654B9B18588800287E
:10159000E2D100220FA92800FFF7B7FD604FBA790A
:1015A000290002A8FFF798FDBA7902A94846FFF77B
:1015B000CDFDDAE75A4A4023D15A01A8FFF735FE9C
:1015C0000400002E2CDD56493C312000FFF794FD2D
:1015D000012828D1524D4026AA5B21006846FFF71A
:1015E00087FEAA5B694601A8FFF7BBFD2000FFF755
:1015F00069FE0100AA7902A8FFF76EFDAA7902A987
:101600004846FFF7A3FDAD5B290001A8FFF71FFEC9
:10161000002817D1290001A8FFF707FE0400D2E730
:10162000012040426FE70023002B0DD03C4B9A680D
:101630004021585A824270D1012800D863E7831EA6
:1016400098464FE00123EFE7354D4033EA5A210039
:1016500001A8FFF791FE2000FFF734FE0100AA79F0
:101660004846FFF729FD29003C3101222000FFF701
:101670004CFDAB680133AB60D8E7294E4023F25AEA
:1016800001A96846FFF76DFD2800FFF71BFE01006A
:10169000B2794846FFF720FDB279494602A8FFF724
:1016A00055FD013CA04513DA1D4F4026BA5B51465B
:1016B0006846FFF71DFEA5B2BA5B290001A8FFF737
:1016C00017FE69462800FFF717FD0128E9D1D4E786
:1016D000134B9A79594602A8FFF7EEFC01235B42AF
:1016E0009C46E0444346002B10DB43469BB29A469F
:1016F0001800FFF7E7FD8346094CA279010002A814
:10170000FFF7EAFC4023E45A013CCBE7044A4023BC
:10171000D05AF8E601204042F5E601204042F2E6C8
:10172000D805002010B50400034908223E3113F00B
:10173000D3F8200010BDC046D8050020002906D0EF
:10174000054B59609A7001221A705A707047024B0B
:1017500000225A701A70F9E720060020014B187811
:101760007047C04620060020024B1878002800D0A1
:101770005878704720060020F0B5C64600B584B002
:101780000700002500240CE014000AE0032B07D119
:101790000234E4B2B25C07231340524A537300E0B0
:1017A00014003B7BA34200D889E0BE68621CD2B221
:1017B000335D022B5DD0E9D8002B0AD0012BE3D199
:1017C000484B002159733B7F002B12D00634E4B202
:1017D000E7E7444B5968681CC0B24B1900241C70E1
:1017E000AB1CDBB201340C540335EDB2CC54140005
:1017F000D7E7A11CC9B2B35CE21CD2B2715C09028A
:101800005B18211DC9B2B25C12049B18621DD2B2D2
:10181000715C0906984688440634E4B2B15C314BE9
:101820001B7A1B071B0F0F220A409A42B9D102A84C
:1018300008F05DFD029B434418000293039908F0F1
:101840003AFD2848037A1A07120F01320F210A4085
:101850008B4313430372244B9B6B002BA1D0424656
:10186000013200200D3991424041C0B241469847B3
:1018700097E70234E4B21B4B98465A686B1CDBB204
:1018800002215155AE1CF6B20139D15402A808F01C
:101890002EFD029B154A9446634442465268E91C59
:1018A000C9B293551E0A281DC0B256541E0C691D9C
:1018B000C9B216541B0E0635EDB2535471E7002D14
:1018C0000CD0CA2302AA13705570064B5B680193B3
:1018D0000393054B1B6B00211000984704B004BC18
:1018E0009046F0BD20060020FC00002080C22AEDBA
:1018F00030B58BB0104B5B7A002B01D10BB030BDF3
:1019000001AC052323700C4DAB7A2371200004F049
:10191000A5F825232370EB7A2371200004F09EF8AC
:101920002C2323700C23EB562371200004F096F82F
:1019300000236B72E2E7C046200600200048704793
:10194000FC00002030B58FB0FFF7DEF8002852D140
:101950002A4B5B7A002B29D00CA808F0C8FC0C9B02
:10196000274A9446634425494A6801201070537001
:101970001C0A94701C0CD4701B0E13710B7A10246B
:10198000A3430B725371CA236C4628256419237034
:10199000C43B6C460135641923700B924872194B95
:1019A0001B6B00210AA898470FB030BD01AC05336E
:1019B0002370200003F026FF2379104DAB72002323
:1019C0002371200004F04AF825232370200003F03F
:1019D00019FF2379EB7201232371200004F03EF8F4
:1019E0002C232370200003F00DFF23792B73054B6C
:1019F0005B6B9847B0E701204042D5E72006002006
:101A000080C22AEDFC00002010B5074B5B7B002B49
:101A100000D110BDFFF796FF0028FAD1024A537B90
:101A2000013B5373F5E7C04620060020002809D08B
:101A3000002907D0064B1860064B99609A71012265
:101A40001A7004E00023024A1360024A13707047C0
:101A50005C06002030060020014B18787047C04615
:101A600030060020024B1878002800D058787047C4
:101A700030060020074B1B78002B02D00378042B84
:101A800000D07047034B01229A73027ADA73427ACC
:101A90001A74F6E730060020014B0122DA70704715
:101AA0003006002030B58BB08E4B1B78002B0CD04D
:101AB000437B002B09D0C378E02B06D1894B5B78A0
:101AC000002B43D1037B042B01D00BB030BD8368C6
:101AD0001A78012AF9D15A78012AF6D19A78012A7E
:101AE000F3D1DB78012BF0D17E4B00241C71DC702C
:101AF000DF325A71DE3ADA719C819C73DC731C749C
:101B0000013A5A709A70052369460B710A7201A84E
:101B100003F0A4FF200004F0C7FD734B1B685B6853
:101B2000A34200D09847714C7149200008F09EFCF8
:101B30007049200008F070FD68460AF09BFE694B72
:101B40000122DA7068460AF09AFEBEE7654A938978
:101B50000133938181680B7893700A2BB5D89B0071
:101B6000654AD3589F46614808F00EFD5D4B002240
:101B70009A815A7005236A4613715B4C23681B785F
:101B8000137201A803F06AFF2368587804F08CFDF3
:101B900023689B68002B98D0984796E7514B022208
:101BA000DA7192E74F4B01221A719A708DE74D4B13
:101BB00000221A7101329A7087E7047B494BDC716D
:101BC0009D6804232B70033B09E0D2B29A4200D8EF
:101BD0007BE78268D25C0132EA540133DBB2414ACE
:101BE0009179221C8C42F0D90A1CEEE701AC042347
:101BF0002370424B9D6A200004F09CFB00222100D0
:101C0000A84762E7374B00229A815A7005236A463B
:101C10001371354C23681B78137201A803F01EFF63
:101C20002368587804F040FD23689B68002B00D09F
:101C30009847324BDB6A0120984746E7037B032B2A
:101C40000DD0072B14D02D4B9C6A01A804F072FB19
:101C5000002201A9A047234B01229A7035E701A871
:101C6000023303704A7812028B7813438380EAE7C9
:101C700001AA013B13704C7824028B782343938094
:101C8000CB781B040C792402234349790B4364214C
:101C90004B43039383689B791373D4E701AC0A2306
:101CA0002370164B9D6A200004F044FB00222100A3
:101CB000A8470AE700236A4613714B78137201A8FC
:101CC00003F0CCFE01E70D236A4613714B781372C3
:101CD0000A4B9C6A01A804F02DFB002201A9A04731
:101CE000F3E6C046300600205C06002044060020D3
:101CF000991A0008881300001865010838010020AF
:101D000010B582B01E4B1B78002B36D01C4B9B7B32
:101D1000002B1FD01A4B00229A730332DA719A6893
:101D200005211170D97B5170197C917001229A7034
:101D3000E0236A461370124CE3795370A368019351
:101D4000104808F09DFB104B1B6B217968469847A3
:101D500002B010BD0A4B9B78012B05D0042BE7D1B4
:101D6000074B01229A70E3E7054B0222DA719A8948
:101D70009B68110A19705A70DAE701204042E7E7C0
:101D800030060020440600203801002010B582B043
:101D900001A80AF06FFD074BDC780022DA7001A879
:101DA0000AF06DFD002C01D102B010BDFFF7A8FFB5
:101DB000FAE7C0463006002000487047380100208E
:101DC000014B18787047C0467C060020024B1878FB
:101DD000002800D0587870477C060020F0B5DE4619
:101DE00057464E464546E0B58BB0060000239B465D
:101DF000984600254CE1B378012B00D147E1D44B44
:101E00005A68691CC9B2531900201870AB1CDBB2A8
:101E1000033050540335EDB20121D15437E1023380
:101E2000DBB299460C5D01272740640863001B194B
:101E3000DB00C84882469A446846FFF773FC504668
:101E40000C300822694612F047FD002F0AD100D05D
:101E500050E163001B19DB00BE4AD318DB89002B5D
:101E600000D149E1BA4B58686A1CD2B201234355EC
:101E7000B84B9B4661000B19DB005B449F89BC4655
:101E8000AF1CFFB2B84667468754A20192469A89B2
:101E9000120A94463F2267463A40EF1CFFB2BC4606
:101EA00057463A434746C255DA8990462A1DD2B270
:101EB000924667464246C2559B7C9C460535EDB22C
:101EC000012362461340524683540C19E4005C44DB
:101ED00067797F077B0F9B464C4601239846D6E0E7
:101EE000B278012A00D1D2E0981CC0B20C5D02AADF
:101EF0005470DC1CE4B20F5C181DC0B20C5D2402EF
:101F00002743B84657805C1DE4B2085C81461071D7
:101F1000981DC0B20C5DA4465471DC1DE4B2085C8F
:101F2000907118000830C0B20F5D1C000934E4B293
:101F3000085C000238181F000A37FFB20C5D240449
:101F400000190B33DCB2CB5D1B06C3180493382396
:101F500067461F406246134200D001274346152BB7
:101F600002D84B46322B18D902231F43FFB202ABD3
:101F70005B789B069B0F9A013A4392463A0714D02E
:101F8000734B5A686B1CDBB2022151550235EDB21E
:101F90005146D1540023984679E0FFF77FFA4B462B
:101FA000424653438342E2D9DEE702AA012111707F
:101FB000023907915900C918C900664B5B1883CADA
:101FC00083C383CA83C3644B1A6849464046FFF7FC
:101FD00013FAD5E7B278012A59D00233DBB20A5D91
:101FE00003210A4051008918C9005A48095C002998
:101FF0000FD104210A43D2B255494868691CC9B2BD
:10200000032444550235EDB242541C000023984687
:102010003DE051008918C9004E4800240C54EBE7FC
:102020009A1CD2B2085D0333DCB28B5C1B021843EE
:102030009F0B8004800C7B00DB19DB00454AD31822
:102040005B695A1C31D0002B19DB7B00DB19DB00EC
:10205000404AD318022252425A613F4B1B68DB6848
:10206000002B0CD07A00D219D1003A4A521850886D
:10207000117941439279891A0220404298477B00A6
:10208000DB19DB00334AD3181B791C19E4B2230097
:10209000327B9A4232D9B1685C1CE4B2CA5C082A2D
:1020A000F5D892002D48825897460919FFF7FAF99A
:1020B0007A00D219D200274B9A469244534658616F
:1020C0006846FFF72FFB50460C300822694612F095
:1020D00003FC214B1B689B689A46002BCFD07800ED
:1020E000C019C3001B48C018C38902794188808980
:1020F000D047C4E74C46CAE74C46C8E7002D0ED08F
:10210000134B5A6808AB09925D70C9221A70434696
:10211000002B0BD1124B1B6B002108A898470BB06A
:102120003CBC90469946A246AB46F0BDFA218900D8
:1021300000200BF0C3FC5F460437B840094B186021
:10214000094A08AB03CB03C2014B01229A70E6E7B0
:102150007C060020681400207806002044650108F1
:102160007401002088060020C814002010B582B039
:1021700001A80AF07FFB0E4B9C7800229A7001A800
:102180000AF07DFB012C03D0022C0BD002B010BD55
:10219000084B1968084C200008F03EFA200008F0AF
:1021A0006FF9F3E700210548FEF7C4FCEEE7C046EF
:1021B0007C0600208806002060060020C81400204D
:1021C00010B5002811D000290FD00B4B18600B4B15
:1021D0005960DA7001221A705A70094B00221A6095
:1021E0000849094808F042F905E00023024A136053
:1021F000024A5370137010BD780600207C06002040
:10220000880600200D2200086006002010B5034853
:1022100008F0BAF9024B02229A7010BD6006002045
:102220007C0600200048704774010020014B18789C
:102230007047C0468C060020024B1878002800D05A
:10224000587870478C060020F0B5DE4657464E465B
:102250004546E0B58DB005000026002482E00C0064
:1022600080E0042B7DD102AB07339B4600235A4606
:102270001370A31CDBB2795C032008408046E11C8C
:10228000C9B2FB5C9946DB4B9C4634274743DB19BC
:1022900048465862201DC0B2AA68515C09024944F0
:1022A0005962621DD2B29246AA68105C00044018BE
:1022B0005862A11DCAB29146AA685146515C0906EE
:1022C0004018CD4A924650445862E11DC9B2AA68EE
:1022D0004846125C0F2010402822914699444A46F5
:1022E000107020000830C0B2AA68525C9246DA62D0
:1022F00021000931CAB29146AA68115C0902504610
:1023000008438246D86220000A30C0B2AA68494613
:10231000515C09045246114364225143D9620B3483
:10232000E4B2AA68115630331970B44B5B68711C63
:10233000CAB29146042199553900283161440431CB
:102340005A46404603F076FF002800D1F9E0AB4B37
:102350005B680236F6B202AA0732127849465A542E
:1023600000E00C002B7BA34200D823E1AF68611C86
:10237000C9B23B5D032B00D1C8E000D971E7002B47
:1023800037D0022B00D06AE7A31CDBB27A5C904600
:102390009848342241464A431154E11CC9B2AF68FF
:1023A000FB5C82185360201DC0B2AF68795C0902E3
:1023B0005B185360611DC9B2AF68385C00041B181C
:1023C00053600634E4B2A868415C09065B185360A8
:1023D00000230F2B1EDC601CAA68145D34214246CA
:1023E0005143844A5218D218147201335BB2C4B2FA
:1023F000EFE7824B5A68701CC0B2931900241C701E
:10240000B31CDBB2023414540336F6B20120D054AC
:102410000C00A7E7621CD2B2AB681B5D75498B4606
:102420003421404648438246D946D14449468B61CF
:10243000A11CC9B2A868825C12029A184B469A6124
:10244000E01CC0B2AB685B5C1B049B184A469361FE
:10245000211DC9B2AA68125C12069B184A469361F4
:10246000621DD2B2AB685B5C4946CB61A11DC9B2AB
:10247000A868825C12029B184A46D361E21DD2B260
:10248000A868415C09045B184946CB610834E4B292
:10249000A9688A5C12069B184A460193D36104AF6F
:1024A0001422002107A812F020FA01233B70022217
:1024B0007A70BB705A4651468B5C9B079B0FFB7032
:1024C0004A4652687A605246083213005B44BB6049
:1024D0004A4692693A61019B7B61380003F000FE35
:1024E000002800D00120454B5F68721CD2B2022345
:1024F000BB5583003421404641433E48085C800779
:10250000800F0236F6B21843B8542BE70234E4B217
:102510007B5C03271F40394B5B68721CD2B290462C
:1025200003229A55380003F04DFE002802D0042300
:102530001F43FFB2314B5B680236F6B242469F54EE
:1025400010E704A807F0D3FE2A4BDB195F6A049B4F
:10255000FF1A002F06DC02ABDA1DDB7910210B43DA
:102560001370F4E67B01DB1B9B00DB19DB00984654
:10257000234B9A464146180008F04EF8504607F0A3
:102580007FFF41461F4812F0B9F91C4B5B68B21C33
:10259000D2B202A90731097848461954F11CC9B2D0
:1025A0009F543812321DD2B258543F140536F6B239
:1025B0009F54D7E6002E56D0C82302AA1372567233
:1025C0000E4B5B68019305930F4B1B6B002104A816
:1025D0009847084C21788907890F0C4812F08EF92A
:1025E00061680B4812F08AF9217A0A4812F086F9DC
:1025F000012418E0D0140020803DD5128C06002064
:102600009406002068650108B00100208465010877
:1026100098650108B0650108164B1B19197A164810
:1026200012F06CF901340F2CF6DD144812F066F943
:10263000104CA169124812F061F9E169114812F0D9
:102640005DF9616A104812F059F92823E15C0F48DE
:1026500012F054F9E16A0E4812F050F93023E156B5
:102660000C4812F04BF90DB03CBC90469946A2467E
:10267000AB46F0BDD0140020705C01083C6001083E
:10268000C4650108D8650108EC6501080066010809
:10269000146601082866010810B582B001A80AF086
:1026A000E9F8114B9C7800229A7001A80AF0E7F82B
:1026B000012C03D0022C12D002B010BD0220FEF774
:1026C00043FB0A4A2823D35CFA2189009940084C2D
:1026D000200007F0A1FF200007F0D2FEECE7002069
:1026E000FEF732FBE8E7C0468C060020D01400203D
:1026F000AC06002010B500290ED00A4B5960DA70E4
:1027000001221A705A700849084807F0AFFE0849BC
:10271000084807F0ABFE10BD024B00225A701A7039
:10272000F9E7C0468C0600205127000894060020D7
:1027300039270008AC06002010B5034807F024FF35
:10274000024B02229A7010BDAC0600208C060020BD
:1027500010B5034807F018FF024B01229A7010BD14
:10276000940600208C06002000487047B00100202D
:10277000014B01221A707047B70700207047000014
:1027800010B504004378022B07D0032B09D0012B8E
:1027900007D02000FDF7B4FF10BD044807F070FE1D
:1027A000F7E7024807F0F0FEF3E7C046EC07002029
:1027B00000B583B0FDF7FAFF00236A46137053702B
:1027C000019300216846FEF7B5F903B000BD000093
:1027D00010B50400FDF724FF2378013B012B07D936
:1027E0000121074807F027FD064807F049FE10BD04
:1027F00063681A7801231340034A1370F0E7C04658
:1028000024180020D4070020B607002010B50121AD
:10281000044807F010FD044807F032FE034807F0B3
:102820002FFE10BD24180020D4070020EC07002044
:1028300010B5044807F0A8FE0021034807F0FBFC90
:1028400010BDC046D40700202418002010B504484D
:1028500007F09AFE0021034807F0EDFC10BDC046CA
:10286000BC070020381C002010B5FDF715FE10BD78
:1028700010B50400FDF7D4FD0523E356013303D062
:102880000020FEF761FA10BDFEF724F9FBE710B552
:10289000FDF75AFD10BD10B5FDF704FD10BD10B5D4
:1028A000FDF7BEFC10BD10B5FDF7AAFC10BD000081
:1028B00010B50A4C200007F067FE094B01221A7080
:1028C000FA21890007480BF0F9F8074BC1182000DE
:1028D00007F0A2FE200007F0D3FD10BD0408002081
:1028E000B807002018FCFFFF8813000010B501286E
:1028F00000D110BD094C0A49200007F0B7FDFA21AC
:10290000890008480BF0DAF8074BC118200007F0DF
:1029100083FE0020FFF7CCFFEBE7C0460408002051
:10292000B128000818FCFFFF8813000010B5FEF75F
:10293000EBF8002800D010BD154C02232370FDF7E2
:10294000E3FB144B19780020FDF7F6FB09F0B6FF06
:1029500064235843FE210FF01FF80FF0FFFF011C06
:102960000120FDF703FC6068FDF7DAFBFDF7D2FB01
:10297000607000212000FEF7DDF80028DBD1012186
:10298000054807F058FC054807F07AFDD3E7C04634
:10299000EC010020B6070020381C0020BC070020F6
:1029A00010B582B001A809F065FF074B1C78E4B2AE
:1029B00000221A7001A809F062FF012C01D002B0B8
:1029C00010BDFFF7B3FFFAE7B807002010B584B0D9
:1029D00009F086FF09F057FF2C4C2D49200007F025
:1029E00045FD1921200007F017FE2A4C2A49200036
:1029F00007F03CFD1921200007F00EFE274C284966
:102A0000200007F033FD2749200007F005FE03AC46
:102A100003220021200011F068FF0123E37002AAC5
:102A2000002313700333537001339370D37021006C
:102A30001D48FDF7C7FE1D491D48FDF7AFFF0028E3
:102A400003D01C4811F05AFFFEE71420FEF79EFA4F
:102A500019490020FEF7AAFAFEF73CF80020FFF71C
:102A600045FF04E009F0E6FF01A809F008FFFEF7C2
:102A70000BFBFFF795FF01A809F0FCFE0F4B1B783D
:102A8000012BEFD10D4B00221A70EDE7BC0700209F
:102A90004D280008D407002031280008EC0700204A
:102AA0000D28000888130000406601082C02002051
:102AB000F40100205466010838020020B707002006
:102AC00010B5084A137804210B431370064AD22329
:102AD0009B00D358002B03D0DB68002B00D0984715
:102AE00010BDC0461C0800202008002010B5084A70
:102AF000137802210B431370064AD2239B00D3584C
:102B0000002B03D0DB68002B00D0984710BDC046D7
:102B10001C0800202008002010B5084A1378012165
:102B20000B431370064AD2239B00D358002B03D0CB
:102B3000DB68002B00D0984710BDC0461C08002061
:102B400020080020094A0A4BD258FC23D35C022BF0
:102B500005D0064A9123DB000621D1547047034A71
:102B60009123DB000221D154F8E7C0462008002061
:102B70008C040000014A024BD0547047200800200A
:102B80008A04000010B588B01E4A1F4BD35C1B0797
:102B90000DD510001C4A835C08218B438354D1233C
:102BA0009B00C358DB68194A944660449847154A0D
:102BB000154BD35CDB0610D507236A46137100233F
:102BC0005371104CD1239B00E358DB6801A8984750
:102BD0000D4AA35C10218B43A3540A4A0A4BD35CD1
:102BE0009B070DD51000084A835C02218B43835458
:102BF000D1239B00C3585B68054A944660449847BC
:102C000008B010BD20080020890400006C040000FA
:102C100024040000074AD0239B00D3581A0607D586
:102C2000802293437E3A93430249D02292008B50F4
:102C30007047C046200800200349044A8B5C1020DE
:102C400003438B547047C0462008002089040000CD
:102C50000A4A0B4BD358E82252009A58002A0BD14B
:102C6000C932FF32995A05488422D200825801396C
:102C70004A43E82149005A507047C04620080020C6
:102C80008C040000104B8322D200995C0F4A9B58A1
:102C9000922252009A5C91420ED20B490C4A8A5CF5
:102CA00092070BD5FC229B5C002B09D0094BCB5C17
:102CB000002B07D0002000E0012070470020FCE737
:102CC0000120FAE70120F8E7200800208C0400002A
:102CD0008904000035040000094B0A4A9A5C0A493D
:102CE0005B5C9A4208D2064A084BD35C9B0705D529
:102CF0008923DB00D05C00E0012070470020FCE766
:102D0000200800201A0400001904000089040000B3
:102D1000124A134BD35C9B0703D5124BD35C012B98
:102D20000BD90E4A104BD358FE229A5C002A04D0CD
:102D3000802149005A5801325A50084B0022832101
:102D4000C9005A5409495A5409495A54DB390232C4
:102D500058589043585001207047C0462008002022
:102D600089040000350400008C0400001C040000ED
:102D70001B04000010B5054AD2239B00D358002B3A
:102D800003D09B68002B00D0984710BD200800207E
:102D900010B50020FFF7EEFF10BD10B50120FFF7C2
:102DA000E9FF10BD10B50220FFF7E4FF10BD10B51C
:102DB0000320FFF7DFFF10BD10B50420FFF7DAFF97
:102DC00010BD10B50520FFF7D5FF10BD10B50620CA
:102DD000FFF7D0FF10BD0000054A064BD35C05226B
:102DE000100018401A4200D170470120FCE7C0468D
:102DF000200800208904000070B584B0114A124BED
:102E0000D35C1249525C934206D20133DBB20D49C6
:102E10000D4A8B54DB0701D404B070BD02A92123F5
:102E20000B70084E0A4D73599C2252009A5C8A70AE
:102E30000624FF341A574A70187805F030FF73598A
:102E40001855E9E7200800201A04000019040000C2
:102E50008C04000000B585B0084A094BD3589C2269
:102E600052009A5C02A98A7048700D220A70187884
:102E700005F015FFC0B205B000BDC0462008002017
:102E80008C04000070B5050008001400FFF7E2FF95
:102E900080B26419A04203D3FF2C03D9002000E0C4
:102EA000002070BD0120FCE7F0B58FB03F4A404BD9
:102EB000D258FC23D35C022B02D03E4BDB6A9847EE
:102EC0003A4CEE239B00E158303BE518280007F010
:102ED000A3FB280007F0D4FAEF239B00E1581C3B2A
:102EE000E518280007F098FB280007F0C9FA304BD6
:102EF000E358FC229A5C022A04D02C492E4A8A5CB0
:102F0000002A14D00AA915220A70187805F0C7FE05
:102F10000990264CEF239B00E158091844339C4646
:102F20006444200007F078FB200007F0A9FA1F4C4A
:102F30001F4F224B1B68E6225200E1598B50204A5A
:102F4000A25C04AE327005930CA807F0EDF9E359CA
:102F500002AD1A00D932FF3212680092EA22520002
:102F60009B580C990D9A280007F08CF907AB06CDF9
:102F700006C38423DB00E358B36001237370E35975
:102F8000F02252009A5C002A02D104AA002151705A
:102F9000187804A905F093FE044A074BD35C002B74
:102FA00002D1084B0021D1540FB0F0BD2008002001
:102FB0008C040000CC6B01081C040000A01500204C
:102FC0001D0400004504000010B5144C200007F05B
:102FD000DBFA134B9C466444124BE35C002B03D09A
:102FE000114A124B0121D1540F4A114BD258FC23E4
:102FF000D35C022B0AD00C4AD2239B00D358002B5F
:1030000003D0DB68002B00D0984710BD0649094A61
:103010008B5C202003438B54EDE7C046200C00203E
:1030200000FCFFFF1C040000200800201B0400001F
:103030008C0400008904000010B50D4BD0218900DC
:103040008022585802435A500A4A9B5C002B0BD1ED
:103050000749094A8B5C02200343DBB2202003436B
:103060008B54FFF76FFD10BD0020FFF7ADFFEFE7BA
:10307000200800201C0400008904000010B50C206A
:1030800004F0C4FF002812D00B4A0C4BD35CDA07C3
:103090000FD40422100018401A4209D00649D02249
:1030A00092000223885898438850012000E00020B5
:1030B00010BD0020FCE7C046200800208904000065
:1030C00070B50C0004A90988059E002A2CD0002E9A
:1030D0002CD0069D002D2BD004282BD88000164D17
:1030E000285887461B021B0E012B02D00323337086
:1030F0000BE0002C04D0032C02D00123337004E039
:103100000223337001E004233370D2893078069BA8
:1031100005F016FA70BD05233370F6E70623337009
:10312000F3E707233370F0E70A20F3E70A20F1E71B
:103130000A20EFE70520EDE77866010810B50128C1
:1031400000D910BD012A04D18B06FAD504F0DAFDAE
:10315000F7E704F0D7FDF4E7F0B5DE4657464E46F4
:103160004546E0B591B005000C009046029300235F
:103170002F2202A98C46624413700DAA138099462F
:10318000444500D3DAE22F19285D04F031FE2018FF
:10319000404500DDD2E2661CF6B23B78132B00D925
:1031A000CCE29B00BC4AD3589F46042004F02EFF7B
:1031B000002801D13400E3E70421002004F0D6FE0A
:1031C000A31CDBB2A85DB54A8C21C900505403345E
:1031D000E4B2E95CB24BD154D2E700230A2202A93F
:1031E0008C46624413700B226244137005AA13705C
:1031F00007AA13704B46002B01D03400C0E7731EA2
:10320000EB1809A94B6043469B1B01330B72A34A81
:10321000A44BD358FE229A5C8A729C2252009A5C7C
:103220004A720622FF329A56CA72822252009A5677
:103230000A73922252009A5C4A73EE2252009A5804
:103240000992187807AB019305AB00930B236344F5
:103250000A22624405F08BFD2F2302AA94466344A0
:10326000187007231840072801D0002420E08B4A5B
:103270008C4B0A21614408780621FF31D4586054F0
:10328000FA396144087882214900D4586054D258F0
:1032900005AB197892235B00D154E6E701222F2178
:1032A00002AB9C466144032004F0C6FC0134E4B246
:1032B00007AB1F78052138000EF0E4FAC0B2A04237
:1032C000ECD8BE19F6B2013EF6B20123994694E756
:1032D0000234E4B2A95D7148724A0F230B40A22167
:1032E0004900865873548258515C01238B40E42175
:1032F0004900535200220DA9042004F09DFC3FE731
:103300002F2702AB9C46674407233B70AB5D1B092C
:1033100007229246134062465377AA570F23134061
:1033200062461377A31CDBB2E21CD2B2EB5C201D19
:10333000C0B2AA5C120213430534E4B22A5C120440
:103340001343642253430A93544A564BD358187874
:1033500009A905F01DFD387053460340072B08D01E
:103360000DA908700122052004F066FCFFF764FC3B
:1033700006E74A4A4B4B09A903910E7896277F002E
:10338000D158CE550837D158CE5503994E680C3FC9
:10339000D158CE510837D158CE51D258039B5978C5
:1033A0002623FF33D154DBE73C4AD2239B00D3587A
:1033B000002B15D01B68002B14D0984702AB2C2291
:1033C0009B1818703F23029A134002AA2D2152180D
:1033D000137002220DA9062004F02EFC3400CFE663
:1033E000FF20EBE7FF20E9E72F2702AB9C4667446D
:1033F00003233B70A31CDBB2AA5707A90A7109A8D3
:103400000790E61CF6B2EB5C9C46221DD2B2AB5D87
:103410001B0266463343661DF6B2AA5C12041A43C9
:1034200064235343099300230A930634E4B2AB5751
:1034300003721A4A1B4BD358187805F0B2FC387047
:103440000DA908700122072004F0F6FB98E602346B
:10345000E4B2AB5D0F22110019401A4200D10131D4
:103460000E4E10484B015B1A9B005B18DB008A2153
:1034700049003258535032585358FA2189008C462B
:1034800063448C214900535000220DA9082004F008
:10349000D3FBFFF7D1FB73E68C6601082008002000
:1034A000610400008C0400000234E4B2AA5D05ABA4
:1034B000002119705970930602D505AB013159707E
:1034C000D30602D505AB012119700F23134005A9BE
:1034D0008B709E4A9E4BD358187805F06BFC431CAA
:1034E00000D14DE6994F9A4E05AB1A789C214900C0
:1034F0008A46B95950460A5459783A22FF32B85987
:1035000081549B78934AD05CBB599B460FF06CFA70
:103510009E235B005A46D0503B3BFF3B02AA1377E9
:10352000BB5952469A5C02A98A77187809A905F016
:10353000B6FB079040B2BB590622FF329956021CD7
:10354000884200DA0A1C0621FF315A5400220DA9D4
:10355000092004F071FB13E62F2702AB9C46674459
:1035600003233B70A31CDBB2AA5D09A90A70E21C0D
:10357000D2B2EB5C201DC0B2AA5C12021343053428
:10358000E4B22A5C12041343642253434B606F4A33
:103590006F4BD358187805F016FC38700DA90870D9
:1035A00001220A2004F048FBFFF746FBE8E50A2069
:1035B00004F02CFD002801D13400E1E50A210020AF
:1035C00004F0D4FC05AF0023FB80A21CD2B2A85D9E
:1035D000E31CDBB2AA5C12021043221DD2B2EB5CE8
:1035E0001B041843631DDBB2AA5C1206104305904E
:1035F0000634E4B2E95C4B015B1A9B005B185B117B
:10360000BB8007AE330006CF06C3534B9C466044D5
:10361000079009A806F06BFE4C4FCF239B00FB18C8
:103620001B680093CE239B00FB58079972680EA875
:1036300006F028FE0F9B00930E9B09990A9A300012
:1036400006F002FE0798716806F035FE03F068FF89
:103650008823DB000122FA5492E50D2004F0D6FC09
:10366000002801D134008BE50D21002004F07EFC00
:10367000364A9123DB00D35C043BDBB2012B01D83B
:1036800034007DE503F0A4FE340079E5A21CD2B23B
:10369000A95DE31CDBB2AA5C12021143221DD2B267
:1036A000EB5C1B041943642359430534E4B2AB5C5F
:1036B0000F20184003F0A4FE0DA90870012211206C
:1036C00004F0BAFA5CE50E2004F0A0FC002801D159
:1036D000340055E50E21002004F048FCA21CD2B2B3
:1036E000A95DE31CDBB2A85C000208430434E4B229
:1036F000E95C1A4B1A6803F0D3FE41E5A21CD2B272
:10370000A85DE31CDBB2AA5C120210430434E4B2ED
:10371000EB5C1B0418436423584303F059FF002853
:1037200008D00DAB01221A7001220DA9132004F05C
:1037300083FA25E50DAB00221A70F5E711B03CBC09
:1037400090469946A246AB46F0BDC04620080020F0
:103750008C040000D0680108803DD512A41500201B
:1037600010B5114A114BD258FC23D35C022B02D066
:103770000F4BDB6A9847FFF7E5F90B4C0D4B022224
:10378000E254022004F024FC0B4BE35C002B03D03A
:10379000054A0A4B0121D1540349094A8B5C202078
:1037A00003438B5410BDC046200800208C04000049
:1037B000CC6B0108450400001C0400001B04000041
:1037C0008904000010B503F045FD002812D10B4A12
:1037D0000B4BD258FC23D35C012B01D0002010BD31
:1037E00003F04AFD002807D103F052FD0028F6D06F
:1037F0000F20F4E70E20F2E70F20F0E7200800206A
:103800008C040000F8B506000D003C4A3C4BD25831
:10381000FC23D35C022B02D03A4BDB6A984703F0BF
:1038200019FD041E27D1354A354BD258FC23D35CF1
:10383000012B27D0002C1BD1304A9123DB00D35C15
:10384000002B43D1304BD35C002B01D02F4BD654EF
:10385000300004F0BDFB294C294BE258E6235B0005
:10386000D05806F0F0FEEF239B00E358984220D298
:10387000FFF768F9F8BD022003F020FD002003F0F7
:1038800025F9D0E703F0F8FC071E0AD103F000FD8C
:103890000028CFD0002003F0F3FB002003F04AF80B
:1038A000E6E7002003F0E6FB002003F031F83C00DF
:1038B000ECE7174C200006F067FE164B9C4664446C
:1038C000154AA35C20210B43A354D1E70B4A0E4BAE
:1038D000D35C002B01D00D4BD554280004F078FBAD
:1038E000064A074BD258FC23D35C022BC0D00349B5
:1038F000094A8B5C202003438B54B9E72008002041
:103900008C040000CC6B01081C040000450400007E
:10391000C00B002060FCFFFF8904000010B50621E9
:103920000520FFF76FFF10BD10B504210320FFF73E
:1039300069FF10BD10B5184A184BD35C5B0700D463
:1039400010BD012004F062FB002811D0012004F01A
:1039500025FB002804D1104A8323DB000021D15429
:103960000D49D02292000223885898438850E7E7F7
:10397000052004F04BFB002807D00749D022920015
:103980000223885898438850DAE7063004F03EFB5B
:103990000028D5D0F1E7C0462008002089040000A7
:1039A00010B582B00F4A8923DB00D35C002B06D010
:1039B0000C4B0D4A995C0D4A995402B010BD02336C
:1039C0006A4613710A4B9B680093064C094BE358F7
:1039D0001878694605F07BF90023074AA3542C3276
:1039E000A354E5E7200800201A0400004904000061
:1039F000B41500208C0400001C040000F0B5C6467D
:103A000000B582B0424C434D0026F0235B00625962
:103A1000D654E03B6259D6508323DB00E6540123A1
:103A200001273D4AA3543D4AA3543D4AA654A2222D
:103A3000520061598E54843261598B52635904216A
:103A40005956C43A99546359052159560622FF32F2
:103A500099546359E03A995C2622FF32995463598C
:103A60001A002932FF32283303CB03C263591A00EC
:103A70003132FF32303303CB03C263593822995CB1
:103A80000132FF3299546359FF3A9A5C3A21FF316F
:103A900088465A5463599E225200D96B99506359F3
:103AA0000432196C99501F4BE654E3235B006259B2
:103AB000D65401236A4613710096635918786946F3
:103AC00005F005F9184BE654493BE6546359942236
:103AD00052009958F6229200A15042469A5CF9236E
:103AE0009B00E254114BE654114BE7540233E318A8
:103AF000F5229200A21823CA23C303CA03C30D4BA5
:103B0000E7540D4B0222E25402B004BC9046F0BDD3
:103B1000200800208C040000190400001A04000092
:103B20001B0400001C0400001D040000E50300004D
:103B3000E6030000F9030000FA03000010B5124A82
:103B400082235B00D35C002B03D0042B0CD003201A
:103B500010BD0E4804F0F5FF002810D10A4B862254
:103B600052009A5C1A80F3E7084805F020F8002814
:103B700007D1054B862252009A5C1A80E8E7112093
:103B8000E6E71120E4E7C0462008002028090020CD
:103B9000F0B5C64600B582B02A4C2B4D61590B7862
:103BA00098462623FF33CB560622FF328A563A2008
:103BB000FF30095C404605F02FF9625984277F00E9
:103BC000D35986267600925D41B2F02080002018FD
:103BD0000090404605F0A8F86059C359825D9621CF
:103BE000490041560078F526B600A619009605F062
:103BF0009BF863598A2252009A58F3218900605831
:103C00001218143962508C2252009A582831615887
:103C10005218D03D6251F02252009A5C002A0CD119
:103C20001D32FF329A588018064AEE24A400105123
:103C3000902040001B58C918515102B004BC904656
:103C4000F0BDC046200800208C04000010B582B0F2
:103C500000230193104A114BD258F0235B00D45C2F
:103C6000002C02D1200002B010BD01A804F062F8BF
:103C7000041E0FD1084B094A9858019AD2B2062166
:103C8000FF3141560648185CFFF7FCF80028E9D1DF
:103C90000824E7E71324E5E7200800208C0400004F
:103CA0003702000070B5224AD0239B00D358002B66
:103CB0002FD1204BD45C01231D002540234205D089
:103CC00011001C4A2300012083438B54184A194BCE
:103CD000D35C5B0705D51100164A8B5C0420834337
:103CE0008B540120FEF746FF002D08D01048D12349
:103CF0009B00C3581B68104A94466044984763076A
:103D000008D403F02BFB0A490A4A8B5C202083432A
:103D10008B5470BD094804F085F904F0B1F900280E
:103D2000EFD00349034A8B5C042003438B54E8E73C
:103D3000200800208904000044040000780C0020C2
:103D400000B583B0094AD0239B00D358002B01D083
:103D500003B000BD6A46D371D01D04F031F86B4644
:103D6000DB79002BF4D0FEF767FFF1E72008002095
:103D700070B582B0164C174EA05984235B00C3580F
:103D800086225200825C9A21490041560078FA2529
:103D9000AD006519009504F0C7FF0F4B0222E254F5
:103DA0000E4B013AE254A3598522D200A21818788A
:103DB000290004F0C5FF002808D0094B5B6B0020E8
:103DC0009847034B044A995C8E32995402B070BDF7
:103DD000200800208C040000FA030000F903000012
:103DE000CC6B010870B50C0006F0CEFB0E4B1B6BC4
:103DF00098470E4A0E4BD3588521C9008C46624421
:103E00001878210004F09CFF00280CD0064B5B6B57
:103E1000064D074AA9588822520088589847A27C24
:103E20009123DB00EA5470BDCC6B01082008002010
:103E30008C04000010B5144A9123DB00D35C002BE6
:103E400000D110BD1000114BD25C493BC254104B45
:103E5000C358942252009958F622920081503A2277
:103E6000FF329A5CF9239B00C2540A4B0022C254D1
:103E7000094B0132C254123BC118343B9C4660448A
:103E8000FFF7B0FFDDE7C046200800201D0400005A
:103E90008C040000E5030000E603000010B51048A4
:103EA000104BC25C5D3BC2540F4BC3582622FF32FD
:103EB00099560E4A81543A22FF329A5CF4239B00B1
:103EC000C25400230A4A83540A4A8354F0239B00B5
:103ED000C118383B9C466044FFF784FF10BDC046C4
:103EE000200800201D0400008C040000C303000013
:103EF000D1030000D203000070B50400474A484BCC
:103F0000D358FC229D5C012D00D171E0022D00D11F
:103F100079E0002D01D0032070BD002806D11A00E1
:103F20003132FF322933FF3303CB03C2012C25D0BA
:103F30000320022CF0D13949394BCA58FC23D45400
:103F4000FA239B00CB18F52292008A1851CA51C35C
:103F500011CA11C3334B0222CA540022032A3CDC8B
:103F60002E492F4BC95810002C235343CB184E33E6
:103F70001B78002B0DD1013252B2EFE7200003F085
:103F8000C7FB0028D5D1254A254BD258FC23D45451
:103F9000CFE72C2358430B185B6E982464000B5119
:103FA0001E4B1F4A99580818683006789A2040001E
:103FB0000E541D49585C353958549A5810590431DB
:103FC00058503A21FF31515CFE2292009954154A13
:103FD00003219954154A02399954104A144B00216F
:103FE000D154144BDB6A9847FFF7C2FE280093E7D1
:103FF00003F08EFB002800D08EE7084A084BD25809
:10400000FC23D45488E7002806D1FC229854094B9D
:10401000DB6A984720007FE703207DE72008002027
:104020008C040000FA0300001D040000F9030000E6
:104030001C040000CC6B010830B583B004000D00F7
:10404000002301931D4A0533FF33D35C002B04D0BA
:10405000042B0DD0032003B030BD194804F0C6FA7C
:10406000002825D1154B862252009A5C1A80F2E76F
:1040700001A804F057FA00281CD1104A8323DB0062
:10408000D35C002B03D10F4BD35C012B02D9019BD6
:10409000013B01930A4B2A002100019804F0D8FA51
:1040A000002809D1054B862252009A5C1A80D2E77B
:1040B0001120D0E71220CEE71120CCE72008002005
:1040C000280900201A040000F0B5C64600B5804655
:1040D0000F0016001D0006F0B0FA0C4C206043469D
:1040E0006360278166812573094A137808210B4391
:1040F0001370084AD2239B00D358002B03D0DB68EF
:10410000002B00D0984704BC9046F0BDA4150020B9
:104110001C0800202008002030B583B006F08DFA7E
:104120000D4B18600D4D6C46200006F0E0F8CE23D4
:104130009B00EB1806CC06C3094A137810210B43E9
:104140001370D2239B00EB58002B03D0DB68002BAD
:1041500000D0984703B030BDA015002020080020F3
:104160001C080020074AD0239B00D358002B05D100
:10417000054BD35C012B03D0012000E001207047E8
:104180000020FCE7200800208A040000F0B585B07C
:104190000700009101921D000AAB1E886A4A0023A5
:1041A000138000206949505403930293002D19D0C5
:1041B000674C32002900200009F08BFCF0B223008C
:1041C000393BFF3B634A98543A789A703A785209DF
:1041D000042A09D0072A00D198E0022A08D0022038
:1041E00005B0F0BD0026E3E7574A584B0121D154F2
:1041F000554B8222520004219954991C0432995043
:104200000432FF21995439780E22FF3299541B321F
:1042100001999954504A9A58916C882252009950A9
:10422000009A11788A22520099541C32985419002D
:104230003931FF31043A995003A804F073F900288A
:1042400076D1039A404B8B2149005A5200214348B2
:104250001954013819548A21C9005A5002A803F090
:1042600069FD002866D1029B002BB9D0364D3A4B30
:10427000EA580623FF33D056FEF7ECFD354BEB5CD6
:10428000002B02D0029A0F2A1FD9002B02D0029BCA
:104290000F2B2FD82C4A304BD2584732FF3202A96D
:1042A00003F054FD00284BD1274B942252000021EB
:1042B0009954294A9A584732FF322D31FF315A50CA
:1042C00098225200029999548AE7254A02A90F20A0
:1042D00003F03CFD00282FD10F22029B1A40009CC6
:1042E00023780F218B431343237017498A225200EE
:1042F0008B5475E7144A184BD2584732FF3202A943
:1043000003F024FD002819D0132069E7002D19D0EF
:10431000002800D164E782B2124C2900200009F085
:10432000D8FB033C0B4BE35C01332380002057E7B1
:10433000122055E7132053E7132051E70A204FE7D7
:1043400013204DE700204BE7200800201C0400004C
:1043500058090020370200008C04000049040000C6
:104360003809002023080020F0B587B0050000239D
:104370006A46D37102A90870374C384FE2590626B5
:10438000FF3693574B7082235B00D3568B709E236E
:104390005B00D3584B60A0235B00D3588B6023880D
:1043A0008B818423DB00E31810786A46073204F01F
:1043B000D2FC2B4B0122E254E3599A5D294BE25483
:1043C0006B46DA79284BE254284BE550343BE358EE
:1043D000274AA350274AA35002F09CFF00282DD162
:1043E0001D4A1E4BD258FC23D35C012B30D003F066
:1043F00061F9194B194A9A581F49595C0623FF3332
:10440000D05CFFF719FE041E15D1134BD021890093
:104410000222585802435A50184A9B5C002B04D180
:104420000D49043A8B5C01338B54154B9B6A0A4847
:10443000017802309847200007B0F0BD064A842377
:10444000DB00D05803F0F0F80028C9D01024F2E7C0
:1044500003F012F9CBE7C046200800208C040000CE
:104460004504000046040000470400005404000016
:104470004C0400005C0400001D0400001C0400004B
:10448000CC6B0108F0B5CE4600B58EB00390FFF7B7
:1044900099F9041E04D020000EB004BC9146F0BD72
:1044A000FEF7D6FBFFF74AFB041EF4D13B4D3C4B15
:1044B0009946EB58E82252009A58069206AE062218
:1044C000FF329A5632724622FF329B5CB3720CA8BE
:1044D00005F02AFF4B46EB5804AF1A00D932FF32E1
:1044E00012680092EA2252009B580C990D9A3800EB
:1044F00005F0C8FE09AB06CF06C34B46E958E623D4
:104500005B00CB58736000233375013373722B88C3
:10451000F382F0235B00CB5C002B04D106AB0122BD
:104520001A7500225A721F4B1A00733A0878D1315B
:10453000FF31009106A904F05AFC00281CD00B287A
:1045400028D1039B002B27D0144A9223DB00D1589B
:104550000029A0D01500D02292002023A8580343A0
:10456000AB50DC239B009C466544280006F054F8C1
:10457000280005F085FF8EE7FFF70AFBFFF766FBD3
:10458000041E00D087E7054A074BD05CFFF7ECFE1E
:10459000040080E704007EE704007CE72008002098
:1045A0008C040000B00C00201D04000010B5154C58
:1045B000200005F0E9FF144B9C466444D022920091
:1045C0002023A1589943A1500120FFF75BFF002849
:1045D00001D00B2800D110BD0C4B0D4A9958062272
:1045E000FF32895C0B4A99540B4A995C0B4A9954E7
:1045F0000B4A09219954092003F0EAFCFEF788FBD5
:10460000E9E7C046900B002090FCFFFF2008002047
:104610008C040000460400001A0400004904000055
:104620004504000010B5274A274BD35CDB0710D5A3
:10463000264BD35C002B05D0032B03D0012B09D0D4
:10464000002404E0FEF71EFB0400002C1AD1002C0D
:104650002AD010BD1B4A1E4BD35C002B22D0FEF784
:104660003BFB0400174A1B4BD258EF235B00D35C83
:10467000002BEAD1002802D1FEF7BEFBE5E7FFF7E9
:104680008FF9E2E7144C200005F07EFF134B9C46A7
:104690006444D02292002023A1589943A150FEF7F0
:1046A00037FBD6E70124D2E7064B07495A5C2020A6
:1046B00082435A54064A002199540020FFF776FF9E
:1046C000C7E7C04620080020890400004404000019
:1046D0001B0400008C040000900B002090FCFFFFE6
:1046E000F0B5DE4657464E464546E0B58DB08346AA
:1046F000884691461F00584A584BD2580623FF332C
:10470000D656013BD356039380235B00D3580A93BC
:10471000F0235B00D35C002B00D19BE0A2235B0065
:10472000D35C002B03D1D133FF330021D1500BAA2E
:10473000002313704849494BC958FE23CC5CE00163
:1047400013789A467F2355462B4003431370FC236E
:10475000CB5C012B67D00BAA137810208343137016
:10476000E3235B00CB5C002B04D00BAA1378202042
:104770000343137005A8EE235B00CB580593012378
:1047800003714471FF33CB588360334BFF22920097
:104790009A5A8281324A9B5AC3810623FF33CB56F1
:1047A000037482235B00CB5643749C235B00CB5C79
:1047B00083740B78C3744A1DFF320631FF310AAB94
:1047C00001F0F9FF012303409B0102AA24215218A2
:1047D000107840229043184302AB5B181870009782
:1047E0004B4642460BA95846FFF7D0FC041E01D0A9
:1047F0000A2803D10020FFF745FE0400002C17D043
:10480000154A164B0621FF31D0584654D258822300
:104810005B000399D15420000DB03CBC90469946F2
:10482000A246AB46F0BD137810200343137097E700
:10483000094A0A4BE32149000020D5586854D25850
:1048400080235B000A99D15003F046FA0028E2D099
:104850001324E0E70724DEE7200800208C04000092
:10486000FE03000010B5FF2803D00120FFF70AFE69
:1048700010BD0020FFF740FB114C82235B0000229B
:10488000E254A21C0433E2500433FF22E25400221B
:104890000E23FF33E25407F00DFF010020000F301C
:1048A000FF30082209F015F907F0EEFE01002000A4
:1048B0001730FF30082209F00CF90020D6E7C04677
:1048C0002008002010B586B0124C134BE35C02AAFE
:1048D0001370124BE3580622FF329A5602A94A700F
:1048E000822252009A568A709E2252009A5803924F
:1048F000A02252009A58019204928881187804F0FC
:1049000083FAD02292000223A1580B43A350002027
:1049100006B010BD200800201D0400008C0400001B
:1049200010B5030008000749CC6B51B21A00A0472C
:104930000549D02292000223885803438B5000205F
:1049400010BDC046CC6B01082008002010B582B015
:10495000164C174B2360F4235B0063602000143077
:1049600003F0DAFD206100230193124A124BD35861
:10497000187801A904F0B3F9A060019BE36020005E
:104980001C3007F033FDA0612000243003F04EF905
:10499000206220002C3002F067FBA062200034303F
:1049A00003F0A8FA2063200002B010BDB415002067
:1049B000B40C0020200800208C04000070B582B0E8
:1049C000041E4AD02C4AD0239B00D358012B46D139
:1049D0000168002903D08288284809F07AF8032367
:1049E0006A461371A3680093234D254EAB5918787E
:1049F000694604F06CF9234BEA5C353BEA54AB5949
:104A0000982252009958FB229200A9503A22FF3274
:104A10009A5CFE239B00EA541B4B0122EA541B4B79
:104A20000132EA54A06907F0D3FC00281BD12069A9
:104A300003F064FD002818D1206A03F0E9F8051E90
:104A400015D1A06A02F002FB002812D0206B03F0FF
:104A500043FA002804D1152502E0032500E00125D2
:104A6000280002B070BD1125FAE71125F8E71325DB
:104A7000F6E71425F4E7C04620080020B40C002017
:104A80008C0400001D040000F9030000FA0300007C
:104A900010B5031E29D0002929D0027B0F20040065
:104AA0001440104207D020229A5C002A03D0002331
:104AB0000B70002005E02822985C002802D1012319
:104AC0000B7010BD002C06D12022985C002802D16A
:104AD00002230B70F5E7002C0BD120229B5C002BEE
:104AE00009D003230B702000EBE70320E9E7032044
:104AF000E7E71720E5E71720E3E70000F0B5D64623
:104B00004F464646C0B5A4B0D14B5E681D890A2108
:104B10005A5E90460C27DF5700230893CD4CCE4AAF
:104B2000A258926C91468922D200A354CB4A4146A6
:104B3000A152CB4AA7545432A15CCA4AA154CA4AD2
:104B4000A354CA4AA354CA4AA354CA4AA35004321B
:104B5000A354C94AA354C94AA3540232A350C84A11
:104B6000A354C84AA3500432A354C74BDB6A9847E6
:104B7000E8239B00E01805F007FD2900300002F053
:104B800085FA002839D1B34AB34BD258FC23D35C01
:104B9000012B39D034786309052B00D117E151D8A6
:104BA000012B7BD0032B00D0F1E2AA4AAA4BD358A9
:104BB0003A21FF31585C20A988708520C000125628
:104BC0004A700D220A70187804F069F81F902B00C3
:104BD0000D3B1BB21A1C002B00DAFDE012B21F9B2A
:104BE0001BB29A4202DC0B2D00D9F7E0994AA74B81
:104BF0000121D154FEF720FADFE2964BA44A414648
:104C0000995202329F54D8E202F036FB00280AD0B3
:104C1000002002F02FFA002001F07AFE8D4A914B1D
:104C20000421D154B6E702F033FB0028B2D00020B3
:104C300002F026FA002001F07DFE864A894B05210C
:104C4000D154A7E7072B00D0A1E2711C6A1E92B2D3
:104C5000904C200008F03DFF8F4BE318884A032159
:104C600099548A4A00219954824A9C50013D043249
:104C70009D548A495A5C022002435A54754A884B13
:104C8000D35C002B00D189E28923DB00D35C002BAD
:104C900000D18AE20020FEF797F986E2102D7DD937
:104CA0000996EDB209AB1D716A4A6B4BD258F023DD
:104CB0005B00D35C002B78D107F0FCFC010009AA53
:104CC000FF2003F0CFFD002876D109A8447A614A7D
:104CD000614BD1584C64D458817A0902666C3143D7
:104CE0006164D458C17A0904666C31436164D15857
:104CF0000C9C8C64017C4C06640F2626FF36D7582A
:104D0000BC550907090F96246400D658315508345C
:104D1000D6583155407C8A214900D4586050D35828
:104D20005A58002A03D10A001439FF399950494EC4
:104D3000494C32598A20400011584B015B1A9B00A4
:104D40005B18DB00135032591358FA2189008C4646
:104D500063448C2149005350EF235B0000223159FA
:104D6000CA5422A9B13BFF3B02AA94466344229352
:104D7000113D0D713359187803F0C5FF3259F023F6
:104D80005B000221D154012003F040F9002800D13A
:104D900074E70121002003F0E9F86FE72D4A3B4B4F
:104DA0000121D154FEF748F907E22A4A374B012185
:104DB000D154FEF741F900E2012003F027F9002861
:104DC00000D15BE70121072003F0D0F856E7214A24
:104DD0002B4B0121D154E8E60022FFE6139602ABEB
:104DE00048229B181D702B4B1C932823B73202A915
:104DF00044200918CA5413A803F043FE002811D117
:104E0000159B0593134A1F4B0599D150162102ABF0
:104E10009C46614413A8FFF73BFE051E09D1002301
:104E2000089341E00B4A194B0121D154FEF704F9D4
:104E3000C3E1084A154B0121D154FEF7FDF8BCE14E
:104E4000044A084B0321D154B146012553E0C04622
:104E5000A4150020200800208C040000320400006B
:104E6000340400003504000027040000260400007C
:104E7000290400002C040000310400003604000066
:104E8000240400003C040000CC6B01082504000051
:104E90007E040000580A0020C8FDFFFF89040000BE
:104EA0001C0400000130C0B2032822D8C84AC94BF4
:104EB000D15802002C234343CB181E6D159B9E42F4
:104EC000F0D12C234343CB184E331B78002BE9D071
:104ED0002C235A438A1813004F331B789846D36EFD
:104EE0001B680893FC23CB5C022BA9D0B14601259B
:104EF00001E004239846012D0BD1162302AA944603
:104F000063441B78032B36D113AB1B7B60221A4200
:104F100031D120A914230B70AD4B9A46AD4E9B594D
:104F2000187803F0BCFE1F9053469A59EE235B009D
:104F3000D358162202A98C466244117808AA02921C
:104F400017226244019280B2009013AA4046FEF7F5
:104F5000B7F8002835D0072814D008282CD09C4A50
:104F60009D4B0121D1549A4A8723DB000899D150E7
:104F7000FEF762F821E1964A974B0121D154FEF7E2
:104F80005BF81AE1924B944A08219954914A9B5834
:104F9000EF2252009A5C002AE5D11F329443A02CE4
:104FA000E1D1C632FF329A581E998A42DBD1E32200
:104FB000520001219954D6E7854A874B0A21D154E2
:104FC000D1E7172302AA944663441A7813AB0093DF
:104FD000089B4946404603F087FB002857D17C4B8D
:104FE00000217D4A99547D4A9D5413AA127BD00614
:104FF000C00F7B4E98557B48195004301954083027
:10500000089E1E509206D20F77481A5477481954BA
:105010008921C9005A54764A9B5C012B45D9012D40
:105020004BD01F239C43A02C4CD0694B694A985805
:105030000022E321490042546E495A54644B6E4A9F
:105040009A5C13A9097B6A48185CFEF777F8162367
:1050500002AA944663441B78022B00D17FE047D814
:10506000002B59D0012B00D08AE013AC227B120711
:10507000120F574D5E4BEB5C00933B00002117A8CD
:10508000FEF76AF82023E25C5C4BEA5460E00228F9
:1050900006D04F4A504B0C21D154FDF7CDFF8CE088
:1050A0004B4A4D4B0B21D154F7E7494A494BD25853
:1050B00080235B000021D150B1E7454A4D4B0221CE
:1050C000D154BBE7424A434BE32149000120D45865
:1050D0006054D358EF2252009A5C002A03D1E53283
:1050E000FF321E9999503A4A424B0121D154A5E70B
:1050F000032B45D113AA2023D05C354B3F4958548C
:1051000038491C9858502821515C8622D200995465
:105110003B4A012199541BE013AD2A7B1207120F61
:105120002B4C334BE35C00933B00002117A8FEF7A8
:1051300013F82023EA5C314BE2542A4B6A6AE250AE
:105140002823EA5C8623DB00E2542D4B0122E25443
:105150001F492C4A8B5C022003438B548EE513AC11
:105160002823E25C1A4D224BEB5C00933B000021AC
:105170001C98FDF7F1FF2023E25C204BEA54E7E79F
:10518000134A154B0121D154FDF756FFE0E7104AB1
:10519000114B0121D154FDF74FFF6FE50C4A0D4B28
:1051A000D258FC23D35C022B0DD00949154A8B5CE5
:1051B000202003438B54FDF7C5FC24B01CBC904653
:1051C0009946A246F0BD0020FDF7FEFEEDE7C04681
:1051D000200800208C0400002504000026040000A4
:1051E000290400002C0400003604000045040000DF
:1051F00035040000240400004404000027040000DB
:10520000310400008904000030B583B001A807F024
:1052100031FB124B1C6800221A6001A807F02FFB1B
:10522000002C0AD0E5B2E30609D42B070AD46B0799
:105230000BD4AB070CD4EB070DD403B030BDFDF796
:1052400033FEF2E7FFF75AFCF1E7FEF789FAF0E7E1
:10525000FEF764FBEFE7FEF767FBEEE71C080020B4
:1052600010B5FFF7D1FF02F005FC154A154BD35CD2
:105270009B0608D4FDF786FC114A9123DB00D35C22
:10528000022B19D010BD0020FDF774FCFDF7C2FC05
:10529000FDF7A2FD002803D0FDF7F0FE002803D1A2
:1052A000FEF748FBFFF7BEF9FEF7FCFCFEF748FDF2
:1052B0000120FDF75FFCDDE7FEF75AFDE2E7C0469F
:1052C0002008002089040000F0B5DE4657464E460F
:1052D0004546E0B595B0071E8846934600D1CBE120
:1052E000002900D1CAE10368002B00D1C8E143685E
:1052F000002B00D1C6E18368002B00D1C4E1C36854
:10530000002B00D1C2E1100003F0C3FC002800D143
:10531000BEE1E849380002F0C7FDF422E64E520033
:105320000021300008F0EDFBE44CE54A00212000AC
:1053300008F0E7FBE34D665101239A46E24B5246E3
:10534000E254E24BE2545B46337000239946FC334F
:105350004A46F254E033DE4AF25012AECF3BFF3BF6
:1053600033703100584603F09AFC1190431E984167
:105370004623FF336259D0543C3BFF3B9B4633707E
:1053800063591878310003F08AFC11906359187141
:105390000623337062591078310003F080FC1190BD
:1053A000625950710F23337062591078310003F045
:1053B00076FC11906359186110233370625910788C
:1053C000310003F06CFC1190635958611123337064
:1053D00062591078310003F062FC119063599861B2
:1053E0001223337062591078310003F058FC119089
:1053F0006359D8611323337062591078310003F078
:105400004EFC11906359186216233370625910785C
:10541000310003F044FC119025236259D0540E3B17
:10542000337062591078310003F039FC11906359E0
:1054300098626359186318233370625910783100E9
:1054400003F02DFC1190C0B22C236259D0540833C4
:105450006259D054173B337062591078310003F011
:105460001EFC119038236259D0541A3B3370625994
:105470001078310003F013FC119039236259D05495
:105480001A3B337062591078310003F008FC119018
:105490006359119ADA63202333706259107831000E
:1054A00003F0FDFB11906359119A1A640B233370BA
:1054B00062591078310003F0F2FB1190FF239B003A
:1054C000E0520C23337062591078310003F0E7FB8F
:1054D0001190804BE0522422615950468854635900
:1054E00059469960615906230B7363598421490019
:1054F000986858506359187B0431585463590431E3
:105500001869585063590431586958506359043127
:105510009869585063590431D86958506359043117
:10552000186A58506359995C0132FF32995405A9A1
:105530004B460B7105936359187803F0C8FBFEF7CF
:105540005DFAFD2362595146D154D1239B00E750A7
:1055500004334246E250604B4A46E2544A3BFF3B2A
:10556000E150753BFF3B62594946D15004336259C3
:10557000D150A133FF33E018584904F077FFE223FC
:105580009B00E018564904F071FFE8239B00E018E7
:10559000544904F06BFF8023DB00E018524904F00B
:1055A00065FF655902AE300004F0BEFED535FF350B
:1055B0000CCE0CC5D3239B004C4AE25008334C4A16
:1055C000E25008334B4AE2500C3B4B4AE25008335E
:1055D0004A4AE2504A4B1B68D3229200A0189847CF
:1055E000484806F0E3FE00285BD1474802F05CFF24
:1055F000002858D1454802F0F7FA002855D12F4A23
:10560000304BD0584C3002F0DDFF041E4FD13C4EE1
:105610007369984708F04CFA284D2A4FFD23EA5940
:10562000D05CB36D9847F36A984743465B680F9325
:105630004346DB6801931093354BEB180793354BCA
:10564000EB1808938B23DB00EB180993224BEB1824
:105650000A93EB591A0048320B920C935A1DFF32F1
:105660000D924C330E932C4A0FA907A801F0BEFCF3
:105670000120FDF77FFA0CE003240AE0032408E090
:10568000032406E0032404E0032402E0032400E0F2
:105690000924200015B03CBC90469946A246AB4672
:1056A000F0BD1124F5E71124F3E71324F1E71124E9
:1056B000EFE7C046CD2D0008B40C002020080020E4
:1056C000940400008C0400001A0400001904000077
:1056D00000030001FE03000089040000AD4500083E
:1056E0009D3E0008353E0008C92F000819410008FA
:1056F000C9400008ED2A0008C12A0008192B00083B
:10570000CC6B0108AF2D0008A52D0008B92D0008AD
:105710006C04000024040000C32D0008034AD023B9
:105720009B000021D15000207047C0462008002077
:1057300070B588B005000C002F4A304BD35880223A
:1057400052009A580292052018566946C8710420E2
:1057500018566946887100210091002C45D003A895
:10576000DD31FF315958039100210171FE31595C3F
:1057700041718260204AFF218900515A818120496C
:10578000525AC2810622FF329A5602748222520075
:105790009A5642749C2252009A5C82741B78C3749D
:1057A0006B46DE1D02AB6A460632310001F003F89B
:1057B00000203056FDF74EFB6070684602F0BAFAE2
:1057C000002814D1009A0F2A0BD8637819009A4246
:1057D00007D89B1A237094466544A94209D308B0A0
:1057E00070BD002323700820F9E70320F7E713209A
:1057F000F5E70820F3E7C046200800208C040000ED
:10580000FE03000010B584B0041E00D11DE1007835
:10581000352800D915E183008D4AD3589F468D4A1B
:105820008D4BD258FC23D35C23710FE1894A8A4BFC
:10583000D258F0235B00D35C2371002006E106F010
:1058400023FF6060002001E106F034FF606000206B
:10585000FCE006F045FF60600020F7E07D4A7E4BEB
:10586000D258FE23D35C23710020EFE0794A7A4BB3
:10587000D3585B6C63600020E8E0764A764BD358DF
:105880009B6C63600020E1E0724A734BD258FD23A9
:10589000D35C23710020D9E002A91C230B706D4A50
:1058A0006D4BD358187803F0FAF960600020CDE012
:1058B000684A694BD35804342933FF3306CB06C4F6
:1058C0000020C3E0634A644BD3580434283306CB2A
:1058D00006C40020BAE05F4A5F4BD358043431332A
:1058E000FF3306CB06C40020B0E05A4A5A4BD358C7
:1058F0000434303306CB06C40020A7E002A91A23E3
:105900000B70544A544BD358187803F0C8F96060B0
:1059100000209BE002A919230B704E4A4E4BD3582E
:10592000187803F0BCF9606000208FE0494A4A4BC8
:10593000D25892235B00D35C2371002086E0454A55
:10594000454BD25888235B00D358636000207DE02C
:10595000404A414BD2588A235B00D35863600020F1
:1059600074E03C4A3C4BD2588C235B00D3586360B4
:1059700000206BE0374A384BD2588E235B00D35857
:105980006360002062E0334A334BD25890235B00BF
:10599000D3586360002059E02E4A2F4BD3585B79CF
:1059A0005BB22371002051E02A4A2B4BD2580623C8
:1059B000FF33D3562371002048E0264A264BD358A4
:1059C0001B795BB22371002040E0224A224BD2585F
:1059D00082235B00D3562371002037E01D4A1E4B03
:1059E000D25884235B00D358636000202EE0194A0C
:1059F000194BD25886235B00D35C2371002025E02D
:105A0000144A154BD258A0235B00D3586360002082
:105A10001CE0FEF79BFF6060002017E00D4A0E4B74
:105A2000D3581B6C6360002010E00A4A0A4BD2581E
:105A3000EE235B00D358636003F004FAA0600020FB
:105A400004E0200001F0A4FC00E0032004B010BD3D
:105A5000DC660108200800208C04000030B585B009
:105A6000041E00D138E3BA4AD0239B00D3589B07C9
:105A700000D533E30578342D00D9DDE2AB00B54A1B
:105A8000D3589F460079FEF737FA0500FDF785F9F0
:105A9000FDF77EF9280005B030BD0379022B00D157
:105AA000CFE2AB49AC4A8958F02252008B54002512
:105AB000ECE7406806F0D6FD051EE7D00325E5E7D4
:105AC000406806F0E5FD0028E0D10500DEE740680B
:105AD00006F0F4FD051ED9D00325D7E79C4A9E4B5E
