:020000040800F2
:10000000004000209134000829340008E134000841
:1000100000000000000000000000000000000000E0
:10002000000000000000000000000000E1340008B3
:100030000000000000000000E13400086D2300080B
:10004000E1340008E1340008D92D0008E13400084B
:10005000E1340008EB270008FB2700080B28000804
:10006000E1340008E1340008E1340008E13400081C
:10007000E1340008E1340008E1340008E13400080C
:10008000E1340008E134000800000000E134000819
:10009000E1340008E1340008E1340008E1340008EC
:1000A000E1340008E1340008E134000819340008A4
:1000B000E134000800000000E13400080000000006
:1000C0005FF808F110B5064C2378002B07D1054BDB
:1000D000002B02D0044800E000BF0123237010BDB4
:1000E0009800002000000000E4840008044B10B5D4
:1000F000002B03D00349044800E000BF10BDC046F8
:10010000000000009C000020E484000810B5034BB0
:10011000DB6A9847024B04221A7010BD6083000806
:10012000F200002010B5034BDB6A9847024B052212
:100130001A7010BD60830008F200002010B5034B58
:10014000DB6A9847024B02221A7010BD60830008D8
:10015000F200002010B5034BDB6A9847024B0322E4
:100160001A7010BD60830008F2000020F8B5070087
:100170000C0016001D000C4BDB6A98470B4B1C80D3
:10018000220039000A4806F0D7FF0A4B1E700A4BBE
:100190001D700A4B01221A70094B00221A8009486F
:1001A00000F094FAF8BDC04660830008000000200B
:1001B0002C040020F0000020F1000020F2000020BC
:1001C000F4000020B400002070B5204800F002FBCD
:1001D0001F4B1B78002B25D01D4B00221A701D4B86
:1001E0001B785BB2002B15DB002400211A4800F0BD
:1001F0000EFA164D2100280000F034FB280000F014
:1002000065FA164B19886418A4B21C80144B9C42E2
:1002100011D870BD9BB25A03D21A9200D31A5C0057
:10022000A4B2E2E70A4B01221A7001210A4800F049
:10023000EEF96424DDE7094B00221A80002106480C
:1002400000F0E5F9014800F0C5FAE2E7B40000204B
:1002500002000020F0000020E0050020F400002053
:10026000B80B0000F0B5C64600B58AB002F08EF8B3
:1002700002F06BF8AE48AF4B0360AF4B8360AF4BFF
:100280004360AF4BC360AF4B0361AF4D2B689847E2
:10029000AE48EB689847AE4CAE49200000F00CFA2F
:1002A0006421200000F0DEFA200000F00FFAAA4BD3
:1002B0000893002407940694059401260496039459
:1002C000082398460293019602330093093B0022CB
:1002D0000E210120EF69B847099608940794069407
:1002E0000596049403940294434601930094073BBB
:1002F0000A2201210120AC69A047142101206B6D65
:10030000984702F023F803F0A7F86C6B0521002052
:1003100003F0A8F803004001C01A8000C018C00014
:100320008D4B9C466044A0478C4806F017FF8C48D4
:1003300002F00CF9002509E08A4800F06CF98A48BF
:1003400000F069F9642000F01BF90135092DF3DD97
:10035000012527E0052B1ED10021824800F057F926
:100360000521002003F07EF802004001801A800081
:100370008018C000784B9C466044A0477B4B00220D
:100380001A7008E0002D7CD0794B1B88002B31D1EE
:10039000764B00221A7002F0A8F86B4B1B6E002BF4
:1003A00000D09847714B1B78042B00D19BE0D1D82B
:1003B000012BE7D0002BEED0023BDBB2012BEAD8B9
:1003C000002D00D1A5E06B4E14226B49300006F0E1
:1003D000B3FE012000F0D4F85B4B9B6A644A1178AD
:1003E0003000984701215F4800F011F95F4B00226F
:1003F0001A70D0E7142261495E4806F0D0FE00284A
:1004000016D1594800F007F95A4E14225A493000C3
:1004100006F092FE012000F0B3F84B4B9B6A544A61
:1004200011783000984701214E4800F0F0F8AFE70E
:10043000142251494F4806F0B2FE002812D14A4812
:1004400000F0E9F80521002003F00CF8020040015B
:10045000801A80008018C0003F4B9C466044A04733
:10046000002595E70521002002F0FCFF0200400175
:10047000801A80008018C000374B9C466044A0471B
:1004800086E73B4B1B88002B82D014223A4939481F
:1004900006F085FE002816D1334800F0BCF8354E32
:1004A00014223649300006F047FE012000F068F8BB
:1004B000254B9B6A2E4A1178300098470121294824
:1004C00000F0A5F864E70521002002F0CBFF020050
:1004D0004001801A80008018C0001F4B9C46604479
:1004E000A047012554E700211E4800F090F805219F
:1004F000002002F0B7FF02004001801A800080183F
:10050000C000154B9C466044A047184B00221A704F
:1005100041E70521002002F0A5FF02004001801AFA
:1005200080008018C0000C4B9C466044A0475DE7EB
:10053000CC0000200D0100086D0100082501000815
:100540003D0100085501000860830008C0CA8936D3
:10055000B4000020C9010008881300005081000881
:1005600068810008500E0020CC050020F200002019
:10057000000000202C0400207C810008C0810008BD
:1005800010B501F0EFFF10BD10B50300481C19892C
:1005900005F0A6F988B210BD0023038043804160B6
:1005A0000281704770B504000D004188FFF7ECFF31
:1005B000608063681D5470BD70B504004568018893
:1005C000FFF7E2FF0300285C238070BD03884088AA
:1005D000181A43425841C0B2704710B50400418810
:1005E000FFF7D2FF2388C01A43425841C0B210BD62
:1005F00030B583B006AC2478079D0195009402F0D5
:1006000061F803B030BD10B501F0B0FF10BD10B5FA
:1006100002F04AF810BD10B502F0DAF810BD000083
:1006200010B50A4B1A6853695169002909D001684D
:100630001C68A14202D91A005B69F5E75061436169
:1006400002E050610023436110BDC046F800002065
:10065000054B1B68002B03D0834203D05B69F9E78D
:10066000002070470120FCE7F800002070B504006E
:1006700002F04EFA050001236372266802F02CFB9B
:100680002818864203D3206802F034FB70BD02F0C4
:1006900023FB2D182560F6E710B5064B1B68002BD1
:1006A00001D000225A724361024B1860FFF7DEFF4F
:1006B00010BDC046F80000200023036043600372B1
:1006C0004372C160036143617047000010B582B09E
:1006D000040001A801F030FE002C21D02000FFF71B
:1006E000B7FF00281CD16368236001232372002315
:1006F0006372124B1B68002B16D002F0EDFA2368D0
:100700009C46604420600D4B1B681B68984211D2C8
:100710002000FFF7C1FF01A801F013FE02B010BDD9
:1007200001A801F00EFEF9E702F08CF92000FFF7B6
:10073000B3FFF0E72000FFF773FFECE7F8000020BD
:10074000F8B502F0DFF9040002F07CF9071B204B3A
:100750001B68002B0ED0190002E0002515604969C6
:100760004A69002A06D01568BD42F6D9261A7519BD
:100770001560F4E7002B09D0154A59691160002271
:100780001A72DA68002A16D018699047104B1B6855
:10079000002B12D01C6802F09FFA84420DD20C4A42
:1007A00013685969116000221A72DA68002A03D0AE
:1007B00018699047EAE7FEE7FEE7054B186800284E
:1007C00002D0437A002B00D0F8BDFFF74FFFFBE7C4
:1007D000F800002010B582B0040001A801F0ACFDC3
:1007E0001F4B1A68002A0DD0002C0BD00023237257
:1007F000A2420BD01300002B29D0A34223D01A0011
:100800005B69F8E701A801F09CFD23E0537A002B17
:100810000FD0002353725069002804D0104B186089
:10082000FFF724FF13E002F08FF90D4B00221A604E
:100830000DE05369002B02D0094A136007E0084B12
:1008400000221A6003E05B69002B05D0536101A808
:1008500001F077FD02B010BD00235361F7E7C046F9
:10086000F800002070B50400080002F053F90500FC
:100870002000FFF7AFFF02F04BF9854200D32800BC
:100880002060606070BD10B502F01EFA02F04AF9F7
:1008900010BD70B5041E01D1200070BD02F014FA25
:1008A0000500200002F036F9281A02F03BF9040096
:1008B000F2E710B54478002C00D010BD013444702C
:1008C00002F024FCF9E770B584B008AC247809ADD7
:1008D0002D780AAE367802960195009402F048FC15
:1008E00004B070BD10B502F0C3FC10BD10B502F02D
:1008F000EBFC10BD10B502F006FD10BD10B502F006
:1009000022FD10BD10B5002301E00133DBB2142B32
:100910000DD8DA00064C12598242F6D85A1CD20081
:1009200012598242F1D9D9006118087910BDFEE749
:1009300028820008012807D0022807D0002801D00B
:10094000002070470248FCE70248FAE70248F8E74F
:1009500048E8010090D0030020A10700C000002952
:1009600009D1083140181830002B06D00223D218C4
:10097000D200801870470021F4E70023F7E7F8B5AC
:100980000D001E0006AB1B7807A90C7808A9097892
:10099000171D6A1F012A2CD9002803D12A000B3AFF
:1009A000012A2ED9012828D00022E40000292CD0C9
:1009B00010202018A900401A002B28D00023C018AE
:1009C000062D04D90830002A01D0A91E890000286C
:1009D0001FDB0818013804F09DFE4743F61930006C
:1009E0000C30062D00D8023080000130023DA840B6
:1009F000F8BD0B2ED0D80C26CEE70C2D03D000224C
:100A0000D3E70122D1E70122CFE70020D1E7142369
:100A1000D5E70020DDE70000074AE123D35C002B87
:100A200008D10D33FF33D35C002B03D10D33FF33DB
:100A30000121D1547047C04670040020014AE023D0
:100A4000D05C704770040020F0B585B004000D0044
:100A500016001F000AAB18880BAB19780CAB1A787C
:100A60000DAB1B78002C0AD0012C10D001260024DD
:100A7000A0190138310004F0C3FD05B0F0BDFFF747
:100A80006DFF4401241AA4002418E400F0E7029347
:100A90000192009103003A0031002800FFF76FFF38
:100AA0004401241AA4002418E4002800FFF742FFA0
:100AB0000600DDE7F8B504000E0015000D4F00211B
:100AC0003800FFF7A4FD8021214389B23800403867
:100AD00002F0F0FA0024AC4206D2315D064802F082
:100AE000E9FA0134E4B2F6E701210248FFF78FFD8D
:100AF000F8BDC0463C050020FC04002010B50A00EB
:100B000001000020FFF7D6FF10BD00B583B06B4693
:100B1000D971073301221900FFF7CCFF03B000BDE4
:100B200010B50D4AE423D05006F092FA0B4A0C4B54
:100B300005F02AFC04F038FF0400010CC9B20620BD
:100B4000FFF7E3FF210AC9B20720FFF7DEFFE1B29A
:100B50000820FFF7DAFF10BD700400208DEDB5A06E
:100B6000F7C6903FF8B507000E0015000D4C0021A8
:100B70002000FFF74CFD7F2139402000403802F073
:100B800099FA0024AC4207D20021074802F092FAF9
:100B900030550134E4B2F5E701210248FFF737FD93
:100BA000F8BDC0463C050020FC04002010B50A003A
:100BB00001000020FFF7D6FF10BD10B582B06B46D4
:100BC000DC1D01222100FFF7CDFF207802B010BD0F
:100BD00010B5134AE123D35C012B00D010BD1220C5
:100BE000FFF7EBFFC3070DD505211220FFF78DFF9F
:100BF0000C4B1B68002BF1D09B69002BEED0012021
:100C00009847EBE704211220FFF77FFF054B1B6895
:100C1000002BE3D09B69002BE0D000209847DDE754
:100C200070040020FC00002070B5424AE023D35C31
:100C3000012B02D0022B5FD070BD3E4AE123D35C72
:100C4000002B19D0012BF7D13A4A3023FF33D35C64
:100C5000002BF1D002211220FFF757FF364B1B6803
:100C6000002BE9D05C69002CE6D01C20FFF7A5FF23
:100C70003F231840A047DFE72E4B9B6E002B35D05B
:100C80002C4A86235B00D35C002BD5D00E23FF3388
:100C9000D35C002BD0D12948FFF79CFD254D0E23B6
:100CA000FF330122EA541120FFF787FF400840423A
:100CB00087225200A8541B20FFF77FFF04021C204C
:100CC000FFF77BFF204306F093F900221C4B05F051
:100CD0005BFB06F057F988235B00E8500C20FFF718
:100CE0006CFF40098A235B00E854A5E7114A0D33E5
:100CF000FF330121D154C3E70E4AE123D35C012B1A
:100D00009AD13023FF33D35C002B95D002211220DF
:100D1000FFF7FBFE084B1B68002B00D18CE75C69DA
:100D2000002C00D188E71C20FFF747FF3F23184025
:100D3000A04781E770040020FC0000205804002038
:100D400080844E4010B54C4AE023D35C012B02D086
:100D5000022B63D010BD484AE123D35C002B15D091
:100D6000012BF7D14548FFF735FD80211220FFF711
:100D7000CCFE414AE0230021D154414B1B68002B9B
:100D8000E8D0DB68002BE5D09847E3E73D48FFF764
:100D900021FD394A8B235B00D35A002B0CD1193328
:100DA000FF33D35A002B07D1FE33D35C002B20D165
:100DB00001213548FFF7FAFE2F4A8B235B00D35AF7
:100DC0008C214900505A1C1A0231515C8C4218DBAC
:100DD0000139C9B22D4BC018FFF7E8FE264A8D2312
:100DE0005B00D35C8C214900505A1B18013B5352C5
:100DF000B0E73220FFF7E1FE1F4A8B235B00D052A1
:100E0000DAE7191AC9B2214BC018FFF7CFFE1A4B07
:100E10008B225200995A023299529BE7164AE123DB
:100E2000D35C002B00D095E71733FF33D35A8C21C6
:100E30004900505A1C1A1C21FF31515C8C420DDDB7
:100E4000124BC018FFF75AFE0B4B1C22FF329A5C64
:100E50008C214900585A12185A527BE7191AC9B204
:100E60000A4BC018FFF74AFE034B8B225200995AD7
:100E7000023299526EE7C04670040020B40500208B
:100E8000FC000020580400208605002000010020FE
:100E900070B582B06B460022DA71BF4AE023D35CA2
:100EA000012B04D0022B00D15AE102B070BDBA4A26
:100EB000E123D35C002B28D0012BF6D14021122056
:100EC000FFF723FE1220FFF778FE6B46D871073339
:100ED0001B789B0600D4CDE020211220FFF715FEE1
:100EE000AD4A99235B00D35C002B02D1E033002193
:100EF000D154AA48FFF76EFCA94B1B68002BD4D035
:100F00001B69002BD1D09847CFE7A34A80235B0011
:100F1000D35C002B21D1A04A8B235B00D15A00293E
:100F200063D10233D35A002B5FD1FE33D35C002B45
:100F300053D101319B48FFF739FE974C8C256D004A
:100F4000605B8B267600A15B091AC9B2964BC0186C
:100F5000FFF72CFEA35B635355E03F20FFF72DFE08
:100F60006B46D87107331B789B07D4D40B213E20E6
:100F7000FFF7CBFD10213F20FFF7C7FD8748FFF7A4
:100F800029FC854A81235B00D35C002B1BD1874859
:100F9000FFF720FC804AE0230021D154804B1B68DE
:100FA000002B03D01B69002B00D098477A4B0022FE
:100FB000862149005A540E21FF315A540B315A529E
:100FC00002395A5271E70D20FFF7F7FD4021014326
:100FD000C9B20D20FFF799FDE0E73220FFF7EDFDE4
:100FE0006D4A8B235B00D052A7E76B4C8C256D00BC
:100FF000605B091AC9B26C4BC018FFF7D7FD8B2391
:101000005B00E35A63536548FFF7E4FB624A8123C0
:101010005B00D35C002B23D1E0330021D154634823
:10102000FFF7D8FB5E4B1B68002B0CD09C68002C94
:1010300009D0594B872252009A568B214900595AA0
:1010400000235948A047544B0022862149005A5496
:101050000E21FF315A540B315A5202395A5224E7A9
:101060000D20FFF7AAFD40210143C9B20D20FFF773
:101070004CFDD7E71920FFF7A0FD40B202308010E9
:10108000454D9E24640028551A20FFF796FD03B2B3
:101090002A57002A40DB4049E4228958444A9142B9
:1010A00056D91B111B189D3B3B499F2252008B5266
:1010B0001320FFF782FD384CA0256D0060551020ED
:1010C000FFF77BFD01000D20FFF71FFD615D364836
:1010D000FFF76CFD99235B00E35C002B03D12E4AE4
:1010E000E0330021D1542D48FFF774FB2C4B1B68D3
:1010F000002B00D1D9E69C68002C00D1D5E626490A
:101100009E235B00CB569F2252008A5EA0204000A7
:10111000095C2548A047C8E61F4CE42164582449CF
:101120008C420AD91B111B189BB292B29B189D3B93
:1011300019499F2252008B52BAE71B111B189BB210
:1011400092B29B18A43B14499F2252008B52AFE7E6
:101150001B111B18A43B10499F2252008B52A7E77A
:101160001448FFF737FB0C4AE123D35C012B0ED068
:10117000094AE0230021D154094B1B68002B00D100
:1011800093E61B68002B00D18FE698478DE6082177
:101190001220FFF7BAFCEBE770040020B405002032
:1011A000FC000020860500200001002058040020DB
:1011B00040DD4A1F4004002070B50920FFF7FDFC08
:1011C00005000620FFF7F9FC04040720FFF7F5FCF3
:1011D000000204430820FFF7F0FC204305F038FF2D
:1011E0000022184B05F0D0F804F0DEFB04000021CB
:1011F0000920FFF78AFC3B20FFF7DFFC4021014379
:10120000C9B23B20FFF781FC3B20FFF7D6FC8306E9
:10121000FAD40D48FFF784FC3B20FFF7CEFC4021B9
:101220000143C9B23B20FFF770FC3B20FFF7C5FC30
:101230008306FAD429000920FFF767FC2000FFF796
:101240006FFC70BD80844E4000A1BC3310B5041EFD
:101250000ED1012004F0B2F90120FFF7AEFC41B23B
:10126000072399432143C9B20120FFF74EFC10BD6B
:10127000012004F0F5F8002004F0A0F9200004F0AB
:10128000AFF9E9E710B50A48FFF7A4FA0948FFF7F4
:10129000A1FA0948FFF79EFA0020FFF7D7FF0020C8
:1012A00004F0DEF8054AE0230021D15410BDC04609
:1012B000B4050020400400205804002070040020E1
:1012C00010B50848FFF786FA0748FFF783FA074882
:1012D000FFF780FA0120FFF7B9FF054AE02300215C
:1012E000D15410BDB4050020400400205804002053
:1012F0007004002010B504003048FFF76BFA21009D
:101300002F48FFF7AFFA2F4AE123D35C002B0CD014
:10131000012B29D02B4AE0230221D1542848FFF782
:10132000D5F90320FFF792FF10BD4020FFF745FCE1
:1013300040B2032101401020014349B2C9B240200C
:10134000FFF7E3FB4120FFF738FC3E21014041203D
:10135000FFF7DBFB3520FFF730FC3F230340194943
:101360008D2252008B54D5E7164A3023FF33D35CCD
:10137000002B11D0F5211120FFF7C7FB4020FFF70C
:101380001CFC40B2332101404020014349B2C9B2A4
:101390004020FFF7BAFBBDE7F7211120FFF7B5FBAF
:1013A0004020FFF70AFC40B23F21014040200143AA
:1013B00049B2C9B24020FFF7A8FBABE7B405002053
:1013C000400400207004002070B582B004006B4619
:1013D000D9714A4AE123D35C002B06D0012B41D0BE
:1013E0000020FFF787FF02B070BD444B8C225200F3
:1013F000002199526A46D1798B2252009952183AAB
:101400009B5C002B1FD101216B46D81DFFF776FB9B
:101410006B46DA79531EDBB23F2B18D837491C23B1
:10142000FF33CA54354D1C26FF36A95D2000FFF757
:1014300065FBAB5D8C225200A95A5B18AB5282232C
:101440005B00E858CDE73220FFF75FFBE0E792B2A0
:1014500021002B4802F011F8284A1C23FF332021D9
:10146000D154DFE7254A3223FF33D35C002B2DD044
:101470003320FFF7A2FB41239843C1B23320FFF78B
:1014800044FB19213B20FFF740FB6B46D9791B4AEF
:10149000A0235B00D1542220FFF737FB00210E2050
:1014A000FFF733FB00210D20FFF72FFB0120FFF793
:1014B00084FBF82398431AD06B46D9792000FFF7B4
:1014C0001DFB0E4A9A235B00D0588AE73320FFF7B2
:1014D00074FB41B24123994301200143C9B2332037
:1014E000FFF713FB1D213B20FFF70FFBCDE7FFF7B5
:1014F000E7FE0120FFF744F8DEE7C0467004002055
:101500000001002070B50400A448FFF763F9A44A65
:10151000E123D35C002B1CD0012B4DD00026802270
:10152000520000219F4805F010FE9D4AE023012152
:10153000D154002C00D012E1994AE123D35C002B56
:1015400000D115E1002E00D124E10520FFF77EFE39
:1015500070BD934D81235B00EE5C4020FFF72DFBB7
:1015600040B2032101400C20014349B2C9B24020DE
:10157000FFF7CBFA4120FFF720FB3F21494201430F
:10158000C9B24120FFF7C1FA3520FFF716FB3F2310
:1015900003408D225200AB541E210D20FFF7B5FAF7
:1015A000002386225200AB540E22FF32AB540B3282
:1015B000AB52023AAB52B2E7794A3223FF33D35CE3
:1015C000002B29D03320FFF7F8FA41210143C9B29B
:1015D0003320FFF79AFA19213B20FFF796FA704A59
:1015E00090235B00D358082B00D983E03120FFF70C
:1015F000E4FA7F2101403120FFF787FA00213020F3
:10160000FFF783FA664A90235B00D358082B7BD8F8
:101610009B00654AD3589F463320FFF7CEFA41B26C
:101620004123994301200143C9B23320FFF76DFAEA
:101630001D213B20FFF769FAD1E748212F20FFF752
:1016400064FA574AE423D058584B9C466044FFF74D
:1016500067FA59E044212F20FFF757FA504AE42354
:10166000D058534B9C466044FFF75AFA4CE0442153
:101670002F20FFF74AFA4A4AE423D0584D4B9C46A4
:101680006044FFF74DFA3FE044212F20FFF73DFA79
:10169000434AE423D058484B9C466044FFF740FA45
:1016A00032E044212F20FFF730FA3D4AE423D0589E
:1016B000424B9C466044FFF733FA25E044212F203B
:1016C000FFF723FA364AE423D0583D4B9C4660444A
:1016D000FFF726FA18E040212F20FFF716FA13E053
:1016E00040212F20FFF711FA0EE040212F20FFF7B5
:1016F0000CFA09E03120FFF760FA802149420143EA
:10170000C9B23120FFF701FA254B992252009E5CA5
:101710003022FF329B5C002B14D01D211120FFF7DB
:10172000F4F94020FFF749FA332101404020FFF748
:10173000ECF900210F20FFF7E8F900210D20FFF759
:10174000E4F9ECE61F211120FFF7DFF94020FFF755
:1017500034FA3F2101404020FFF7D7F9E9E7194D5E
:1017600021002800FFF77EF82800FEF7AFFFE3E630
:101770000520FFF76BFD002E00D0E9E6084A842320
:101780005B00D158104C2000FFF76CF82000FEF7EA
:101790009DFFDDE60620FFF759FDD9E64004002055
:1017A000700400200001002004820008821E000056
:1017B000B4280000043D00005E510000127A0000D1
:1017C000C6A20000B40500205804002010B50D4A40
:1017D000E123D35C012B00D010BDFA211120FFF7CB
:1017E00094F94020FFF7E9F90324A043C1B2402057
:1017F000FFF78BF9034AE023D4540720FFF726FDB7
:10180000EAE7C0467004002010B5002804D0012883
:101810000AD00120404210BD1120FFF7CEF9400848
:10182000C0B2404200B2F6E7094AE423D258094B5D
:101830009A4206D91B20FFF7C0F980B29D3800B24A
:10184000E9E71B20FFF7B9F980B2A43800B2E2E75C
:101850007004002040DD4A1F10B504000120FFF78E
:10186000ACF9030620D41E4AE1230021D1541C4ABE
:10187000E123D35CA34216D0E123D454012C18D029
:101880000020FFF7E3FC0120FFF797F97F210140DB
:101890000120FFF73AF900214020FFF736F9302107
:1018A0004120FFF732F910BD0D4AE1230121D15447
:1018B000DDE70020FFF7CAFC0120FFF77EF9802159
:1018C00049420143C9B20120FFF71FF9002140201E
:1018D000FFF71BF900214120FFF717F9E3E7C046A6
:1018E0007004002070B5194B1860194C210019487C
:1018F000FEF7E2FE21001848FEF7DEFE2100174841
:10190000FEF7DAFE03F0B0FDFFF756FC0020FFF70C
:101910009DFC134803F072FD00240F2C0DD8114DCF
:1019200066003619705DFFF797FFAD196878A978E2
:10193000FFF7EBF80134E4B2EFE70020FFF78CFF8C
:10194000094AE0230021D15470BDC046FC000020AC
:101950000121000840040020B405002058040020A4
:1019600004000020D882000870040020F8B50700A9
:101970000C0016001D00FFF785FC0020FFF76CFF30
:101980003800FFF7CDF82000FEF7BCFF040001008F
:101990001220FFF7BAF821001320FFF7B6F8052050
:1019A000FFF754FC0120FEF7EBFDFEF76CFF04008F
:1019B0002000FEF76EFFA84206D20020FFF724FFAA
:1019C000B042F5DD002400E00124FFF75BFC2000BD
:1019D000F8BD70B50120FFF73FFFFF211120FFF791
:1019E00094F80520FFF732FC002500241F2C0CD8AA
:1019F0000120FEF7C5FD2C20FFF7DFF8012303408F
:101A0000A3401D430134E4B2F0E7FFF73BFC28009C
:101A100070BD0000F0B5DE4657464E464546E0B57F
:101A200089B0040001911600029312AB04CB04921A
:101A30001D8814AB1B88059315AB1B78994616AB14
:101A40001B789A4617AB1B789B4618AB1B780793FD
:101A500019AB1B7898461AAB1B7806931BAB1F7803
:101A6000FFF7FAFE002C09D0012C00D18FE009B05D
:101A70003CBC90469946A246AB46F0BDB84CF0231C
:101A8000019AE2500833E650043B0499E1500A33CE
:101A90004A46E25401335246E25401335A46E25474
:101AA0000223FF33069AE2540133E754063BE55222
:101AB000300005F0CDFA06000F0002000B000020F8
:101AC000A84904F05BF802900391059805F090FA9C
:101AD000029A039B04F058FC0022A34B04F054FC30
:101AE00003F062FF84235B00E05032003B000020E3
:101AF0009E4904F043F803F057FF86B2310A0220F2
:101B0000FFF703F8F1B20320FEF7FFFF0198FEF79D
:101B1000F9FE01001220FEF7F8FF0498FEF7F2FE2E
:101B200001001320FEF7F1FF290A2520FEF7EDFF43
:101B3000E9B22620FEF7E9FF4B46002B1FD05146A5
:101B40003220FEF7E2FF3020FFF737F840B26F2176
:101B500001404B46002B17D0002319435B461B0165
:101B60001943C9B23020FEF7D0FF3120FFF725F826
:101B700040210143C9B23120FEF7C7FF77E7FF21BB
:101B80003220FEF7C2FFDEE780235B42E5E7019BE0
:101B9000022B00D9FEE7019C0734714B90225200C2
:101BA0009C5004329E502A22FF32029999540132ED
:101BB0009D520232494699542E22FF325146995481
:101BC0000132594699543022FF3207999954013213
:101BD000414699543222FF320699995401329F545A
:101BE0000C2E03D8052E02D8062600E00C26072C62
:101BF00068D0082C70D05A4A94235B000021D1543D
:101C00001D20FEF7DAFF2101C9B2029B5B00DBB2A7
:101C100019434B4619431D20FEF777FF1E20FEF7A0
:101C2000CCFF082101403301DBB219435B469B0026
:101C3000DBB21943059F3A0A0323134019431E20C0
:101C4000FEF763FF2620FEF7B8FF41B20823994351
:101C5000434A2133FF33D35CDB001943C9B226204A
:101C6000FEF753FFF9B21F20FEF74FFF290A20208D
:101C7000FEF74BFFE9B22120FEF747FF4B46002B52
:101C80002DD1374A3023FF33D35C002B2CD1092CC4
:101C90003CD0092C49D003213620FEF736FF062E12
:101CA0004CD03120FEF789FF41B20723994303232B
:101CB0001943C9B23120FEF728FF0A213720FEF769
:101CC00024FFD4E633000B3B012B92D8244A942303
:101CD0005B000121D15493E70C2E8CD1F6E75146DD
:101CE0002220FEF712FFCCE74420FEF766FF802398
:101CF0005B420343D9B24420FEF707FF184A9823FA
:101D00005B00D15C2420FEF700FFC0E7144AE42307
:101D1000D258174B9A42BCD902213620FEF7F5FE65
:101D200064213A20FEF7F1FEB9E702213620FEF7E2
:101D3000ECFE7F213A20FEF7E8FEB0E73120FEF707
:101D40003CFF41B20723994305231943C9B231200F
:101D5000FEF7DBFE0C213720FEF7D7FE87E6C046F4
:101D6000700400200000204000408F4080847E41AD
:101D700040DD4A1FF0B5DE4657464E464546E0B5C3
:101D800085B0009102921C000EAB20CB1A789046D1
:101D900010AB1E8811AB1A78914612AB1F7813ABAB
:101DA0001A78924614AB1A78039215AB1A789346B8
:101DB0000190FFF751FD009803F076FB019B002B8B
:101DC00008D0012B6AD005B03CBC90469946A2468B
:101DD000AB46F0BD8A4BE822009999540432029830
:101DE000985004329C5008329D5004329E52023268
:101DF0004946995402329F540222FF32594699545F
:101E000003321699995005F023F97E4A7E4B04F06F
:101E1000BBFA03F0C9FD84B2210A0420FEF775FE67
:101E2000E1B20520FEF771FE280005F011F902006D
:101E30000B000020754903F0A1FE03F0B5FD84B24C
:101E4000210A0220FEF761FEE1B20320FEF75DFEEB
:101E5000310A2520FEF759FEF1B22620FEF755FE85
:101E60003020FEF7AAFE40B26F2101404B46002B06
:101E700011D0002319433F013943C9B23020FEF786
:101E800044FE3120FEF799FE40210143C9B23120C2
:101E9000FEF73BFE97E780235B42EBE7584A8E2331
:101EA0005B000099D154022C00D9FEE70734544B53
:101EB000902252009C5004329D502A22FF3241460B
:101EC000995401329E520232494699543022FF32CF
:101ED00051469954013203999954023A9F5432223F
:101EE000FF32594699540332169999500C2D03D854
:101EF000052D02D8062500E00C25072C50D0082C13
:101F000058D03F4A94235B000021D1545346002B04
:101F100053D11D20FEF751FE2101C9B243465B009B
:101F2000DBB219434B4619431D20FEF7EEFD1E2080
:101F3000FEF743FE0B2303402901C9B20B43BF0048
:101F4000F9B219431E20FEF7E0FD2620FEF735FE0C
:101F500041B2082399432A4A2133FF33D35CDB0083
:101F60001943C9B22620FEF7D0FD310A2020FEF722
:101F7000CCFDF1B22120FEF7C8FD062D2FD0312077
:101F8000FEF71BFE41B20723994303231943C9B24D
:101F90003120FEF7BAFD0A213720FEF7B6FD12E721
:101FA0002B000B3B012BAAD8154A94235B0001217F
:101FB000D154ABE70C2DA4D1F6E74420FEF7FDFD8C
:101FC00080235B420343D9B24420FEF79EFD0C4AB6
:101FD00098235B00D15C2420FEF797FD99E7312020
:101FE000FEF7EBFD41B20723994305231943C9B21C
:101FF0003120FEF78AFD0C213720FEF786FDE2E650
:10200000700400208DEDB5A0F7C6903F80847E411E
:1020100030B58BB00D005401A41AA400A418E4003C
:10202000FEF77EFD0894002307930693059304931F
:10203000039305220292019396235B0100930023F0
:10204000002229000020FFF795FE3120FEF7B5FDA4
:1020500040239843C1B23120FEF757FDF0214020C4
:10206000FEF753FDA0214120FEF74FFD084D210052
:102070002800FEF7F7FB074AE0230221D15428008D
:10208000FEF724FB0320FFF7E1F80BB030BDC0469C
:10209000400400207004002070B504000D00FFF71C
:1020A000DBFB002C02D0012C0AD070BD074AFE23B6
:1020B000D35C002BF9D129003220FEF726FDF4E78E
:1020C00029002320FEF721FDEFE7C0467004002021
:1020D00010B504000120FFF7BFFB084A9C235B00FA
:1020E000D454002C04D034213920FEF70EFD10BD4D
:1020F00012213920FEF709FDF9E7C04670040020DF
:1021000070B5364AE023D35C012B02D0022B38D0C5
:1021100070BD324AE123D35C002B08D0304B1B68E2
:10212000002BF5D0DB68002BF2D09847F0E71400C5
:1021300086225200A3540E22FF32A3540B32A35224
:10214000023AA3520B213E20FEF7DFFC10213F2074
:10215000FEF7DBFC81235B00E35C002B09D00D2044
:10216000FEF72BFD40210143C9B20D20FEF7CDFC47
:10217000D4E71A4AE0230021D1541A48FEF72AFB7B
:10218000CCE703F071F9FFF717F80020FFF75EF8CE
:1021900000240F2C0DD8144D66003619705DFFF722
:1021A0005BFBAD196878A978FEF7AFFC0134E4B2A7
:1021B000EFE70020FFF750FB084C9C235B00E05C3E
:1021C000FFF786FFE0230022E254054B1B68002B3B
:1021D0009ED05B68002B9BD0984799E77004002045
:1021E000FC00002058040020D882000810B503F03D
:1021F00038F9013010BD000082B0154BD96980203C
:1022000040050143D961DA6902400192019A1A68D6
:1022100001210A431A600E4B1B689B07FBD50C4A31
:10222000116880235B040B431360094B1B689B01FF
:10223000FBD5074A536803218B4301390B43536095
:10224000034B5A680C231340082BF9D102B0704796
:102250000010024070B59AB01F4AD1698020400535
:102260000143D161D36903400193019B01240D9483
:102270000E940226169680256D02179519948023D8
:102280005B0318930DA801F0C9FB072309930A9675
:1022900000230B930C93012109A801F0B1FE01F07A
:1022A00051F90295C0239B000393049402A801F006
:1022B0005FFF01F047FFFA21890003F0A1F901F067
:1022C00041FA042001F066FA012000220021404278
:1022D00001F0FEF91AB070BD0010024010B501F017
:1022E000E7F901F0EDF910BD10B50B4B1B78002B91
:1022F00000D010BD094C0A492000FEF7DDF9FA2193
:1023000089002000FEF7AEFA2000FEF7DFF9024B4D
:102310001B78002BFBD0ECE7190200200002002004
:102320002523000810B500F00DFD024B01221A70A4
:1023300010BDC04619020020EFF31083036072B68F
:102340007047036883F3108870477047044B186820
:10235000044B1B685840044B1B6858407047C046EC
:10236000ACF7FF1FB0F7FF1FB4F7FF1F10B501F068
:102370007BF901F020FA10BD034B1B78002B01D133
:10238000012070470020FCE71A02002070B584B0DD
:10239000414B1B78002B5BD101F056F900240194CE
:1023A00000940023012214213C48FEF721F90194F6
:1023B00000940023012215213948FEF719F90194F0
:1023C00000940023012214213648FEF711F90194EC
:1023D00000940023012215213348FEF709F9012555
:1023E000019500940023012212213048FEF700F9E4
:1023F000FFF730FF2E4B1D708026F6002D4D32006A
:102400002D492800FEF7C8F828000C3032002B496F
:10241000FEF7C2F82C3D6C700A2309220021280027
:10242000FEF747FA96220294019400940023920149
:1024300002212800FEF747FA00F010FBFFF74EFFDD
:10244000FFF79AFF012805D1012100F025FA01E0EC
:10245000FFF7D2FE01235B4201931E330093013349
:102460001F220121164800F053FD02F07DFF0A4BA8
:102470001B78002B01D004B070BD074B01221A70ED
:1024800002F0ECFF02F0EBFFFFF776FF0128F2D13C
:10249000FFF72AFFEFE7C04618020020500E002089
:1024A000CC050020640E00203C0E0020E00500203A
:1024B0001A020020200A0020F40500203C0A002017
:1024C000FC040020704700B583B001A8FFF734FF7B
:1024D000FFF75CFF01A8FFF734FF03B000BD10B5A4
:1024E0000121002001F08AFA10BD10B572B600F08B
:1024F0002BFA62B610BD000070B50D001400A2B238
:1025000029000348FEF7F6F90028F8D1200070BD35
:10251000F409002030B583B00C00150000230193AE
:10252000AAB201AB21000848FEF7E8F90028F7D16C
:10253000019B9AB221000448FEF7DCF90028F7D18C
:10254000019803B030BDC046F409002010B5040066
:1025500004F01EFE82B221000148FEF7CBF910BD47
:10256000F409002010B501F091F810BD30B587B026
:1025700004001500002282566F2A58DC002B56D02A
:10258000036143880193012912D0022913D0424BE1
:102590000293A37A03930323049301A9606801F0D3
:1025A00033F9022D25D00BD8012D07D803210AE0DD
:1025B0003A4B0293EDE73A4B0293EAE7002102E03F
:1025C000032D18D101216388082B4BD015D9802207
:1025D000D20093424AD02CD8802B49D011D98022E6
:1025E000520093424AD00132FF32934248D107252C
:1025F00010E00221E7E70021E5E7042B34D10625AE
:1026000008E0202B36D0402B01D1072502E0102B0B
:1026100032D1072522780F2313409B00214A9C507A
:102620000022280001F054F8280001F081F807B0DA
:1026300030BD80229201934224D009D98022D20158
:10264000934225D080221202934223D10725E1E74D
:1026500080221201934217D080225201934215D159
:102660000725D7E70625D5E70525D3E70725D1E7D1
:102670000725CFE70725CDE70525CBE70725C9E7E0
:102680000525C7E70725C5E70725C3E70525C1E7F2
:102690000725BFE70525BDE7000031100000111038
:1026A000000021101C02002010B5030000228256F9
:1026B0006F2A06DC013204D04068CAB2598801F0A2
:1026C00081F910BDF0B58BB0050010AC20786F29F2
:1026D00029DC29704C1C26D00F260E400124B44062
:1026E0006C80F02426000E400C421ED19021C905BA
:1026F0006960334C66698027BF023E436661616949
:1027000039400191019969880591A87207900321C8
:102710000891002A36D100230693012A4BD068681D
:1027200005A901F071F80BB0F0BD102E10D0202ECD
:102730001BD0302EE7D123496960214C6669802780
:102740007F033E4366616169394004910499DAE789
:102750001D4969601A4C66698027FF023E43666125
:102760006169394002910299CDE718496960144CBA
:10277000666980273F033E43666161693940039182
:102780000399C0E7032A06D0022A07D0012B0FD0F5
:1027900001230693C1E703230693BEE7012B04D070
:1027A00002230693119B0993B7E711330693F9E7C8
:1027B00010330693B1E711992800FFF775FFAEE7D4
:1027C00000100240000C00480004004800080048C7
:1027D00010B50300002282566F2A05DC013203D0B7
:1027E0004068598801F0F4F810BD10B5012001F0DF
:1027F000F7F8022001F0F4F810BD10B5042001F044
:10280000EFF8082001F0ECF810BD10B5102001F031
:10281000E7F8202001F0E4F8402001F0E1F8802002
:1028200001F0DEF88020400001F0DAF8802080001E
:1028300001F0D6F88020C00001F0D2F8802000011D
:1028400001F0CEF88020400101F0CAF8802080011C
:1028500001F0C6F88020C00101F0C2F8802000021B
:1028600001F0BEF810BD000010B500280BD1002308
:102870009B00084A9B58002B04D01A69002A01D0FB
:10288000D868904710BD00230128F1D040080133DB
:10289000DBB2F9E71C02002030B583B005000C0064
:1028A00001A8FFF749FD002C0AD0012C03D1074BEA
:1028B0001A6815431D6001A8FFF743FD03B030BD42
:1028C000024A1368AB431360F5E7C0465C02002080
:1028D00030B583B005000C0001A8FFF72DFD002CDA
:1028E0000AD0012C03D1074B1A6815431D6001A8BB
:1028F000FFF727FD03B030BD024A1368AB431360F6
:10290000F5E7C0466002002010B582B001A8FFF7CD
:1029100013FD094B1B68002B05D1084B1B68002BCE
:1029200008D0012400E0002401A8FFF70AFD2000E0
:1029300002B010BD0224F7E7600200205C02002014
:10294000704770477047000010B50B4B1B68002B99
:1029500008D10A4B1B68002B09D0FFF7B3FDFFF726
:10296000B2FD10BDFFF7BBFDFFF7EAFFF9E7FFF788
:10297000E8FFFFF7E7FFF4E7600200205C020020B9
:10298000F0B5C64600B580460F00284CA66A284D13
:1029900000224146280001F039FF002239002800BA
:1029A00001F008FFA36AB342EFD14346DA78214B26
:1029B000534303339808930735D11F4C4346597846
:1029C00001390B015B1A9B005B180133DA0FD21837
:1029D00052104900CC4003232340D31A1B1842460F
:1029E0009278D318013B5900CB181901CB1A190161
:1029F000C91AC901BC783B781801C31A1A01D31A45
:102A00001B0178780201121A92009B181B195B189F
:102A1000190D18037C68094D2A1B002380185941A1
:102A200004BC9046F0BD064CC8E7C04600280040F4
:102A300090020020B505000050554400FF0F000033
:102A4000A0AA990010B5044C211D20001830FFF7F2
:102A500097FF206010BDC046B402002070B586B05C
:102A6000234B1B78002B01D006B070BD214A116AA0
:102A700080231B020B4313621F4C204B2360002555
:102A800065607923A3601E4BE36025616561A561E4
:102A9000200001F091FC05A9CD7001264E708E70CA
:102AA0000E700022200001F073FD6B461D705D70FA
:102AB0009D700195DD700495039500226946200004
:102AC00001F0E8FC200001F009FF002201210220B2
:102AD00000F0FEFD022000F02BFE802149002000C6
:102AE00001F0F6FBFFF7AEFF014B1E70BCE7C046DE
:102AF000B002002000100240900200200028004098
:102B0000FF0F0000014B18687047C046B402002058
:102B10000320704710B5C10D40027D22002302F052
:102B200023FF10BD10B50300000B1B051C0D420157
:102B3000121A92001218D200DB0B181B8000001929
:102B4000C000000B101810BD10B58021084C4900C2
:102B5000200001F0BDFB2168CA68FF231A40054B25
:102B60001343CB60044B802292025A6110BDC046D1
:102B7000900200207FFEFFFF00040140F0B587B007
:102B8000040001AD46490B1D2A00C1CBC1C241CB97
:102B900041C28B690093FFF7D7FFAB88414FFB1A07
:102BA0009BB227053F0DFF18BFB2230B6A469078F2
:102BB0003D4A934205D93D4A94466344013080B270
:102BC000F6E701AA1478E1221201934205D3384AAC
:102BD000944663440134A4B2F5E701AA557802E0B3
:102BE0003C3B0135ADB23B2BFAD801AA96789BB29B
:102BF000F618B6B205E02F4B9C466744BFB20136CB
:102C0000B6B280235B019F42F5D23B2E08D93C3EF1
:102C1000B6B20135ADB2F8E73C3DADB20134A4B275
:102C20003B2DF9D803E0183CA4B2013080B2172C38
:102C3000F9D86B46DB789B0726D16B465B78013B66
:102C40001D4AD15C814202D202F04AFE88B2154B85
:102C5000DF1B1A494F60C0231B058B618E704D70BE
:102C60000C702023C85401ABDB78CB700023CB6100
:102C70004B61802252004A62CB600B6100221048F7
:102C800001F0F2FC07B0F0BD6B465B78013B0D4AEA
:102C9000D15C8142DBD202F023FE88B2D7E7C04686
:102CA000B4020020FF0F00007F51010080AEFEFF44
:102CB000F0F1FFFF00F0FFFF14830008680200201E
:102CC000900200200883000800B587B001A968467B
:102CD000FFF756FE07B000BD00B587B001A96846F2
:102CE000FFF74EFE024B1B68C01A07B000BDC0467E
:102CF000B402002070B50400114B00255D5F033560
:102D0000EE17FFF7E9FF201A0023B34202DC0DD1D2
:102D1000A8420BD900210420FFF7DAFDFFF7F4FDEC
:102D2000012808D02000FFF729FF70BD01210420F1
:102D3000FFF7CEFDF2E7024B00229B5EE41AF1E7BB
:102D40006402002070B586B01C4B1B78002B01D0AC
:102D500006B070BD022000F011FD0128F8D1174B1C
:102D600001221A7001A96846FFF70AFE04008022BA
:102D7000134D002352002900124801F06BFDA87882
:102D800069782B782022AE5C72009219D2009B18D1
:102D90001A01D31A9B00C9180B015B1A9B00C018BB
:102DA00000036B68C01A084B9C466044201A80B22E
:102DB000064B1C8800191880CAE7C046660200202E
:102DC0006802002090020020FF0F00006402002033
:102DD00010B5FDF7B5FC10BD10B500210420FFF7BC
:102DE00077FD0B4B802292025A610A4B1B689A684E
:102DF000D20402D5DA68D20500D410BDD968FF220A
:102E00001140054A0A43DA600248FFF7E1FFF4E7A0
:102E100000040140900200207FFEFFFF70B504AC6B
:102E200000256557067864246643234CA4190026C0
:102E3000A66000292ED1047864314C431E4909193B
:102E4000E024E400CC6006781B49642466438E19B4
:102E50003261027862438A18536103786343CB1866
:102E600000221A6203786343CB185A6203786343E3
:102E7000CB189A6203785C4309190723CB62002DB3
:102E800011D102785D335A430B4B9B1882225200BA
:102E90005A6070BD047864214C4307490919F02435
:102EA0002401CC60CFE7027864235A43024B9B187D
:102EB00000225A60EDE7C046D002002010B5124B48
:102EC0001A6800238A4203D901335208062BF9D924
:102ED00004210A001A40194200D0202202210C00CD
:102EE0001C40194200D01024224301210C001C4038
:102EF000194200D008242243017864235943034B2C
:102F00005B18DA6110BDC04620000020D00200200E
:102F1000F0B5DE4657464E464546E0B587B004005C
:102F20000D009246984610AB1B785BB2994611ABE8
:102F300000269E5705A8FFF7FFF92570002D5CD1EC
:102F4000554BD968802252011143D960D968534842
:102F50000140D9609969114399619B6913400393BA
:102F6000039B64236B434E4A4E499950201D002712
:102F7000019702239B460093002302225146FDF74E
:102F800037FB2000183001975B4600930023022294
:102F90004146FDF72DFB20002C3001975B46009346
:102FA000002302224946FDF723FB20004030019711
:102FB00001230093002302223100FDF719FB731C4B
:102FC0005BD0012300930023002201212000FFF7A2
:102FD00025FF35492000FFF771FF64204543304845
:102FE000281801F099FC05A8FFF7ABF907B03CBC25
:102FF00090469946A246AB46F0BD274B1969802200
:10300000D201114319611969284801401961D96930
:103010001143D961DB6913400493049B64236B4320
:103020001F4A23499950201D0027019702239B46E0
:103030000093002302225146FDF7DAFA20001830EF
:1030400001975B460093002302224146FDF7D0FA28
:1030500020002C3001975B46009300230222494652
:10306000FDF7C6FA200040300197012300930023AA
:1030700002223100FDF7BCFAA1E764226A43084B43
:103080009B18802292009A61002300930022002165
:103090002000FFF7C3FE9CE700100240FFEFFFFF98
:1030A000D00200200030014080969800FFBFFFFF53
:1030B0000038004030B583B004000D00027864236E
:1030C0005343114A9A58136840210B43136001A8D7
:1030D000FFF732F92278642353430B4A9B589A68CE
:1030E0009207F7D5EDB21D73227864235343064A45
:1030F0009B589A68D207F7D5DC68E4B201A8FFF7BD
:1031000020F9A0B203B030BDD002002070B584B069
:103110000400080011001D002070FF2801D104B038
:1031200070BD114BD8688022D2011043D860D86896
:103130000E4E3040D8609869104398619B691340E7
:103140000393039B201D0126019600960023022273
:10315000FDF74EFA20001830019600960023022257
:103160002900FDF745FADAE700100240FFBFFFFF34
:10317000F8B506AC257807AC267808AC247800783A
:10318000FF2848D03748384F0760426000290ED1E9
:1031900008314161002B16D1324B00229A60022D7A
:1031A00018D0032D38D02F4B0022DA6016E0012909
:1031B00005D00229EED12B4A0A315161EAE7294AAA
:1031C00003315161E6E7012BE9D1264B8022520100
:1031D0009A60E4E7234B80229201DA60002E20D12E
:1031E000204B00221A61002C27D11E4B00229A612D
:1031F0001C4C0023E361200002F07AF80022012138
:103200001B2000F065FA1B2000F092FA01221749FA
:10321000200001F097FCF8BD124BC0229201DA6049
:10322000DCE7012E04D00F4BC022D2001A61DAE78E
:103230000C4B8022D2001A61D5E7012C08D0022C59
:103240000BD0032CD4D1074BC02292009A61CFE758
:10325000044B802252009A61CAE7024B80229200FE
:103260009A61C5E79C0300200038014098030020C4
:1032700030B583B004000D000078FF2819D001A8F4
:10328000FFF75AF80E4B1D702C342000FDF7A5F9FE
:10329000002810D10A4B19782000FDF783F9094B5B
:1032A0001A68136840210B43136001A8FFF749F81F
:1032B000002003B030BD01A8FFF743F80120F8E774
:1032C000990300209C03002030B583B004000D005A
:1032D0000078FF2810D001A8FFF72EF8383420001E
:1032E000FDF774F9002809D12000FDF765F9287071
:1032F00001A8FFF726F8002003B030BD01A8FFF7B2
:1033000020F80120F8E7F0B5C64600B506000F002A
:1033100090460078FF280ED00025454511D20024A4
:10332000795D3000FDF7DEFA002807D00134E4B201
:103330000A2CF5D9012004BC9046F0BD0135ADB290
:10334000EBE70020F7E7F0B5C64600B507000E0032
:10335000150098460024AC4208D231193800FDF718
:10336000C5FA002802D10134A4B2F4E743461C8018
:10337000002C03D0002004BC9046F0BD0120FAE7E9
:1033800010B50B48FDF722F9002806D0094B5B6CFD
:10339000002B01D00020984710BD0548FDF70CF91F
:1033A000054908700122054801F086FBEEE7C0469A
:1033B000200A0020F4090020990300209C0300202B
:1033C00010B50B48FDF709F900280BD0094B5B6CD1
:1033D000002B01D00120984701220749074801F03E
:1033E000B1FB10BD044B19780148FDF7DBF8EDE7A0
:1033F0002C0A0020F4090020980300209C030020E0
:1034000010B501220249034801F09CFB10BDC046E3
:10341000980300209C03002010B5024801F084FCB2
:1034200010BDC0469C0300207047000010B5064B3D
:1034300006481A685043064A944660441860054995
:1034400002F064F9080010BD1C0000206D4EC6415A
:1034500039300000FFFFFF7F014B18607047C04606
:103460001C00002070B505000C00FFF7DFFF611B9A
:10347000013102F035FA481970BD531E9BB2002A83
:1034800005D00A7802701A0001310130F5E7704763
:103490000D488546002103E00C4B5B584350043136
:1034A0000B480C4B42189A42F6D30B4A02E0002319
:1034B00013600432094B9A42F9D300F013F803F079
:1034C00017FEFCF7CFFEFEE700400020F084000866
:1034D000000000209800002098000020A00E00208E
:1034E000FEE70000114B1A6801210A431A605A686E
:1034F0000F4802405A601A680E4802401A601A6863
:103500000D4802401A605A680C4802405A60DA6A54
:103510000F208243DA621A6B094802401A635A6B21
:103520008A435A6300229A607047C04600100240E6
:103530000CB8FF08FFFFF6FEFFFFFBFFFFFFC0FF19
:103540002CFEFCFF10B5254B5A680C231340042BAE
:1035500016D0082B18D0002B03D0214B214A1A601B
:1035600002E01F4B1F4A1A601C4B5A6812090F23B6
:1035700013401D4AD35C1A4A1168D940116010BD2E
:10358000174B1A4A1A60EFE7144A50685368C02173
:1035900049020B40800C0F210840841CD26A114064
:1035A00001318022520293420AD0C0225202934239
:1035B0000DD00C4802F024F86043094B1860D3E7A3
:1035C0000A4802F01DF86043054B1860CCE7084834
:1035D00002F016F86043024B1860C5E70010024085
:1035E0002000002000127A00208300080024F4004C
:1035F000006CDC027047000010B504000F4B197816
:10360000FA20800001F0FCFF01000D4B186801F06A
:10361000F7FF00F097F800280DD1032C01D9012005
:103620000AE0013000222100404200F051F8054B31
:103630001C60002000E0012010BDC04624000020D6
:10364000200000202800002010B5064A1368102131
:103650000B4313600320FFF7CFFFFFF7CBFF0020E2
:1036600010BDC04600200240034A1168034B1B787E
:103670005B1813607047C046780E002024000020BD
:10368000014B18687047C046780E002070B50400E2
:10369000FFF7F6FF0500631C02D0044B1B78E4180B
:1036A000FFF7EEFF401BA042FAD370BD24000020BC
:1036B000024A536802210B4353607047005801408F
:1036C000024A536804210B4353607047005801407D
:1036D00070B5002811DB8308134DC0339B005C5983
:1036E00003221040C000FC3216008640B44389011A
:1036F0000A40824022435A5170BD0F230340083BC9
:103700009B0806339B00094A944663445D68032482
:103710002040C000FF2214008440A54389010A40D4
:1037200082402A435A60E7E700E100E000ED00E054
:103730001F2318401E3B8340014A13607047C04658
:1037400000E100E0013880235B0498420FD2094A6F
:1037500050600948036A1B021B0AC02109060B437B
:103760000362002393600733136000207047012039
:10377000FCE7C04610E000E000ED00E0044A8023D2
:103780005B00D3581F221040C340012018407047EF
:1037900000E100E0042805D0054A136804218B43AA
:1037A00013607047024A136804210B431360F8E763
:1037B00010E000E0704710B5FFF7FCFF10BD10B53A
:1037C0002123C35C022B03D004238363012010BD9B
:1037D000026813680E218B43136001680A68012395
:1037E0009A430A60C26B1900046CA1405160212207
:1037F00083541F330022C254436B002B02D09847DE
:103800000020E4E70020E2E7F0B5D6464F46464602
:10381000C0B582B0002338E0042600E00026A640B0
:1038200034003C43023292005F4E94515F4A146868
:103830004A46D24326004D46AE434D68ED0302D5BD
:103840004D462C432600594C2660646826001640DD
:103850004D68AD0302D54D462C432600534C66609F
:10386000A468260016404D68ED0202D54D462C4353
:1038700026004E4CA660E46822404D68AD0201D59A
:103880004A462243494CE26001330C682200DA4088
:1038900000D182E001229A4025001540A946144239
:1038A000F2D04C68022C01D0122C0ED1DC08083466
:1038B000A400275807261E40B6000F25B540AF4389
:1038C0000D69B5402E003E4326500468A4465E00B4
:1038D0000324A2462700B740B846FF436546444646
:1038E000A543AC464C68554625402C00B44065467F
:1038F0002C4304604C68651E012D03D9112C01D0A6
:10390000122C13D184683C40A446CC68B440654670
:103910002C4384604468944322004C682409A446E4
:10392000012465462C409C4014434460C268174003
:103930008A68B2403A43C2604A68D200A4D51C4C9F
:10394000A66901221643A661A46922400192019A48
:103950009A08941CA400144EA75903261E40B400D4
:103960000F26A640B7439026F605B04200D155E792
:10397000104EB0420BD0104EB0420AD00F4EB042A3
:1039800009D00F4EB04200D146E7052647E7012691
:1039900045E7022643E7032641E702B01CBC9046F8
:1039A0009946A246F0BDC046000001400004014017
:1039B000001002400004004800080048000C0048C5
:1039C00000100048002A01D0816170478162FCE745
:1039D0004369194202D00904816170478161FCE7A3
:1039E00010B5054B5B69184200D110BD024B586100
:1039F000FEF73AFFF9E7C04600040140064A1369A2
:103A0000042083431361012903D040BF20BF20BF9E
:103A1000704730BFFCE7C04600ED00E070B582B0F3
:103A2000041E00D17FE20368DB072BD5B34B5A6835
:103A30000C231340042B1DD0B04B5A680C231340A9
:103A4000082B0ED06368012B41D0002B56D1AB4B15
:103A50001A68AB490A401A601A68AA490A401A60F3
:103A60003BE0A64B5B68C022520213408022520208
:103A70009342E7D1A14B1B689B0303D56368002BDE
:103A800000D153E223689B0777D59C4B5B680C22DF
:103A90001A4262D0994B5A680C231340082B53D01A
:103AA000E368002B00D18AE0944A136801210B439C
:103AB0001360FFF7E5FD0500904B1B689B0775D46D
:103AC000FFF7DEFD401B0228F6D903202CE28B4ACB
:103AD000116880235B020B4313606368002B25D0C1
:103AE000FFF7CEFD0500854B1B689B03CAD4FFF78B
:103AF000C7FD401B6428F6D9032015E2052B09D029
:103B00007E4B1A687E490A401A601A687D490A404D
:103B10001A60E2E7794B19688022D2020A431A60E0
:103B20001968802252020A431A60D6E7FFF7A8FDFF
:103B30000500724B1B689B03A4D5FFF7A1FD401B3A
:103B40006428F6D90320EFE16C4B5B68C022520277
:103B50001340802212029342A2D1684B1B689B073C
:103B600003D5E368012B00D0E2E164490B68F82239
:103B700093432269D20013430B6023681B0744D58B
:103B8000E369002B2ED05D4A536A01210B43536237
:103B9000FFF776FD0500594B5B6A9B0735D4FFF7AD
:103BA0006FFD401B0228F6D90320BDE153490B6885
:103BB000F82293432269D20013430B60DDE74F4A9A
:103BC000136801218B431360FFF75AFD05004B4B2F
:103BD0001B689B07D1D5FFF753FD401B0228F6D980
:103BE0000320A1E1454A536A01218B435362FFF749
:103BF00047FD0500414B5B6A9B0706D5FFF740FD7B
:103C0000401B0228F6D903208EE123685B0700D40D
:103C100080E03A4BDB69DB001DD4384AD169802053
:103C200040050143D161D36903400193019B012504
:103C3000354B1B68DB0510D5A368012B21D0002B69
:103C400036D12E4B1A6A01218A431A621A6A03314D
:103C50008A431A621AE00025EAE72B4A116880239A
:103C60005B000B431360FFF70BFD0600264B1B6840
:103C7000DB05E1D4FFF704FD801B6428F6D903209F
:103C800052E11E4A136A01210B431362A368002B01
:103C900024D0FFF7F5FC0600184B1B6A9B0737D4AE
:103CA000FFF7EEFC801B194B9842F5D903203BE14E
:103CB000052B09D0114B1A6A01218A431A621A6A2C
:103CC00003318A431A62E1E70C4B1A6A04210A4362
:103CD0001A621A6A03390A431A62D7E7FFF7D0FC5F
:103CE0000600064B1B6A9B0712D5FFF7C9FC801B19
:103CF000064B9842F5D9032016E1C0460010024059
:103D0000FFFFFEFFFFFFFBFF007000408813000075
:103D1000012D39D02368DB0610D56369012B39D01A
:103D2000053357D1894A536B04218B435363536B3B
:103D3000F4318B43A169C9000B43536323689B068D
:103D40006ED5824B5A680C2313400C2B60D07F4BEE
:103D50005A680C231340082B53D0236A002B7ED0C3
:103D60007A4A516B80235B020B435363FFF788FC55
:103D70000500764B5B6BDB0352D4FFF781FC401BE5
:103D80000228F6D90320CFE0704AD36970490B406E
:103D9000D361BFE76D4B5A6B04210A435A635A6BD8
:103DA00003390A435A63FFF76BFC0500674B5B6BF3
:103DB0009B0706D4FFF764FC401B0228F6D90320BA
:103DC000B2E062494B6BF8229343A269D2001343DD
:103DD0004B63B3E75D4B5A6B04210A435A635A6B3A
:103DE00003398A435A63FFF74BFC0500574B5B6B63
:103DF0009B07A3D5FFF744FC401B0228F6D90320FC
:103E000092E0524B5B68C022520213409342A4D10D
:103E10004E4B5B6BDB0303D5236A012B00D089E09B
:103E2000636A002B00D187E0484A51680C220A409F
:103E3000082A60D0022B25D0444A136845490B401C
:103E40001360FFF71DFC0400404B1B689B0150D51D
:103E5000FFF716FC001B0228F6D9032064E03B4A5A
:103E6000536B3D490B405363FFF70AFC0500374B8A
:103E70005B6BDB03D4D5FFF703FC401B0228F6D9AC
:103E8000032051E0314A136832490B401360FFF7B9
:103E9000F7FB05002D4B1B689B0106D5FFF7F0FBD8
:103EA000401B0228F6D903203EE0284BDA6A0F2196
:103EB0008A43216B0A43DA625A6828490A40E16A58
:103EC000A06A01430A435A601968802252040A43D7
:103ED0001A60FFF7D5FB04001C4B1B689B0106D43E
:103EE000FFF7CEFB001B0228F6D903201CE00020C0
:103EF0001AE0002018E0012B20D0144B5A68D96A30
:103F0000C0235B021340A06A834219D10F230B40E8
:103F1000216B8B4216D1F0239B031A40E36A9A422D
:103F200012D1002000E0012002B070BD0120FBE7AB
:103F30000120F9E70120F7E70020F5E70120F3E78A
:103F40000120F1E70120EFE70120EDE7001002403A
:103F5000FFFFFFEFFFFFFFFEFFFFFEFFFF7FC2FF40
:103F600010B588B004AA204B13CB13C21B68136092
:103F70006A461E4B13CB13C21B6813601C4B5A6856
:103F80000C231340082B08D00C2B2AD0042B02D072
:103F9000184808B010BD1848FBE7910C0F231940D2
:103FA00004A8445C1249C96A0B406946C95CC02335
:103FB0005B021A4080235B029A4208D0C0235B0256
:103FC0009A4209D00B4801F01BFB6043E1E70A4825
:103FD00001F016FB6043DCE7084801F011FB604389
:103FE000D7E70648D5E7C046388300084C83000869
:103FF0000010024000127A000024F400006CDC0281
:1040000070B504000D00002800D186E0474B1A6807
:10401000012313408B420AD244490B680122934387
:104020002B430B600B681A40AA4200D077E023684C
:104030009A070ED55B0705D53D4A5168E023DB00A2
:104040000B4353603A4A5368F0218B43A1680B43FA
:1040500053602368DB0735D56368012B09D0022B39
:1040600024D0032B28D0324A1268920705D40120AD
:1040700052E02F4A1268920353D52D494A68032013
:10408000824313434B60FFF7FBFA0600284B5B6843
:104090000C221A4063689B009A4213D0FFF7F0FA93
:1040A000801B244B9842F1D9032035E0204A126846
:1040B0009201E2D401202FE01D4A526BD203DCD4DE
:1040C000012029E0194B1A6801231340AB4209D99A
:1040D00016490B68012293432B430B600B681A406F
:1040E000AA4220D123685B0706D5114A53681249BA
:1040F0000B40E1680B435360FFF732FF0C4B5A68EB
:1041000012090F2313400D4AD35CD8400C4B1860A2
:104110000320FFF771FA002070BD0120FCE70120A9
:10412000FAE70120F8E70120F6E7C0460020024048
:104130000010024088130000FFF8FFFF20830008F2
:1041400020000020014B18687047C0462000002066
:1041500010B5FFF7F7FF044B5A68120A0723134004
:10416000024AD35CD84010BD0010024030830008E2
:1041700070B582B004000368DB0337D54C4BDB69B4
:10418000DB0067D44A4AD169802040050143D161F0
:10419000D36903400193019B0125464B1B68DB0556
:1041A0005AD5434B1A6AC0239B00110019401A428A
:1041B00013D0626813408B420FD03D4B186A3E4AC1
:1041C00002401E6A8021490231431962196A3B4E3E
:1041D000314019621A62C30752D4354A136A36490C
:1041E0000B4061680B431362012D58D02368DB0735
:1041F00006D52F4A136B03218B43A1680B4313632E
:1042000023689B0706D52A4A136B2D490B40E168AA
:104210000B43136323689B0606D5254A136B1021B5
:104220008B4321690B43136323689B0306D5204A04
:10423000136B80218B43A1690B43136323685B05D8
:1042400032D51B4A136B40218B4361690B431363C7
:1042500000202AE00025A0E7164A116880235B00B1
:104260000B431360FFF70CFA0600124B1B68DB05CB
:1042700097D4FFF705FA801B6428F6D9032014E0D1
:10428000FFF7FEF906000A4B1B6A9B07A5D4FFF750
:10429000F7F9801B0B4B9842F5D9032005E0D36951
:1042A00009490B40D361A1E7002002B070BDC046B0
:1042B0000010024000700040FFFCFFFFFFFFFEFF08
:1042C000FFFFFCFF88130000FFFFFFEF70470000B7
:1042D00070B50400037F012B32D001230377013333
:1042E00043770368CA225A620368773A5A620268BF
:1042F000936814490B4093600268936812490B401D
:104300009360FFF7BDF905002368DA68D2070FD480
:10431000FFF7B6F9401BFA2292009042F4D92368C5
:10432000FF225A620323637700232377032006E0EA
:10433000FF225A620123637700232377002070BD98
:104340000220FCE7FFFEFFFFFFEFFFFF70B5040058
:104350000268D368A0218B43D360FFF791F9050071
:104360002368DB689B0608D4FFF78AF9401BFA2311
:104370009B009842F4D9032000E0002070BD70B586
:1043800004000368DA68520601D5002070BD0122DE
:104390005242DA60FFF774F905002368DB685B06B8
:1043A00008D4FFF76DF9401BFA2292009042F4D92D
:1043B0000320EBE70020E9E770B5041E57D0437FE8
:1043C000002B3DD0022363772368CA225A622368F8
:1043D000773A5A622000FFF7D2FF051E34D12268D7
:1043E000936824490B40936021688A686368206958
:1043F00003436069034313438B602368E2681A61D7
:1044000021680B69A268120413430B612268D36808
:1044100080218B43D36023689B689B061BD5226851
:10442000136C15490B4013642268136CA1690B438C
:1044300013642368FF225A6201236377280070BD4A
:104440000377FFF743FFBDE72368FF225A62042387
:1044500063770125F2E72000FFF778FF0028DED020
:104460002368FF225A62042363770125E6E70125CA
:10447000E4E7C046BFFF8FFFFFFFFBFF00230928D3
:1044800003D901330A38C0B2F9E71B01DBB2184384
:1044900070470000F8B504000E00037F012B00D127
:1044A00070E00123037701334377002A42D1036888
:1044B0009B685B0601D40023CB703078FFF7DEFFEA
:1044C00005047078FFF7DAFF00020543B078FFF7C4
:1044D000D5FF0543F078000405432368CA225A62D9
:1044E0002368773A5A622000FFF749FF071E32D14E
:1044F0002368254805401D602268936823490B40C6
:10450000936021688B68F2683069024313438B60C3
:104510002268D36880218B43D36023689B689B0605
:1045200022D52368FF225A62012363770023237771
:104530003800F8BD03689B685B0601D40023CB708C
:1045400035782D04707800020543B0780543F07883
:1045500000040543C1E72368FF225A6204236377FE
:10456000002323770127E3E72000FFF7EFFE002871
:10457000D7D02368FF225A6204236377002323776E
:104580000127D5E70227D3E77F7F7F00FFFFFBFFEF
:1045900070B504000E00037F012B61D00123037767
:1045A00001334377002A06D14B78D90603D5102171
:1045B0008B430A337370002A30D1F078FFF75EFF27
:1045C00005047078FFF75AFF00020543B078FFF743
:1045D00055FF05433078400305432368CA225A62D9
:1045E0002368773A5A622000FFF7C9FE061E20D1E1
:1045F00023681C4805405D602268D36880218B4396
:10460000D36023689B689B061CD52368FF225A62EF
:104610000123637700232377300070BDF5782D04E4
:10462000707800020543B0780543307840030543B5
:10463000D3E72368FF225A6204236377002323779A
:104640000126E9E72000FFF781FE0028DDD023687E
:10465000FF225A6204236377002323770126DBE7D6
:104660000226D9E73FFFFF00F8B504000D00037FE5
:10467000012B00D18BE00123037701334377002A1C
:104680004BD103689B685B0601D40023CB70EE69B5
:104690002878FFF7F3FE07046878FFF7EFFE0002C3
:1046A0000743A878FFF7EAFE0743E87800040743CA
:1046B0002023E85CFFF7E2FE000607433E436B69F8
:1046C0001E436F68AB691F432368CA225A6223687E
:1046D000773A5A62226893682E490B4093602168AA
:1046E000CA68FF231A402C4B1343CB60FEF7C8FF68
:1046F00005002368DA68D20728D4FEF7C1FF401B03
:10470000FA239B009842F4D92368FF225A620323BC
:10471000637700232377032038E003689B685B06F8
:1047200001D40023CB702E7836046B781B021E4315
:10473000AB781E43EB781B041E432023EB5C1B0667
:104740001E43EB691E436B691E43BAE7DE612368B3
:104750005F642268916880235B000B43936022684A
:10476000916880235B010B4393600C4B1968802296
:1047700092021143196099680A439A602368FF22E4
:104780005A6201236377002323770020F8BD0220BB
:10479000FCE7C046FFFEFFFF7FFEFFFF0004014075
:1047A0000200000983001B185B000F201040C01896
:1047B000C0B27047F8B50C0003689B6A4B60036891
:1047C0001B695B045B0C8B6003681B680E490B4024
:1047D0001E0C3F20304020701D0A7F273D40657031
:1047E0001F40A77040213140E170002A0AD1FFF735
:1047F000D7FF20702800FFF7D3FF60703800FFF765
:10480000CFFFA0700020F8BD7F7F7F0070B50C0047
:1048100003685B680E490B40180CE070190A1F26EC
:104820000E4066703F251D40A5705B0B07210B40B5
:104830002370002A0AD1FFF7B3FFE0703000FFF7C2
:10484000AFFF60702800FFF7ABFFA070002070BDC5
:104850003FFFFF00F8B5CE46474680B50C008022EA
:1048600052004A620168CA69496C4904490C894688
:10487000170C3F25380028402070110A7F26314050
:10488000884661701640A67040210F40E770494687
:104890006160110E0D40202165548021C905114031
:1048A000E1610D490A406261002B0FD1FFF778FFEB
:1048B00020704046FFF774FF60703000FFF770FF14
:1048C000A0702800FFF76CFF2023E05400200CBCF0
:1048D00090469946F8BDC0468080808010B5037F21
:1048E000012B16D001220277022343770368CA21E5
:1048F000596203687739596201688B682024234321
:104900008B600368FF215962427700230377002000
:1049100010BD0220FCE7704710B5041E00D16FE007
:104920005D23C35C002B54D05D230222E254226835
:10493000136840218B431360E368E022D200934266
:104940004DD90022F02109018B4205D0E021C90098
:104950008B4201D00021A162216B002905D1E02109
:10496000C9008B423ED9022323636368A1680B43CD
:1049700021690B4361690B4380218900A0690140D3
:104980000B43E1690B43216A0B432168A06A03438F
:104990000B60236B022B28D0618B04230B40616AD0
:1049A0000B43616B0B43E1680B43216813434B607E
:1049B00080239B01A26A9A421ED02268D3691149C2
:1049C0000B40D361002323665D330122E2540020B3
:1049D00010BD5C330022C254FFF79DFFA4E7802284
:1049E0005201AFE701232363BFE7216808688023F2
:1049F0001B0103430B60CFE72368E26A1A61DCE71F
:104A00000120E5E7FFF7FFFF0268136806490B4046
:104A10001360026893682331FF318B439360202336
:104A20008367002303667047DFFEFFFF436F212B80
:104A300000D070473133C35A9BB2002B0AD10268B1
:104A4000136880218B4313600268136840390B435D
:104A50001360EEE7C36C1B7802681385C36C0133E7
:104A6000C3645222835A013B9BB28352E1E7436FF6
:104A7000212B00D070473133C35A9BB2002B0AD18F
:104A80000268136880218B43136002681368403901
:104A90000B431360EEE7C36C1B88DB05DB0D02687C
:104AA0001385C36C0233C3645222835A013B9BB209
:104AB0008352DFE77047000030B5436F202B35D1BC
:104AC000002935D0002A35D0836880246401A342B0
:104AD0001FD07024045D012C2ED0702401250555B3
:104AE000C16450214252023142520022C267213237
:104AF000426780225201934212D0104B43667023CA
:104B00000022C2540268136880210B431360002006
:104B10000DE00469002CDCD1CC07DAD5012006E0D9
:104B20000369002BE9D1064B4366E8E7022030BD5C
:104B30000120FCE70120FAE70220F8E72D4A0008EF
:104B40006F4A000830B5836F202B6DD1002900D14A
:104B50006CE0002A00D16BE0836880246401A342EA
:104B60001AD07024045D012C64D0702401250555F1
:104B7000416558214252023142520022026680228F
:104B8000520193420FD0002B1CD10369002B15D189
:104B90005C33FF22C2521CE00469002CE1D1CC0737
:104BA000DFD5012041E00369002B03D15C33224AA9
:104BB000C2520EE05C23FF22C2520AE05C237F2235
:104BC000C25206E08022520593421CD05C23002290
:104BD000C2520023C36722338367026893680121AE
:104BE0000B43936080235B0182689A4216D0134B7B
:104BF000036670230022C25402681168B0330B436D
:104C00001360002011E00369002B03D15C337F2285
:104C1000C252DEE75C233F22C252DAE70369002B6F
:104C2000E5D1074B0366E4E7022030BD0120FCE735
:104C30000120FAE70220F8E7FF010000614C0008BC
:104C4000C54C000810B50268136840218B431360FF
:104C50002023436700234366FEF792FB10BD00004C
:104C600010B55C23C35A826F222A05D0026893696B
:104C700008210B43936110BD0268928CDBB2134094
:104C8000426D1370436D013343655A22835A013BD1
:104C90009BB28352835A9BB2002BECD102681368FB
:104CA00007490B401360026893682331FF318B433F
:104CB00093602023836700230366FEF781FBDAE716
:104CC000DFFEFFFF10B55C23C25A836F222B05D095
:104CD0000268936908210B43936110BD03689B8CA4
:104CE0001340426D1380436D023343655A22835A49
:104CF000013B9BB28352835A9BB2002BEDD10268D9
:104D0000136808490B401360026893682331FF3130
:104D10008B4393602023836700230366FEF750FBD9
:104D2000DBE7C046DFFEFFFF70B504000268D36911
:104D30001068956856491E000E400B4203D1990633
:104D400001D581061AD4002E08D001210E002E4074
:104D5000294219D12031FF31084215D1D90202D59B
:104D6000690200D582E01A0602D5020600D584E069
:104D70005B0602D5430600D586E070BD236E002B8E
:104D8000FBD020009847F8E7D90706D5C10504D520
:104D900001211162E26F0A43E2679A0708D5002EEB
:104DA00006D0226802211162E26F02310A43E267F3
:104DB0005A0708D5002E06D0226804211162E26F3E
:104DC00002390A43E2671A0709D5820601D4002E88
:104DD00005D0226808211162E26F0A43E2671A05D2
:104DE00009D5420107D52268802109011162E26FCD
:104DF00020210A43E267E26F002ABED09B0606D557
:104E0000830604D5236E002B01D020009847E26F63
:104E100023689B685B0602D42823134220D020001D
:104E2000FFF7F2FD23689A68520615D59A6840216B
:104E30008A439A60E36E002B0AD0164A5A63E06EEA
:104E4000FEF7BDFC002898D0E06E436B984794E7CE
:104E50002000FEF7D5FA90E72000FEF7D1FA8CE7A4
:104E60002000FEF7CDFA0023E36786E780235B038B
:104E70001362200000F072FA7FE7636E002B00D10E
:104E80007BE72000984778E72000FFF7DBFE74E718
:104E90000F080000994E000810B5406A00235A22FE
:104EA0008352083A8352FEF7ABFA10BD70B5040086
:104EB00083680269134342691343C269134301685B
:104EC0000A688248024013430B6022685368804995
:104ED0000B40E1680B435360226AA3691A432168BF
:104EE0008B687C48034013438B6023687A4A934263
:104EF0000AD07A4A934233D0794A93425AD0794AB7
:104F0000934245D010250BE0774B1A6B03231340D7
:104F1000022B3FD020D8002B3ED0012B3ED10425C0
:104F200080231B02E2699A4246D0042D00D1B9E0E9
:104F300000D993E0002D00D1A9E0022D00D08AE035
:104F400063685808694B9C466044616800F058FBF0
:104F50000004000C002592E0032B21D10225DFE79D
:104F6000614B1B6BC022920213408022920293423B
:104F700018D007D8002B17D080225202934215D1A7
:104F80000425CDE7C0229202934211D10225C7E742
:104F90000025C5E70825C3E70025C1E71025BFE7C1
:104FA0001025BDE70825BBE70025B9E71025B7E7C1
:104FB0001025B5E70025B3E7042D3FD012D8002D0A
:104FC00030D0022D0BD163685808494B9C46604491
:104FD000616800F015FB0004000C002513E00125BA
:104FE000002010E0082D0CD16368580880235B0274
:104FF0009C466044616800F003FB0004000C00253F
:1050000001E0012500203B4A0300103B934255D8A4
:105010000F2302009A434008083B184010432368BE
:10502000D8604EE0FFF794F8400063685B08C01852
:10503000616800F0E5FA0004000CE4E7FEF790FF79
:10504000400063685B08C018616800F0D9FA00048A
:10505000000C0025D7E70125002010E0082D0CD119
:105060006368580880231B029C466044616800F016
:10507000C7FA0004000C002501E0012500201D4AAC
:105080000300103B93421BD82368D86019E0FFF758
:105090005FF863685B081818616800F0B1FA0004F3
:1050A000000CECE7FEF75CFF63685B0818186168AA
:1050B00000F0A6FA0004000C0025E0E7012500E05E
:1050C0000125002323666366280070BDF369FFEFA6
:1050D000FFCFFFFFFFF4FFFF003801400044004016
:1050E00000480040004C00400010024000127A00CE
:1050F0000024F400EFFF0000436ADB0706D50268D6
:1051000053682C490B40816A0B435360436A9B07E9
:1051100006D50268536828490B40C16A0B435360A7
:10512000436A5B0706D50268536824490B40016B4C
:105130000B435360436A1B0706D502685368204936
:105140000B40416B0B435360436ADB0606D5026894
:1051500093681C490B40816B0B439360436A9B0629
:1051600006D50268936818490B40C16B0B439360E6
:10517000436A5B060BD50268536814490B40016C07
:105180000B43536080235B03026C9A420AD0436A4C
:105190001B0606D5026853680D490B40816C0B4312
:1051A00053607047026853680A490B40416C0B43D7
:1051B0005360ECE7FFFFFDFFFFFFFEFFFFFFFBFF7C
:1051C000FF7FFFFFFFEFFFFFFFDFFFFFFFFFEFFFAF
:1051D000FFFFF7FFFFFF9FFFF8B5CE46474680B5BC
:1051E00006000D0017009946089B98463368DC6955
:1051F0002C40641B63425C41BC423CD143460133BA
:10520000F4D0FEF73DFA4B46C01A404520D843463D
:10521000002B1DD033681A685207E7D5DA691205EA
:10522000E4D5802212011A623268136814490B40D7
:10523000136032689368A331FF318B43936020235E
:105240007367B367F36750330022F254032013E00F
:10525000326813680A490B40136032689368A331BF
:10526000FF318B43936020237367B3675033002271
:10527000F254032000E000200CBC90469946F8BD93
:105280005FFEFFFF30B583B004000023C367FEF765
:10529000F7F9050023681B681B070CD423681B68FB
:1052A0005B0715D420236367A36750330022E254C1
:1052B000002003B030BD80210C4B0093030000227E
:1052C00089032000FFF788FF0028E7D00320F0E7DC
:1052D0008021064B00932B000022C9032000FFF71A
:1052E0007BFF0028DED00320E3E7C046FFFFFF017D
:1052F00010B5041E2ED0436F002B21D024236367EA
:105300002268136801218B4313602000FFF7CEFD54
:10531000012814D0636A002B18D1226853680E4903
:105320000B405360226893682A218B439360226864
:10533000136829390B4313602000FFF7A3FF10BD4A
:1053400070330022C254FFF7B5FBD7E72000FFF708
:10535000D3FEE2E70120F2E7FFB7FFFF70478020AE
:105360007047012070470000F0B583B0224C012542
:10537000019500260096002301221C212000FBF746
:1053800037F92000B8380196009500230022132138
:10539000FBF72EF92000A438019600950023002287
:1053A0000C21FBF725F92000903801960095002389
:1053B00000220B21FBF71CF920007C380196009598
:1053C000002300220821FBF713F901277F42200068
:1053D000683801960095002300223900FBF708F990
:1053E0002000543801960095002300223900FBF775
:1053F000FFF803B0F0BDC0463C05002070B50500C5
:10540000154C0368032201212000FBF7FCF8200063
:1054100014306B6803220121FBF7F5F820002830D7
:10542000AB6803220121FBF7EEF820003C30EB686B
:1054300003220121FBF7E7F8200050302B690322FB
:105440000121FBF7E0F86B692000643003220121A1
:10545000FBF7D9F870BDC046840400207047704740
:10546000704700207047000030B583B00D4D002418
:1054700001940094002301220F212800FBF7B8F8C3
:105480000120FBF77DF80123019300940023002203
:105490000F212800FBF7ACF80620FBF771F803B0EA
:1054A00030BDC04670040020F8B507000920FBF7A6
:1054B00084FB04004D20FBF780FB060005007F20E5
:1054C00004402C4AE423D058FFF749FF40B204437C
:1054D000002813DB002F41DD0F2F00DD0F277F2376
:1054E0009C437021214349B23943C9B20920FBF7DB
:1054F0000CFB29004D20FBF708FBF8BD112F0CDD3C
:1055000007253543EDB207232B40072B0CD0012F85
:105510001ADD112F19DD112717E007239E4375B2FD
:1055200004263543EDB2EEE7042F03DD142F02DD30
:10553000142700E005270F239C43053F78B20F2175
:1055400001402143C9B2D1E702270F239C43023F08
:1055500078B20F2101402143C9B2C7E73B1D01DAF0
:1055600004277F427F239C43391D49B22143C9B29E
:10557000BCE7C0467004002000B583B001210023C1
:105580000193013300930023012249420248FBF7B3
:105590002FF803B000BDC0467C0E002000B583B0DC
:1055A0000121002301930093012249420248FBF7A5
:1055B0001FF803B000BDC0467C0E002010B5074B9D
:1055C0001B78834205D0054B1870002802D1FFF7E5
:1055D000D3FF10BDFFF7E2FFFBE7C0461C0400202D
:1055E00010B5032804D000210448FBF710F810BDC3
:1055F00001210248FBF70BF8F9E7C0467C0E0020BA
:10560000002243088B4274D303098B425FD3030A01
:105610008B4244D3030B8B4228D3030C8B420DD314
:10562000FF22090212BA030C8B4202D312120902A2
:1056300065D0030B8B4219D300E0090AC30B8B42E0
:1056400001D3CB03C01A5241830B8B4201D38B038E
:10565000C01A5241430B8B4201D34B03C01A524133
:10566000030B8B4201D30B03C01A5241C30A8B4276
:1056700001D3CB02C01A5241830A8B4201D38B0261
:10568000C01A5241430A8B4201D34B02C01A524105
:10569000030A8B4201D30B02C01A5241CDD2C30977
:1056A0008B4201D3CB01C01A524183098B4201D3F3
:1056B0008B01C01A524143098B4201D34B01C01ADE
:1056C000524103098B4201D30B01C01A5241C30856
:1056D0008B4201D3CB00C01A524183088B4201D3C5
:1056E0008B00C01A524143088B4201D34B00C01AB1
:1056F0005241411A00D20146524110467047FFE71D
:1057000001B5002000F0F0F802BDC0460029F7D036
:1057100076E7704703460B437FD4002243088B4251
:1057200074D303098B425FD3030A8B4244D3030B28
:105730008B4228D3030C8B420DD3FF22090212BAED
:10574000030C8B4202D31212090265D0030B8B4269
:1057500019D300E0090AC30B8B4201D3CB03C01A53
:105760005241830B8B4201D38B03C01A5241430B2E
:105770008B4201D34B03C01A5241030B8B4201D31E
:105780000B03C01A5241C30A8B4201D3CB02C01A89
:105790005241830A8B4201D38B02C01A5241430A01
:1057A0008B4201D34B02C01A5241030A8B4201D3F0
:1057B0000B02C01A5241CDD2C3098B4201D3CB0197
:1057C000C01A524183098B4201D38B01C01A524146
:1057D00043098B4201D34B01C01A524103098B424A
:1057E00001D30B01C01A5241C3088B4201D3CB0035
:1057F000C01A524183088B4201D38B00C01A524118
:1058000043088B4201D34B00C01A5241411A00D2C7
:1058100001465241104670475DE0CA0F00D0494230
:10582000031000D34042534000229C4603098B42A0
:105830002DD3030A8B4212D3FC22890112BA030A28
:105840008B420CD3890192118B4208D389019211AA
:105850008B4204D389013AD0921100E08909C3092F
:105860008B4201D3CB01C01A524183098B4201D331
:105870008B01C01A524143098B4201D34B01C01A1C
:10588000524103098B4201D30B01C01A5241C30894
:105890008B4201D3CB00C01A524183088B4201D303
:1058A0008B00C01A5241D9D243088B4201D34B001E
:1058B000C01A5241411A00D20146634652415B1060
:1058C000104601D34042002B00D549427047634641
:1058D0005B1000D3404201B5002000F005F802BD86
:1058E0000029F8D016E770477047C0468446101C60
:1058F00062468C46191C634600E0C0461FB500F0A6
:10590000D3FC002801D40021C8421FBD10B500F00F
:105910001DFC4042013010BD10B500F0C5FC002850
:1059200001DB002010BD012010BDC04610B500F005
:10593000BBFC002801DD002010BD012010BDC046C9
:1059400010B500F03FFC002801DC002010BD012054
:1059500010BDC04610B500F035FC002801DA00206B
:1059600010BD012010BDC046002B11D1002A0FD15F
:10597000002900D1002802D00021C943081C07B427
:10598000024802A14018029003BDC0465DFFFFFF20
:1059900003B4684601B5029800F024F8019B9E46C6
:1059A00002B00CBC7047C04670B500220C4B04001E
:1059B0000D00FFF7CFFF002804D12000290001F0DF
:1059C000E1FA70BD064B00222000290000F048FFDC
:1059D00001F0D8FA80231B069C466044F1E7C046DC
:1059E0000000E041F0B557464E464546DE46E0B57C
:1059F00004000D009246994683B08B4230D82DD0DA
:105A00004946504601F068FB29000600200001F0DD
:105A100063FB331A9846203B9B4633D45A46534681
:105A2000934042461F00534693401E00AF423AD86F
:105A3000AF4200D178E05B46A41BBD41002B00DAE9
:105A400075E0002200230092019301235A469340FF
:105A50000193012342469340009328E08242CFD92C
:105A600000220023009201930C9B002B01D01C60AC
:105A70005D600098019903B03CBC90469946A246EF
:105A8000AB46F0BD424620239B1A5246DA404146BF
:105A900013004A468A40170042461F43534693402C
:105AA0001E00AF42C4D90022002300920193434656
:105AB000002BD9D0FB0772081A4346467B080EE03C
:105AC000AB4201D1A2420CD8A41A9D410120241955
:105AD0006D410021013E24184D41002E06D0AB42FD
