:020000040800F2
:10000000004000203D2D0008D92C00088D2D00084F
:1000100000000000000000000000000000000000E0
:100020000000000000000000000000008D2D00080E
:1000300000000000000000008D2D0008E51C0008F5
:100040008D2D00088D2D0008752700088D2D0008C6
:100050008D2D0008252200083522000845220008C1
:100060008D2D00088D2D00088D2D00088D2D000888
:100070008D2D00088D2D00088D2D00088D2D000878
:100080008D2D00088D2D0008000000008D2D00082A
:100090008D2D00088D2D00088D2D00088D2D000858
:1000A0008D2D00088D2D00088D2D0008C92C00080D
:1000B0008D2D0008000000008D2D000800000000BC
:1000C0005FF808F110B5064C2378002B07D1054BDB
:1000D000002B02D0044800E000BF0123237010BDB4
:1000E000980000200000000090790008044B10B533
:1000F000002B03D00349044800E000BF10BDC046F8
:10010000000000009C00002090790008034B10B50F
:10011000DB6A98470422024B1A7010BD0C78000865
:10012000DA000020034B10B5DB6A98470522024B2A
:100130001A7010BD0C780008DA000020034B10B5CF
:10014000DB6A98470222024B1A7010BD0C78000837
:10015000DA000020034B10B5DB6A98470322024BFC
:100160001A7010BD0C780008DA000020F8B50700FE
:100170000C001D00094B1600DB6A9847084B220053
:10018000390008481C8006F033FA0122064B1E7025
:10019000064B1D70064B1A70F8BDC0460C7800085F
:1001A0000000002018040020D8000020D900002002
:1001B000DA000020F0B58FB001F0A2FD01F081FD62
:1001C0008C488D4B8D4F03608D4B002483608D4B8D
:1001D000012543608C4BC3608C4B03613B680B93E0
:1001E0009847FB688A480B9398478A4BFA690893AB
:1001F00008230B920293043322000E2128000B9E49
:1002000007940694059403940093049523000195A4
:10021000B04708230193BB690C220B9321002B00EC
:10022000280008940794069404940394029400947C
:100230000B9E09950595B0477B6D402128000B93D7
:10024000984701F03FFD02F05FFD7B6B0A21200023
:100250000B9302F05FFDFA239B0058436E4B0A3468
:10026000C0180B9B98476D4806F0D4F96C4801F014
:10027000AFFE6C4800F02CF96B4800F029F9013C06
:10028000642000F0DFF8002CF3D101231C000C9354
:10029000664D2B78052B5DD8032B00D9A4E0012BEC
:1002A00015D0023B012B55D8614800F011F90C9B89
:1002B000002B00D082E00A21002002F02BFDFA235F
:1002C0009B005843544BC0180B9B984789E00C9BEC
:1002D000584E002B51D03388002B38D0564D402239
:1002E0002800564906F0B7F9002817D14E4800F00B
:1002F000EFF8280001F06CFE40225149280006F07A
:1003000077F9200000F09EF8BB6A280031780D9341
:1003100098472100434800F0D7F818E04022280011
:10032000474906F098F9061E1BD13F4800F0D0F867
:10033000280001F04DFE0A21300002F0EBFCFA2308
:100340009B005843344BC0180B9B98470C960022D7
:10035000364B1A7001F00DFE3B6E002B98D098477B
:1003600096E70A21002002F0D5FCFA239B005843AF
:10037000294BC0180B9B9847E9E73388002BE6D040
:100380002D4D402228002E4906F065F9002808D19D
:10039000254800F09DF8280001F01AFE4022274968
:1003A000ACE70A210C9802F0B5FCFA239B005843F5
:1003B000194BC0180B9B98470C94C8E71E4E40225F
:1003C0001F49300006F014F9200000F03BF8194BEB
:1003D00030001978BB6A0D9398472100114800F04E
:1003E00073F800232B70B5E700210E4800F06CF87D
:1003F00061E7C046B40000200D0100080C78000839
:100400006D010008250100083D01000855010008A4
:10041000C0CA89368813000010270000087600083B
:1004200020760008680E0020E4050020DA00002095
:10043000F80500200000002018040020787600084D
:100440003476000810B501F0CFFD10BD0023036025
:1004500041600281704770B5040040880D00013092
:10046000218904F099FC636861805D5470BD10B50A
:10047000040000882189013004F08EFC6368585C18
:10048000218010BD03884088181A43425841C0B2E9
:10049000704710B5040040882189013004F07CFCCD
:1004A000208889B2401A41424841C0B210BD37B5D8
:1004B00006AC2478079D0094019501F021FE37BD1C
:1004C00010B501F095FD10BD10B501F00BFE10BD8B
:1004D00010B501F09BFE10BD70B5040002F01AF8D3
:1004E000012363720500266802F0D8F828188642B6
:1004F00003D202F0D3F82D182560206802F0DAF854
:1005000070BD0000054A10B51368002B01D0002112
:10051000597243611060FFF7DFFF10BDDC0000205F
:100520000023036043600381C1600361436170473E
:1005300037B5040001A801F0BBFB002C0FD0184D0B
:100540002A681300002B0ED16368236001232381E6
:10055000002A0CD101F080FF2000FFF7D3FF01A893
:1005600001F0ABFB37BD9C42F9D05B69EAE702F0D2
:1005700095F82368C0182B6820601A689042EBD366
:100580005A695969002902D15C616161E7E7116824
:10059000884202D913005269F3E75C616261DEE7C9
:1005A000DC000020F8B501F0AFFF050001F054FFBA
:1005B0001A4C2368002B15D01A00471B5269002AD9
:1005C00006D159691A72DA682160002A08D1FEE75B
:1005D00011680026B94201D949190E1A1660EDE7D3
:1005E000186990472368002B03D1206800280ED19A
:1005F000F8BD1D6802F052F88542F6D223685A69A8
:10060000226000221A72DA68002AE9D1FEE7437AF2
:10061000002BEDD1FFF760FFEAE7C046DC000020C9
:1006200037B5040001A801F043FB134D2B68002BE4
:1006300001D0002C03D101A801F03FFB37BD0022FF
:100640002272A3420FD1597A5C69914209D05A7241
:10065000944204D020002C60FFF73EFFEBE701F04E
:100660006FFF2C60E7E71A005B69002BE3D09C4228
:10067000F9D163695361DEE7DC00002070B5050045
:10068000080001F049FF04002800FFF7C9FF01F04E
:1006900041FF844200D204002C606C6070BD10B534
:1006A00001F0F4FF01F040FF10BD70B5041E09D049
:1006B00001F0ECFF0500200001F02EFF281A01F0E8
:1006C00033FF0400200070BD10B54478002C03D126
:1006D0000134447002F0A0F910BD7FB508AC09AD3B
:1006E0000AAE2D783678247802960195009402F0AF
:1006F000C3F97FBD10B502F01FFA10BD10B502F0AE
:1007000045FA10BD10B502F05EFA10BD10B502F04A
:1007100077FA10BD094A0023110010B5146884420D
:1007200006D89468844203D9DB00CB18187910BD31
:1007300001330832152BF1D1FEE7C046C876000818
:10074000064B1A00E1321278002A05D1FF335A7B9A
:10075000002A01D101325A737047C0468804002034
:10076000014BE0331878704788040020F7B5140077
:1007700008AA168809AA17780AAA12780D000BA9E8
:1007800094460978002809D0012817D001240020B8
:1007900000192100013804F08FF9FEBD4B1E99416C
:1007A0007842784149000A008619FA20F60062442E
:1007B0001836D200921980005043E9E704330193C0
:1007C000631F012B04D8331C0C2E00D20C239EB2C5
:1007D000002D36D1230001202A000B3B98426A41AC
:1007E0001300DBB2481E814162460801D200101896
:1007F0000022A100401A974200D114328018A71E8F
:10080000062C03D90830002B00D0B900C343DB17F6
:1008100018404018013804F0D9F9019B43439E1950
:1008200032000E32062C00D9023A022D11D8920065
:10083000FA200132BA40074B8000AD005043EC581B
:10084000A6E70023012DCDD123000C3B58424341A4
:10085000C7E7FFDEBC760008F8B50E4E07000C00B7
:10086000300000211500FFF72FFE802139430A4F89
:1008700089B2380002F0A8F86519AC4204D1300002
:100880000121FFF721FEF8BD2178380002F09CF825
:100890000134F2E7540500201405002007B56B462B
:1008A000D971073301221900FFF7D6FF07BD0000F9
:1008B0000D4B10B5E433186005F026FE0B4A0C4BC7
:1008C00004F0BEFF04F0CCFA0400010CC9B206200B
:1008D000FFF7E4FF210A0720C9B2FFF7DFFF082076
:1008E000E1B2FFF7DBFF10BD880400208DEDB5A05D
:1008F000F7C6903FF8B50E4E07000C0030000021FF
:100900001500FFF7E1FD7F2139400A4F65193800D6
:1009100002F05AF8AC4204D130000121FFF7D4FDB7
:10092000F8BD0021380002F04FF820700134F1E7E3
:10093000540500201405002013B56B46DC1D012270
:100940002100FFF7D7FF207816BD000070B5134BCC
:10095000E1331C78012C12D11220FFF7EDFF0500C6
:100960000F4E254020420BD005211220FFF796FFA5
:100970003368002B03D09B692000002B0BD170BD86
:1009800004211220FFF78AFF3368002BF7D09B6900
:10099000002BF4D028009847F1E7C04688040020D7
:1009A000E000002070B5324C2300E03319780129B3
:1009B00002D0022951D070BD2300E1331B78002BF7
:1009C00018D0012BF7D13023FF33E35C0221002B39
:1009D000F1D01220FFF762FF264B1B68002BEAD0F4
:1009E0005C69002CE7D01C20FFF7A6FF3F231840CE
:1009F000A047E0E72300A26EFF33002A29D15973F4
:100A00002600FF36B37B002BD5D11B48FFF708FE2D
:100A100001231120B373FFF78FFF40084042F073AA
:100A20001B20FFF789FF05001C20FFF785FF2D0223
:100A3000284305F039FD0022104B04F001FF05F0BA
:100A4000FDFCFC3460610C20FFF776FF40097075F7
:100A5000B1E75B7B002BAED0D2E72300E1331B78FC
:100A6000012BA8D13023FF33E35C002BA3D0B0E7E8
:100A700088040020E00000207004002080844E40A4
:100A800070B50920FFF758FF05000620FFF754FF57
:100A900004000720FFF750FF24040002044308204D
:100AA000FFF74AFF204305F02FFD0022194B04F009
:100AB000C7FE04F0D5F9002104000920FFF7EEFE7F
:100AC0003B20FFF739FF40210143C9B23B20FFF72C
:100AD000E5FE20263B20FFF72FFF3042FAD10E48DB
:100AE000FFF7E6FE3B20FFF727FF40210143C9B295
:100AF0003B20FFF7D3FE20263B20FFF71DFF3042AF
:100B0000FAD129000920FFF7C9FE2000FFF7D0FE27
:100B100070BDC04680844E4000A1BC3310B50400B7
:100B20000120002C0DD103F097FF0120FFF704FFF7
:100B300007230100994321430120C9B2FFF7AEFE0C
:100B400010BD03F01DFF002003F086FF200003F01E
:100B500093FFEAE710B50A48FFF762FD0948FFF77F
:100B60005FFD0948FFF75CFD0020FFF7D7FF00207D
:100B700003F006FF0022054BE0331A7010BDC0469B
:100B8000CC050020580400207004002088040020B8
:100B900010B50848FFF744FD0748FFF741FD074837
:100BA000FFF73EFD0120FFF7B9FF0022044BE033C1
:100BB0001A7010BDCC0500205804002070040020DD
:100BC00088040020F7B56B46674CDE1D23003170AA
:100BD000E1331D780700002D1DD0012D4CD00026DB
:100BE0006248FFF71DFD624D31002800FFF746FD0A
:100BF0002300E1331B78002B00D17EE0012B00D1D4
:100C000096E002232800E0342370FFF791FC0320D4
:100C1000FFF784FFF7BD2300FE33317818785D833A
:100C2000198300281BD101223100FFF715FE32780D
:100C3000531E3F2B17D82300FF3325001A77FF35AB
:100C400039002A7F0020FFF707FE2200FE322B7FAB
:100C5000518B5B1853832300FC339E68C0E732201E
:100C6000FFF71CFEE3E792B23900424802F05DF85C
:100C700023002022FF33E0E73223FF33E35C3320FD
:100C8000002B2ED0FFF758FE41239843C1B23320EA
:100C9000FFF704FE19213B20FFF700FEA023317867
:100CA0005B002220E154FFF7F9FD00210E20FFF741
:100CB000F5FD00210D20FFF7F1FD0120FFF73CFEBF
:100CC000F823984304D1FFF763FF0120FFF7BAFB35
:100CD000327839000020FFF7BFFD2300FC339E6B04
:100CE0007EE7FFF729FE4123010099432943C9B25A
:100CF0003320FFF7D3FD1D21CDE74020FFF71CFE79
:100D0000032108400D3101434020FFF7C7FD41207A
:100D1000FFF712FE3E2101404120FFF7BFFD3520C5
:100D2000FFF70AFE3F2318402300FF33D87668E719
:100D30003023FF33E35C002B0DD0F5211120FFF7AA
:100D4000ADFD4020FFF7F8FD332101404020014375
:100D5000FFF7A4FD55E7F7211120FFF79FFD402085
:100D6000FFF7EAFD3F21F0E788040020CC050020D2
:100D700058040020E4000020F8B507008348FFF77E
:100D80004FFC834C2300E1331D78002D32D0002628
:100D9000012D55D13223FF33E35C41263320002B54
:100DA00000D176E0FFF7C8FD3043C1B23320FFF732
:100DB00075FD192125003B20FC35FFF76FFD6B6A9F
:100DC0003120082B00D9C9E0FFF7B6FD7F21014093
:100DD0003120FFF763FD30200021FFF75FFD686AD7
:100DE000082800D96BE003F05DFE5F879099A2AB05
:100DF000B4B4B400674B4020DE78FFF79DFD0321BB
:100E00000840093101434020FFF748FD4120FFF72A
:100E100093FD3F2149420143C9B24120FFF73EFD06
:100E20003520FFF789FD3F2318405A4B1E21D87605
:100E30000D20FFF733FD2300FE33DD815D831D832D
:100E4000802200215200544805F0DBFB23000122E0
:100E5000E0331A70002F07D0504D39002800FFF7FB
:100E60000DFC2800FFF764FB2300E1331B78002B07
:100E700000D084E00520FFF751FE002E08D1484D38
:100E8000FC342800E168FFF7F9FB2800FFF750FB6E
:100E9000F8BDFFF751FD0100B1432943C9B233202A
:100EA000FFF7FCFC1D2185E72F204821FFF7F6FC0A
:100EB0002300E43318683B4BC018FFF7F9FC992373
:100EC0005B00E65C3023FF33E35C002B4ED01D213A
:100ED0001120FFF7E3FC4020FFF72EFD33210140F6
:100EE0004020FFF7DBFC00210F20FFF7D7FC00219B
:100EF0000D20FFF7D3FCA3E72F204421FFF7CEFC02
:100F00002300E4331868284BD6E72F204421FFF74D
:100F1000C5FC2300E4331868244BCDE72F2044217F
:100F2000FFF7BCFC2300E4331868214BC4E72F20F3
:100F30004421FFF7B3FC2300E43318681D4BBBE7E3
:100F40002F204421FFF7AAFC2300E43318681A4B32
:100F5000B2E740212F20FFF7A1FCB0E7FFF7ECFC40
:100F6000802149420143C9B23120F4E71F211120F9
:100F7000FFF794FC4020FFF7DFFC3F21AFE705209F
:100F8000002E00D10620FFF7C9FD81E7580400209C
:100F90008804002087050020E4000020CC05002004
:100FA00070040020821E0000B4280000043D0000F0
:100FB0005E510000127A0000C6A2000070B50C4C11
:100FC0002300E1331B78012B11D1FA211120FFF707
:100FD00065FC4020FFF7B0FC0325A843C1B24020C8
:100FE000FFF75CFCE03407202570FFF797FD70BD2C
:100FF0008804002010B5002804D001280AD0012060
:10100000404210BD1120FFF797FC4008C0B240429B
:1010100000B2F6E7074B084AE4331B681B209342F3
:1010200003D9FFF789FC9D38F2E7FFF785FCA43868
:10103000EEE7C0468804002040DD4A1F10B50400DA
:101040000120FFF779FC184BC0B2C009E133A04280
:1010500001D1187010BD00201C70012C12D0FFF7B8
:101060005DFD0120FFF768FC7F2101400120FFF7B3
:1010700015FC00214020FFF711FC30214120FFF733
:101080000DFCE7E7FFF74AFD2000FFF755FC802144
:1010900049420143C9B22000FFF700FC0021402073
:1010A000FFF7FCFB0021E9E78804002070B5174B2F
:1010B000174C186021001748FFF732FA2100164834
:1010C000FFF72EFA21001548FFF72AFA03F05CFC1F
:1010D000FFF7D6FC0020FFF721FD114803F01AFCB2
:1010E000104C250030352078FFF7A8FFA1786078F4
:1010F0000334FFF7D3FBAC42F5D10020FFF79EFF8E
:101100000022094BE0331A7070BDC046E000002099
:10111000C91B000858040020CC05002070040020E2
:10112000040000207877000888040020F8B5070044
:101130000C0016001D00FFF70DFD0020FFF77EFFDD
:101140003800FFF7B5FB2000FFF7E4FA04000100C8
:101150001220FFF7A3FB21001320FFF79FFB0520C0
:10116000FFF7DCFC0120FFF76DF9FFF798FA0400A8
:101170002000FFF79AFAA84204D30124FFF7EAFC03
:101180002000F8BD0020FFF735FFB042F0DD00245D
:10119000F4E770B500240120FFF750FFFF21112074
:1011A000FFF77CFB0520FFF7B9FC25000126300086
:1011B000FFF748F92C20FFF7BFFB3040A040013477
:1011C0000543202CF3D1FFF7C5FC280070BD0000BB
:1011D000F0B58DB0089312AB160004CB04001B8849
:1011E0000392019314AB1B880CAA069315AB1B78D2
:1011F0000D00029316AB1B78049317AB1B78059375
:1012000018AB1B780A9319AB1B780B9319239B1807
:10121000DF7F1D239B18DB7F0993FFF70FFF002C57
:1012200004D0012C00D186E00DB0F0BDAB4C039A88
:101230002300F0331D602300F8331E602300F433D5
:101240001A602300029AFE331A702300049AFF33B7
:101250001A70059A9F705A70099AFC34DA70019BD3
:101260003000238005F050F9060006980F0005F0C5
:101270001BF900229A4B04F0E3FA32000690079122
:101280003B000020974903F0D5FE02000B000698B2
:10129000079904F0D5FA03F0E3FD32003B00E0606B
:1012A0009149002003F0C6FE03F0DAFD84B2210A62
:1012B0000220FFF7F3FAE1B20320FFF7EFFA28006C
:1012C000FFF728FA01001220FFF7E8FA0398FFF76A
:1012D00021FA01001320FFF7E1FA019B2520190AEA
:1012E000FFF7DCFA6B4626201979FFF7D7FA029B45
:1012F0000499002B00D1FF213220FFF7CFFA3020D4
:10130000FFF71AFB6F2108400021029B8B4200D19E
:101310008039059B1D0128430143C9B23020FFF7E6
:10132000BDFA3120FFF708FB402101433120C9B24B
:10133000FFF7B4FA78E7022D00D9FEE7EB1D03931F
:10134000664B03991A00FC32516296622A22089970
:10135000FF3299541A000199FE3291859622029922
:10136000520099542E220499FF3299540599013262
:10137000995430220A99FF32995498210B984900C8
:10138000585432210998FF315F54013106255854D1
:101390000992062E03D335000C2E00D90C25039B91
:1013A000072B7FD12A00002301210B3A91425B4198
:1013B000DBB29427494C7F001D20E355FFF7BCFAB0
:1013C000089B1D205900029B2D011943039B1B0103
:1013D0001943C9B2FFF762FA1E20FFF7ADFA069B68
:1013E0009905059B890F9B0019432943082528402F
:1013F0000143C9B21E20FFF751FA2620FFF79CFADD
:10140000E15DA843C9000143C9B22620FFF746FAAF
:101410006B461F20197EFFF741FA019B2020190A15
:10142000FFF73CFA6B4621201979FFF737FA029B48
:10143000002B03D022200499FFF730FA099BE35CCC
:10144000002B0FD04420FFF777FA80214942014357
:10145000C9B24420FFF722FA98235B002420E15C04
:10146000FFF71CFA039B092B29D1E4341F4B226898
:10147000022136209A421ED9FFF710FA64213A2041
:10148000FFF70CFA07243120062E1BD8FFF754FA79
:101490000521A0430143C9B23120FFF7FFF90C2118
:1014A000372045E7039A0023082A82D10B33B34241
:1014B0009B415B427DE7FFF7F1F97F21DFE70321E5
:1014C0003620DDE7FFF738FA0321A0430143C9B214
:1014D0003120FFF7E3F90A21E2E7C0468804002043
:1014E00000408F400000204080847E4140DD4A1F44
:1014F000F0B50E0089B01F000EAB20CB04001B78A6
:101500000392049310AB1B88009311AB1B780193DB
:1015100012AB1B78029313AB1B78059314AB1B78AB
:10152000079315AB1B780693FFF788FD300003F097
:1015300049FA002C03D0012C6AD009B0F0BD884BC9
:1015400003991A00E83216701A00EC3211601A0082
:10155000F03217601A00F83215601A000099FC3258
:10156000118019000198FE3108700299FF335970FB
:10157000069903989970169B936004F0C5FF794A09
:10158000794B04F05DF903F06BFC86B2310A04205C
:10159000FFF784F90520F1B2FFF780F9280004F085
:1015A000B3FF02000B000020704903F043FD03F07D
:1015B00057FC85B2290A0220FFF770F90320E9B22F
:1015C000FFF76CF9009B2520190AFFF767F96B46B6
:1015D00026201978FFF762F93020FFF7ADF96F2167
:1015E000019B0140002B01D180246442029B180121
:1015F00001432143C9B23020FFF750F93120FFF7F2
:101600009BF9402101433120C9B2FFF747F994E724
:10161000534B1A00FF325677022F00D9FEE72A21DA
:101620000498FF31585419000098FE31888596219E
:1016300001984900585430210598FF3158540798B3
:101640000131585402980239585432211A00069830
:10165000FF315854169BFC32FE1D062456629562DB
:101660009363062D03D32C000C2D00D90C24072ED8
:1016700062D12200002301210B3A91425B41DBB28F
:101680009422374F5200BB54059B002B0FD04420AF
:10169000FFF752F9802149420143C9B24420FFF7C4
:1016A000FDF898235B002420F95CFFF7F7F81D2074
:1016B000FFF742F9049B36015900019B1D200B43A3
:1016C00019003143C9B2FFF7E9F81E20FFF734F9DA
:1016D0000B21029B24019B001C4301402143C9B202
:1016E0001E20FFF7DBF82620FFF726F994235B0086
:1016F000F95C213BFF3B9843C9000143C9B2262056
:10170000FFF7CCF8009B2020190AFFF7C7F86B46BB
:1017100021201978FFF7C2F807243120062D13D8AD
:10172000FFF70AF90521A0430143C9B23120FFF7B1
:10173000B5F80C21372068E70023082EA0D10B3321
:10174000AB429B415B429BE7FFF7F6F80321A043C6
:101750000143C9B23120FFF7A1F80A21EAE7C046E8
:10176000880400208DEDB5A0F7C6903F80847E41AF
:1017700030B5FA248BB0A40054430D00FFF798F85D
:1017800005230293962300205B01020029000790A5
:101790000690059004900390019000930894030034
:1017A000FFF7A6FE3120FFF7C7F84025A843C1B2D6
:1017B0003120FFF773F82800F021FFF76FF8A02120
:1017C0004120FFF76BF8084D21002800FEF756FF77
:1017D0000222064B2800E0331A70FEF7A9FE032010
:1017E000FFF79CF90BB030BD58040020880400209E
:1017F00070B5364C2500E0352E78012E02D0022E31
:101800004AD070BD2300E1331B78002B13D0012B8D
:10181000F7D12F48FEF704FF80211220FFF73EF892
:1018200000232B702B4B1B68002BEAD0DB68002BAE
:10183000E7D09847E5E725002748FE35FEF7F0FE9C
:101840002B8B6A8B134306D12878002819D13200DC
:101850002249FFF74FF82500FF34FE35688B2A8BAD
:101860001F49E37E4118121A9A420FDB013BDAB29C
:101870000020FFF73FF86A8BE37E013A9B186B83E9
:10188000BFE73220FFF758F82883E4E70020D2B200
:10189000FFF730F82B8BF2E72300E13318780028AC
:1018A000AFD12500FF34FE356E8B2B8B0C49227F88
:1018B00071189B1B934204DDFEF7CEFF237F6A8BDA
:1018C000DCE7DAB2FEF7C8FFE4E7C0468804002090
:1018D000CC050020E0000020700400209E050020C0
:1018E000E4000020F7B56B46974CDD1D2600002371
:1018F000E0362B703378012B03D0022B00D10DE1A1
:10190000F7BD2300E1331B78002B24D0012BF7D146
:1019100040211220FEF7C2FF1220FFF70DF8202110
:1019200028702B78894F8A4D0B4200D192E012200B
:10193000FEF7B4FF99235B00E35C002B00D133700A
:101940003800FEF76DFE2B68002BD9D01B69002BE9
:10195000D6D09847D4E77F4B7D4F5B78002B30D0B3
:101960003F20FEF7E9FF28702B789B0729D40B2135
:101970003E20FEF793FF10213F20FEF78FFF7348B4
:10198000FEF74EFE734BDD78002D10D17248FEF746
:1019900047FE35703B68002B03D01B69002B00D03D
:1019A00098470023FE34E38163832383A8E70D2057
:1019B000FEF7C2FF40210143C9B20D20FEF76EFFC2
:1019C000E8E72500FE352A8B698B1300634E0B4335
:1019D0000AD1287800282ED101226149FEF78AFF1A
:1019E0002500FE35698B2A8B521A0020D2B271185D
:1019F000FEF780FF2B8B55486B83FEF711FE23000B
:101A0000FF33DB78002B1BD122005348E0321370E8
:101A1000FEF706FE3B68002BC3D09D68002DC0D0AA
:101A200023000F22FF339A562300FE33198B300018
:101A30000023A847B5E73220FEF77EFF2883CFE7D3
:101A40000D20FEF779FF40210143C9B20D20FEF7BA
:101A500025FFDFE71920FEF76FFF9E2640B2023018
:101A600076008010A0551A20FEF766FF03B21B1106
:101A700099B2E4239C46A25780B23A4EA444002A6D
:101A80003FDA93B26246126894469F225200B445F0
:101A900035D99D3BC318CB18A3521320A026FEF7BF
:101AA0004BFF7600A0551020FEF746FF01000D20E9
:101AB000FEF7F4FEA25D294E00203100FEF71AFF6A
:101AC00099235B00E35C002B02D12200E03213700B
:101AD0003800FEF7A5FD2B68002B00D110E79D68AC
:101AE000002D00D10CE79F225200A25E9E23A02170
:101AF0005B0049003000E356615CA84700E7A43B67
:101B0000C8E763469F221B685200B34202D9030014
:101B10009D3BC0E7A4380918A152BEE71248FEF762
:101B20007FFD2300E1331B78012B03D10821122014
:101B3000FEF7B4FE0023E0342370054B1B68002B36
:101B400000D1DDE61B6802E788040020CC050020F8
:101B5000E00000208705002070040020E400002041
:101B60009E05002040DD4A1F5804002070B5040087
:101B70000D00FFF763FA002C02D0012C0AD070BDD3
:101B8000064BFE331B78002BF9D129003220FEF7DB
:101B900085FEF4E729002320F9E7C04688040020E9
:101BA00010B504000120FFF749FA9C23054A5B00A9
:101BB0003421D454002C00D112213920FEF76EFEBE
:101BC00010BDC0468804002070B52D4C2500E035BE
:101BD0002B78012B02D0022B2DD070BD2300E133D6
:101BE0001B78002B19D12200FE32D3810B213E201D
:101BF00053831383FF34FEF751FE10213F20FEF77D
:101C00004DFEE378002B11D00D20FEF795FE40210C
:101C10000143C9B20D20FEF741FE1A4B1B68002B91
:101C2000DBD0DB68002BD8D09847D6E716482B705E
:101C3000FEF7F6FCF1E702F0A7FEFEF721FF002019
:101C4000FEF76CFF114D2E0030362878FFF7F6F9BD
:101C5000A97868780335FEF721FEB542F5D100205A
:101C6000FFF7ECF99C235B00E05CFFF799FF002392
:101C7000E0342370034B1B68002BAED05B68D1E7C8
:101C800088040020E000002070040020787700081D
:101C900010B502F076FE013010BD000010B500F066
:101CA0002DFD0122014B1A7010BDC046FD01002020
:101CB000EFF31083036072B67047036883F31088F4
:101CC00070477047044B1868044B1B685840044B1E
:101CD0001B6858407047C046ACF7FF1FB0F7FF1FA6
:101CE000B4F7FF1F10B501F0F9F801F092F910BD3B
:101CF0000120024B1B7858407047C046FE0100206F
:101D0000F0B5814F814D3C78A1B0002C00D0D3E0DC
:101D1000012601F0D3F82300012214217C4801940C
:101D20000094FEF7C4FB2300012215217948019499
:101D30000094FEF7BCFB2300012214217648019495
:101D40000094FEF7B4FB230001221521734801948F
:101D50000094FEF7ACFB320023001221704801967C
:101D60000094FEF7A4FB8021EA6949050A43EA6171
:101D7000EB6901220B400593059B012312921393FB
:101D800080235B021C93802302255B0312A81E960E
:101D90001D931B9501F046FA072202230692079332
:101DA00000220023310006A80892099301F0D4FC18
:101DB00001F01EF88022C02352029B000AA80A925A
:101DC0000B930C9601F06AFD01F052FDFA21890097
:101DD00002F072FE01F0EAF8042001F00BF9012094
:101DE00022002100404201F0ADF880224D4B4E49C7
:101DF0004E48D2001E70FEF729FB80224C494D4808
:101E0000D200FEF723FB4C4E0A23092221003000AA
:101E10007470FEF759FC96222300290030009201CD
:101E2000029401940094FEF758FC00F021FB01F0AD
:101E300079F801F07FF8FFF75BFF012802D101007C
:101E400000F046FA01235B4201931E331F22012159
:101E50003A480093013300F0FFFC02F00FFD3B789D
:101E6000002B1DD101333B7002F088FD02F087FD8D
:101E7000FFF73EFF012813D1314D2B78002B0FD1F6
:101E8000304C31492000FEF74BFBFA21200089003D
:101E9000FEF7F4FB2000FEF74BFB2B78002BFCD069
:101EA00006222A4912A804F0A3FB052212A92248FF
:101EB000FEF728FC21B0F0BD8021EA6949050A43FC
:101EC000EA61EB690B400A930A9B01232A681343DA
:101ED0002B6002232A681A42FCD080232A685B0404
:101EE00013432B6080239B042A681A42FCD00322F0
:101EF0006B6893431A00022313430C226B606B68D8
:101F00001340082BFBD19DE7FC010020001002408C
:101F1000680E0020E40500207C0E0020540E0020F6
:101F2000F8050020FE0100200C060020380A0020E1
:101F3000540A0020440A00200C0A00201405002046
:101F4000FD010020E40100209D1C0008A877000886
:101F5000704707B501A8FFF7ABFEFFF7D1FE019B65
:101F600083F3108807BD10B50121002001F04AF964
:101F700010BD10B572B600F0FBF962B610BD0000DE
:101F800070B50D00140029000348A2B2FEF7BAFB99
:101F90000028F8D1200070BD0C0A0020002373B582
:101FA0000C0016000193094D21002800B2B201ABCC
:101FB000FEF7ACFB0028F6D1019B210028009AB265
:101FC000FEF7A0FB0028F7D1019876BD0C0A00208F
:101FD00010B5040004F038FB210082B20148FEF77E
:101FE00091FB10BD0C0A002010B500F089FF10BD58
:101FF00030B5140000228256050087B06F2A2BDC12
:10200000002B29D0036143880193012926D12B4B52
:102010000293AB7A01A9039303236868049301F048
:102020001FF80021032C01D8254B195D6B8806246D
:10203000082B04D018D8043B5C425C4105340F22C5
:102040002B78200013401F4A9B009D50002200F077
:1020500079FF200000F0A0FF07B030BD022901D1B8
:10206000194BD5E7194BD3E780220724D2009342BE
:10207000E5D011D8802BE2D009D8402BDFD0102238
:10208000103B93439BB2002BD9D00524D7E7013BEB
:102090000F4AFF3B052409E0802207249201934266
:1020A000CDD007D80B4A023C9B180B4A1342C6D12D
:1020B0000234C4E7094A9B18094AEBE700001110F3
:1020C000AE7700080002002000002110000031104F
:1020D000FFFE000000F8FFFFFFF7000000C0FFFF59
:1020E000FFBF00000023C35610B56F2B06DC013381
:1020F00004D0CAB24188406801F06CF810BD0000FD
:10210000F0B58BB0040010A806786F2927DC217089
:10211000481C24D00F2501200D40A840F0270D00B9
:1021200060803D4039421CD19021C9056160802109
:1021300089028C46314D6F690F436F61696965464D
:1021400029400191019903210590A67207960891F3
:10215000002A39D10692606805A900F081FF0BB012
:10216000F0BD102D0ED12649244D61608021C90299
:102170008C466F690F436F6169696546294002911A
:102180000299E0E7202D0ED11E491C4D616080218F
:1021900009038C466F690F436F6169696546294081
:1021A00003910399CFE7302DCDD11749134D6160CD
:1021B000802149038C466F690F436F6169696546E9
:1021C000294004910499BEE7032AC3D0022A07D10B
:1021D0001221012B00D01100119B06910993BAE73F
:1021E000012B08D110330693012AB4D12000119994
:1021F000FFF778FFAFE70123F5E7C0460010024084
:102200000004004800080048000C00480023C356A2
:1022100010B56F2B05DC013303D04188406800F016
:10222000DFFF10BD10B5012000F0E0FF022000F03C
:10223000DDFF10BD10B5042000F0D8FF082000F02D
:10224000D5FF10BD10B5102000F0D0FF202000F009
:10225000CDFF402000F0CAFF802000F0C7FF8020A3
:10226000400000F0C3FF8020800000F0BFFF80200E
:10227000C00000F0BBFF8020000100F0B7FF80200D
:10228000400100F0B3FF8020800100F0AFFF80200C
:10229000C00100F0ABFF8020000200F0A7FF10BDDE
:1022A000030010B5002806D0002302E001334008E7
:1022B000DBB20128FAD1054A9B009B58002B04D0C1
:1022C0001A69002A01D0D868904710BD000200208A
:1022D00037B5040001A80D00FFF7EAFC002D09D076
:1022E000012D03D1064B1A6814431C6001A8FFF7A7
:1022F000E4FC37BD024A1368A3431360F6E7C04607
:102300004002002037B5040001A80D00FFF7D0FC03
:10231000002D09D0012D03D1064B1A6814431C600F
:1023200001A8FFF7CAFC37BD024A1368A343136034
:10233000F6E7C0464402002013B5002401A8FFF7C9
:10234000B7FC074B1B68A34204D1064B1C686342D1
:102350005C41013401A8FFF7B0FC200016BDC04667
:102360004402002040020020704770477047000080
:102370000B4B10B51B68002B04D0FFF7F4FDFFF7E3
:10238000F3FF10BD074B1B68002B04D0FFF7E0FDE7
:10239000FFF7DFFDF5E7FFF7E8FFFFF7E7FFF0E7FF
:1023A0004402002040020020F7B505000C00234E37
:1023B000234FB36A002229003800019301F092FDF7
:1023C00000222100380001F063FDB36A019A9342B4
:1023D000EDD10321EA781B486E7850430A405342FE
:1023E0005341194A5B421340184A013E9B183D2253
:1023F00072437600F340AD780132D70F0330BA183C
:10240000013D80085210281810180B40C31A1048BC
:1024100022785843E1231B0153433C2261780D4D40
:102420004A439B18A27864689B181B18190D18035F
:1024300000232A1B8018594103B0F0BD002800403A
:1024400074020020B5050000B0AAAAFFA0AA990056
:1024500080510100FF0F000010B5044C2000211D29
:102460001830FFF7A1FF206010BDC0469802002081
:1024700070B51F4E86B03578002D37D180231D4AA8
:102480001B02116A1C4C0B4313621C4B200023607F
:102490007923A3601A4B6560E36025616561A561DE
:1024A00001F010FB174B2A0069462000009301F051
:1024B000E3FB2A0001A920000295019504950595EA
:1024C00001F060FB200001F06BFD2A0001210220D9
:1024D00000F038FD022000F05FFD8021200049005F
:1024E00001F080FAFFF7B8FF0123337006B070BD2A
:1024F00094020020001002407402002000280040D6
:10250000FF0F000001010100014B18687047C04631
:10251000980200200320704710B5C10D7D220023D2
:10252000400202F07DFC10BDFA220300000592007B
:10253000000D50431B0B5343000BC01870470000A5
:10254000802110B5074C4900200001F04BFA2168AA
:10255000054BCA68D2B213438022CB60034B920270
:102560005A6110BD740200207FFEFFFF000401408D
:10257000F0B506003C4B87B05A799F6800929A7973
:102580009C7E0192DA791D7902925A7EDB7E03925B
:102590000493FFF7D5FF354A3305D71B1B0DFB18F6
:1025A0000592334A9BB2360BA0B296423DD8E12247
:1025B000ADB2120196423DD26A4617883B2E3ED8F4
:1025C0001A0B14031C1B019BA4B2D2189619B6B2A5
:1025D0003B2E38D83B2F3BD8172D3ED8039B049A6F
:1025E000013B92073ED1234AD15C814202D202F0E4
:1025F000D3FB88B2059B20491C1BC0231B058B61A4
:102600004B1CD877029B0022CB7080231B485B00B9
:102610004C608E704F700D70CA614A614B62CA6027
:102620000A6101F08BFB07B0F0BD15490130761847
:1026300080B2BAE7134901357618ADB2BAE701376F
:102640003C3EBFB2BAE73C3E0137B6B2BFB2BFE7CD
:102650003C3F0135BFB2ADB2BCE7183D0130ADB271
:1026600080B2B9E7084ABFE798020020FF0F0000D8
:102670007F510100C07700084C0200207402002046
:1026800080AEFEFFF0F1FFFFB47700087FB568462B
:1026900001A9FFF789FE07B000BD00007FB56846BD
:1026A00001A9FFF781FE024B1B68C01A07B000BDED
:1026B00098020020F8B5104E04000023F55EFFF7E5
:1026C000EDFF00230335EF17201ABB4202DC10D1C7
:1026D000A8420ED900210420FFF714FEFFF72CFEBC
:1026E000012802D10022B35EE41A2000FFF740FF68
:1026F000F8BD0121EFE7C0464802002070B5184C34
:1027000086B02678002E29D1022000F069FC01282D
:1027100024D1207001A96846FFF746FE8022114DA2
:1027200004003300290052000F4801F0FDFB18227D
:102730006B1CDB7F69785A432B78D2183C235A43B1
:1027400052185343AA7869689B181B03074A5B1AFF
:10275000074910885B18C31A1C19148006B070BD95
:102760004A0200204C02002074020020480200208F
:10277000FF0F00000021042010B5FFF7C3FD8022E9
:10278000094B92025A61094B1B689A68D20409D519
:10279000DA68D20506D5D968054AC9B20A43DA60B3
:1027A000FDF700FF10BDC046000401407402002088
:1027B0007FFEFFFFF7B501930B00067864205942B6
:1027C0005941F0230027704349421B010C4DC902B7
:1027D000C918019B281808ACE75700244361072358
:1027E0008460C1600261046244628462C362A74281
:1027F00001D10534FF3464235E43AD196C60F7BD2D
:10280000B4020020124B10B51A6800238A4219D86E
:1028100004211A000A400B4218D102241900214059
:10282000234200D010211C000A4301210C400B421E
:1028300000D008246423017822435943054B5B18D8
:10284000DA6110BD01335208072BDFD12022E4E703
:1028500020000020B4020020F0B505008FB00893DE
:1028600014AB1B780BA85BB2099315AB1B780C005B
:102870005BB203930792FFF71BFA2B001833049304
:1028800014330593143306932C70484B281D002CE9
:1028900052D18022D96852011143D960D968444E7F
:1028A00031400226D9609969114399619B69079962
:1028B00013400C930C9B3F4A3F4B1A60230032009D
:1028C00001940096FDF7F3FD230032000899049867
:1028D00001940096FDF7EBFD23003200099905985D
:1028E00001940096FDF7E3FD0123320000932300DD
:1028F000019403990698FDF7DAFD039B2E4E0133F0
:102900004ED164238022002163439200F3189A6120
:102910000B000A0000912800FFF74CFF2749280010
:10292000FFF770FF64206043301801F051FB0BA8E3
:10293000FFF7C3F90FB0F0BD80221969D20111432E
:10294000196119691E4E022731401961D9690026A3
:102950001143D961DB691B4913400D930D9B64231F
:102960006343154A995033003A000799019600973E
:10297000FDF79DFD33003A000899049801960097F1
:10298000FDF795FD33003A000999059801960097E7
:10299000FDF78DFD01233A00009301963300A8E76F
:1029A0000121002300911A00B5E7C0460010024043
:1029B000FFEFFFFF00300140B40200208096980036
:1029C000FFBFFFFF00380040F7B564260378114FC2
:1029D0007343DA59402304000D00116801A80B432A
:1029E0001360FFF765F9022223785E43F359996873
:1029F0001142FCD0EDB21D736423227853430122AF
:102A0000FB5899681142FCD0DC6801A8FFF755F922
:102A1000E0B2FEBDB40200207FB5040008001D0036
:102A200011002070FF2821D080221148D201C368F4
:102A3000104E1343C360C36833400126C3608369EB
:102A4000134383618369201D134003930222039B78
:102A5000019600230096FDF72AFD200000230222A4
:102A60002900183001960096FDF721FD7FBDC04674
:102A700000100240FFBFFFFFF8B506AC27780078D2
:102A800007AC267808AC2578FF2836D0274C284894
:102A9000626020600822002905D00422012902D0AA
:102AA000022901D10C226261002B06D1A360022F02
:102AB00008D0032F22D0002306E0012BF7D180237A
:102AC0005B01F3E780239B01E360002E18D12661B0
:102AD000002D1CD1A56100252000E56101F098FEC4
:102AE0002A0001211B2000F02DFA1B2000F054FACF
:102AF000012220000F4901F065FBF8BDC023E2E789
:102B00008023012E00D0C023DB002361E0E7012DEC
:102B100003D180235B00A361DDE78023022D02D077
:102B2000032DD8D1C0239B00F5E7C04680030020C9
:102B3000003801407C03002073B5040000780D00CC
:102B4000FF2819D001A8FFF7B3F82C340D4E200050
:102B50003570FDF79EFC2500041E0ED1280031784B
:102B6000FDF779FC084B01A81A68402311680B4354
:102B70001360FFF7A2F8200076BD01A8FFF79DF8CB
:102B80000120F9E77D0300208003002073B50600D3
:102B900000780D00FF2810D001A83836FFF788F81C
:102BA0003000FDF76FFC041E08D13000FDF75FFC1C
:102BB000287001A8FFF781F8200076BD01A8FFF773
:102BC0007CF80120F9E7F7B5060000780C00FF2833
:102BD00006D00B278B180193019B9C4207D1002044
:102BE000FEBD013DEDB2002D02D10120F8E73D0010
:102BF00030002178FDF77EFD0028F2D10134EBE7AB
:102C0000F7B506000F00002500920193009BACB2BF
:102C10009D4206D079193000FDF770FD013500287E
:102C2000F4D0019B1C8060426041C0B2FEBD000038
:102C300010B50B4C2000FDF725FC002808D1200022
:102C4000FDF715FC074901220870074801F07EFADC
:102C5000064B5B6C002B01D00020984710BDC0468E
:102C6000380A00207D030020800300200C0A002089
:102C700070B50B4D2800FDF70CFC0A4C002803D161
:102C800028002178FDF7E7FB074B5B6C002B01D098
:102C90000120984701222100044801F093FA70BDF9
:102CA000440A00207C0300200C0A0020800300203E
:102CB00010B501220249034801F084FA10BDC04654
:102CC0007C0300208003002010B5024801F03CFB8B
:102CD00010BDC0468003002070470000064B074827
:102CE0001A6810B55043064A06498018186001F06A
:102CF00069FF080010BDC0461C0000206D4EC64193
:102D000039300000FFFFFF7F014B18607047C0465D
:102D10001C00002070B505000C00FFF7DFFF611BF1
:102D2000013102F039F8481970BD002310B5934203
:102D300000D110BDCC5CC4540133F8E70D48854682
:102D4000002103E00C4B5B58435004310B480C4B03
:102D500042189A42F6D30B4A02E000231360043271
:102D6000094B9A42F9D300F013F803F01DFCFDF76C
:102D700021FAFEE7004000209C79000800000020B6
:102D80009800002098000020B80E0020FEE7000008
:102D90000121114B11481A680A431A605A6802400F
:102DA0005A601A680E4802401A601A680D480240BC
:102DB0001A605A680C4802400F205A60DA6A82434F
:102DC000DA621A6B094802401A635A6B8A435A63E3
:102DD00000229A607047C046001002400CB8FF08FD
:102DE000FFFFF6FEFFFFFBFFFFFFC0FF2CFEFCFF17
:102DF0000C2270B5184E194D73681340042B0CD07B
:102E0000082B0CD0164B2B607368164A1B061B0F41
:102E1000D35C2A68DA402A6070BD134BF3E70F20B9
:102E200074687368F16AC022A40C044001408020D9
:102E300052021340023401314002834205D10A4854
:102E400001F03AFE44432C60DEE7934201D107488B
:102E5000F6E70348F4E7C0460010024020000020D7
:102E600000127A00CC7700080024F400006CDC0229
:102E70007047000070B50500FA200D4B80001978EE
:102E800001F01AFE0B4B0100186801F015FE00F06E
:102E90008DF804000120002C09D1032D07D8023839
:102EA0002200290000F04EF82000034B1D6070BD89
:102EB0002400002020000020280000201023064AC3
:102EC00010B5116803200B431360FFF7D3FFFFF722
:102ED000CFFF002010BDC04600200240034A044B33
:102EE00011681B785B1813607047C046900E002075
:102EF00024000020014B18687047C046900E002047
:102F000070B50400FFF7F6FF0500631C02D0044B08
:102F10001B78E418FFF7EEFF401BA042FAD370BD08
:102F2000240000200223024A51680B43536070477B
:102F3000005801400423024A51680B435360704714
:102F40000058014030B5FF2503242A000440E40066
:102F5000A24089012940D243A140C3B200280BDA24
:102F60000F200340083B0A489B089B001B18D869A8
:102F700002401143D96130BD064B80088000C01863
:102F8000C0239B00C45822401143C150F3E7C04600
:102F900000ED00E000E100E01F2318401E3B8340ED
:102FA000014A13607047C04600E100E08022431EE2
:102FB0005204012093420DD2C021074A07485360B2
:102FC000036A09061B021B0A0B4303620020072346
:102FD000906013607047C04610E000E000ED00E034
:102FE0001F22034B10405B68C3400120184070470C
:102FF000FCE100E0054B1A68042802D11043186078
:10300000704704218A431A60FAE7C04610E000E0E6
:10301000704710B5FFF7FCFF10BD70B5841CE37F4F
:10302000022B04D004238363033B180070BD0E21E0
:103030000368056C1A688A431A6001221968914373
:1030400019601100A940C36B5960E277002483180E
:10305000DC77426B1300A242E7D090472300E4E7FD
:10306000554AF0B58218541EA241002387B004329D
:1030700001910392019A12681400DC4001D107B05B
:10308000F0BD01249C40A4466146144000940A42CD
:1030900000D18FE0019A54681022250095430295D3
:1030A000022D0ED107250F271D40AD00AF40DA08D5
:1030B00092008218166A0199BE430F69AF403E43E1
:1030C000166202685D00110003221600AE40224025
:1030D000B143AA40F7430E001643029A0660013A34
:1030E000012A0ED8019A8668D2683E40AA4032432F
:1030F0008260624646689643E206D20F9A403243A7
:103100004260C26801993A408F68AF401743C76078
:10311000E2004FD503210F001F408C46B9000F2756
:1031200001268F40254A95693543956192699D082E
:1031300032400592059A224AAD00AD18AA68BA43FA
:1031400090270292FF050022B8420CD01D4F32009A
:10315000B84208D01C4E9218B04204D01B4E6246B2
:10316000B04200D0039A8A4002990A430099AA60AB
:103170000E00174ACD4317683E43E10301D43E00D9
:103180002E4016605768009E3E43A10301D43E00C6
:103190002E4056609768009E3E43E10201D43E00F7
:1031A0002E409660D668009F3743A10201D42E407E
:1031B0003700D76001335DE700F0FFB70010024031
:1031C000000001400004004800080048000C0048CE
:1031D00000040140002A01D0816170478162FCE750
:1031E0004369194200D0090481617047044B10B54E
:1031F0005A69104202D05861FFF752F810BDC0461C
:10320000000401400420064A136983431361012925
:1032100001D130BF704740BF20BF20BFFAE7C04692
:1032200000ED00E0F0B5040085B000284ED0036842
:10323000DB0733D423689B0700D58AE023681B078C
:1032400000D5CAE023685B0700D5EDE02368DB0604
:103250001AD562690423BC4D012A00D058E1696B7C
:1032600002270B436B636B6B1A436A63FFF742FEE3
:1032700006006B6B3B4200D143E1F8216A6BA36906
:103280008A43DB0013436B6323689B0600D567E129
:10329000636A002B00D0A4E100202FE00C21AA4D8E
:1032A0006A680A40042A0BD06B680B40082B0FD1C8
:1032B000C0226B685202134080225202934207D10F
:1032C0002B689B03B6D56368002BB3D1012015E0B2
:1032D0006368012B14D180232A685B0213432B609F
:1032E000FFF708FE80270600BF022B683B42A1D1F2
:1032F000FFF700FE801B6428F7D9032005B0F0BD5E
:10330000002B16D12B68914A802713402B602B6825
:103310008F4ABF0213402B60FFF7ECFD06002B68BD
:103320003B4200D186E7FFF7E5FD801B6428F6D914
:10333000E3E7052B05D180232A68DB0213432B60CA
:10334000C9E72B68814A13402B602B68804A1340E1
:10335000C5E70C227C4D6B6813420BD06B681340A1
:10336000082B15D1C0226B68520213408022120232
:1033700093420DD12B689B0702D5E368012BA5D1A1
:10338000F8212A6823698A43DB0013432B6055E741
:10339000E2680123002A0FD02A68022713432B601A
:1033A000FFF7A8FD06002B683B42E9D1FFF7A2FD1D
:1033B000801B0228F7D9A0E72A6802279A432A60CF
:1033C000FFF798FD06002B683B4200D136E7FFF778
:1033D00091FD801B0228F6D98FE7E26901235A4D3F
:1033E000002A10D06A6A022713436B62FFF782FD3E
:1033F00006006B6A3B4200D024E7FFF77BFD801B91
:103400000228F6D979E76A6A02279A436A62FFF7C7
:1034100071FD06006B6A3B4200D113E7FFF76AFDBE
:10342000801B0228F6D968E780220021464D52050C
:10343000EB690091134208D1EB691343EB61EB692F
:1034400013400393039B012300938027414E7F0089
:1034500033683B4206D0A368012B13D12A6A134379
:103460002B6230E033683B433360FFF743FD01904C
:1034700033683B42EFD1FFF73DFD019BC01A642842
:10348000F6D93AE70122002B14D12B6A0227934385
:103490002B622B6A033293432B62FFF72BFD06004E
:1034A0002B6A3B4216D0FFF725FD2B4B801B984221
:1034B000F6D922E7052B16D1296A013B0B432B6273
:1034C0002B6A1A432A62FFF715FD022706002B6AB2
:1034D0003B420FD0009B012B00D0B7E6EB691F4A9F
:1034E0001340EB61B2E62B6A934304222B622B6AF2
:1034F0009343B5E7FFF7FEFC174B801B9842E6D9D4
:10350000FBE6FFF7F7FC801B022800D8B1E6F4E6E3
:10351000053203D16A6B9A436A63AEE66A6B02278F
:10352000134301226B636B6B93436B63FFF7E2FC06
:1035300006006B6B3B4200D1A6E6FFF7DBFC801B6D
:103540000228F6D9D9E6C04600100240FFFFFEFF70
:10355000FFFFFBFF0070004088130000FFFFFFEF3C
:103560000C21544D6A680A408A4209D06B680B40AE
:10357000082B0ED1C0226B6852021340934208D12F
:103580006B6BDB0300D483E6236A012B00D09DE63E
:103590007EE6236A002B11D080266B6B76023343C4
:1035A0006B63FFF7A7FC07006B6B334200D06FE63D
:1035B000FFF7A0FCC01B0228F6D99EE66B6B3E4AC3
:1035C000802713406B63FFF795FC06007F026B6B4F
:1035D0003B4200D15CE6FFF78DFC801B0228F6D948
:1035E0008BE60C20334A516815000140082947D06A
:1035F000324A022B32D12B68802713402B60FFF711
:1036000079FC0600BF042B683B4221D10F22EB6AF4
:1036100080269343226BB6041343EB62A16AE36AEC
:103620006A680B4326490A4013436B6080232A686B
:103630005B0413432B60FFF75DFC04002B683342EF
:1036400000D029E6FFF756FC001B0228F6D954E605
:10365000FFF750FC801B0228D5D94EE62B68802648
:1036600013402B60FFF746FC0400B6042B6833427E
:1036700000D111E6FFF73EFC001B0228F6D93CE61C
:10368000012B00D122E6C0215368A06A4902D26A08
:103690001940814200D019E60F210A40216B8A426D
:1036A00000D013E6F02292031340E26A934200D165
:1036B000F2E50BE600100240FFFFFEFFFFFFFFFEFA
:1036C000FF7FC2FF30B589B010221C49684604ADA7
:1036D00002F08EFF10222800194902F089FF0C2009
:1036E000184A5368184008280BD00C2823D00438F7
:1036F000431E9841144B40421840144BC01809B067
:1037000030BD0F206C46D26A990C01400240645CC7
:10371000A95CC0228020520213404002834204D19F
:103720000A4801F0C9F96043E9E7934201D108482A
:10373000F7E70848F5E70648E1E7C046E477000800
:10374000F57700080010024000EE85FF0024F40029
:10375000006CDC0200127A00F7B505000F000028AB
:1037600001D10120FEBD01223B4C236813408B4256
:103770001CD329688B0722D4CB072FD401232268BE
:103780001A40BA4259D82B68344C5B075CD4FFF717
:1037900099FF6368324A1B061B0FD35CD840314B3C
:1037A00018600320FFF766FB0020DBE723689343E4
:1037B0000B432360236813408B42D2D1D9E7274AB9
:1037C0004B0704D5E0235068DB0003435360F0202F
:1037D00053688343A86803435360CDE76A681F4E6C
:1037E000012A1AD133689B03BBD5032173688B432D
:1037F00013437360FFF77EFB01900C2372681A403D
:103800006B689B009A42B9D0FFF774FB019BC01A0A
:10381000154B9842F1D90320A4E7022A03D133685B
:103820009B01E2D49DE7032A03D1736BDB03DCD455
:1038300097E733689B07D8D493E722689A432260BE
:1038400022681A429FD08CE76368084A1340EA68EE
:10385000134363609BE7C046002002400010024013
:10386000CC7700082000002088130000FFF8FFFF3D
:10387000014B18687047C04620000020044B054AE1
:103880005B685B055B0FD35C034A1068D8407047E8
:1038900000100240DC77000820000020F0B503682B
:1038A000050085B0DB032AD580220021454C520556
:1038B000E3690091134208D1E3691343E361E369CB
:1038C00013400393039B0123009380273E4E7F0008
:1038D00033683B4243D0226AC02311009B003B4E19
:1038E00019401A424DD1236A1E406B681E43009B4B
:1038F0002662012B03D1E369354A1340E3612B684B
:10390000DA0706D503202F490A6B8243A8680243D1
:103910000A639A0706D52B492E480A6B0240E868CD
:1039200002430A639A0606D5102026490A6B824391
:10393000286902430A639A0306D5802021490A6B4D
:103940008243A86902430A6300205B0517D5402122
:103950001C4A136B8B4369690B4313630FE0336895
:103960003B433360FFF7C6FA019033683B42B2D164
:10397000FFF7C0FA019BC01A6428F6D9032005B0EE
:10398000F0BD6A6813408B42ADD08023226A206A62
:1039900011005B0203432362236A0F483140034056
:1039A00023622162D3079ED5FFF7A4FA0700022203
:1039B000236A134297D1FFF79DFA084BC01B984228
:1039C000F5D9DBE70010024000700040FFFCFFFF6C
:1039D000FFFFFFEFFFFFFCFFFFFFFEFF881300006C
:1039E000704700000223F7B5027F04001800012A87
:1039F0002DD0CA2201256377236825775A62773A4A
:103A00005A629A681249FA270A409A609A681149DC
:103A1000BF000A409A60FFF76DFA06002368DA6873
:103A20001100294001912A4205D0FF2200205A624C
:103A3000657720770BE0FFF75DFA801BB842EDD980
:103A4000FF22032023685A62019B60772377FEBD23
:103A5000FFFEFFFFFFEFFFFFA0210268F8B5D3686C
:103A600004008B43D360FFF745FAFA2705002026B0
:103A7000BF002368DB68334201D00020F8BDFFF7A8
:103A800039FA401BB842F4D90320F7E7F8B54024CF
:103A900003680500DA68224201D00020F8BD012247
:103AA0005242DA60FFF726FAFA270600BF002B68B9
:103AB000DB682342F1D1FFF71DFA801BB842F6D92B
:103AC0000320EBE770B504000125002818D0437FE0
:103AD000DAB2002B02D10277FFF782FF0223CA225B
:103AE0006377236820005A62773A5A62FFF7CEFF65
:103AF0002368051E06D0FF225A620423012563773E
:103B0000280070BD9A68174920690A409A60626867
:103B100099680243606902430A439A60E2681A6145
:103B2000A268196912040A4380211A61DA688A437B
:103B3000DA609B689B0606D42000FFF78DFF002803
:103B400001D02368D7E7236807491A6C0A401A6432
:103B50001A6CA1690A431A64FF225A62012363772F
:103B6000CEE7C046BFFF8FFFFFFFFBFF0023092802
:103B700003D81B011843C0B270470A380133C0B2E2
:103B8000F5E700000223F7B50D00017F04001E00D9
:103B9000012933D0012143770177A97806686F782E
:103BA00028783E330091002A2AD1B26811001940CA
:103BB0001A4200D1E970FFF7D9FF01903800FFF7F2
:103BC000D5FF07000098FFF7D1FFEB78019A1B049F
:103BD0000343100403433F021F43CA237362773B2E
:103BE00073622000FFF752FF2368061E17D0FF22E2
:103BF0005A62042363770023237701263000FEBD39
:103C0000B268110019401A4200D1E97000043F0265
:103C10000743009BE8781F4300040743DDE714488F
:103C2000144907401F609A6828690A409A60EA6848
:103C3000996802430A4380219A60DA688A43DA600D
:103C40009B689B060BD42000FFF706FF002806D0D8
:103C5000FF2223685A62042326776377CDE7FF2289
:103C600023685A620123637700232377C6E7C0469F
:103C70007F7F7F00FFFFFBFF0223F7B50D00017F71
:103C800004001E00012931D00121437701772E78ED
:103C9000E8786B78AF787603002A47D11032134268
:103CA00002D093430A336B70FFF760FF019068788E
:103CB000FFF75CFF05003800FFF758FF019B064344
:103CC0001F0437432D02CA22236820005A62773A24
:103CD0005A62FFF7DBFE3D43061E236808D0FF2231
:103CE0005A62042363770023237701263000FEBD48
:103CF0008021114F3D405D60DA688A43DA609B683D
:103D00009B060BD42000FFF7A7FE002806D0FF2259
:103D100023685A62042326776377E6E7FF22236845
:103D20005A620123637700232377DFE700043043DF
:103D300007431D02C7E7C0463FFFFF000223F0B55F
:103D400085B000900C00017F1800012900D18DE0A2
:103D50000121009843770177056840232078667831
:103D6000A778002A60D1AA68110019401A4200D130
:103D7000E170FFF7FBFE01903000FFF7F7FE060051
:103D80003800FFF7F3FE0700631CD87FFFF7EEFE55
:103D90006269E36936021343E278120413431F4356
:103DA000019B1B041F433E436368314A0193A3698F
:103DB00000060293CA236B62773B6B62AB680643D3
:103DC0001340AB60EA682B4BD2B21343EB60FFF7B2
:103DD00091F8FA2507000124AD00009B1B68DA6802
:103DE000110021400391224232D00299019ADE61F2
:103DF0000A435A648022996852000A439A608022DA
:103E0000996852010A4380219A601B4A890210680E
:103E100008431060906801439160FF2200205A62BD
:103E2000009B5C77187721E0AA68110019401A42BC
:103E300000D1E170E3696269000413431F43074343
:103E400036023E43E778631C3F04D87F3E43ABE72E
:103E5000FFF750F8C01BA842BFD9FF220320009BE8
:103E60001B685A62009B039A58771A7705B0F0BD19
:103E7000FFFEFFFF7FFEFFFF000401400209030079
:103E80000A2050430F221340C018C0B270470000F0
:103E900070B50C0001683F208B6A63600B695B049E
:103EA0005B0CA3600B680E490B40190C1E0ADDB2B7
:103EB00040230840F6B2194020706670A570E1708A
:103EC000002A0AD1FFF7DAFF20703000FFF7D6FF93
:103ED00060702800FFF7D2FFA070002070BDC046C0
:103EE0007F7F7F0070B50C0003680E495B680B4054
:103EF000180CDD04DEB21B04ED0E5B0FE070657084
:103F0000A6702370002A0AD1FFF7B8FFE0702800DE
:103F1000FFF7B4FF60703000FFF7B0FFA070002023
:103F200070BDC0463FFFFF00F7B580227F270C0021
:103F300052004A6201683F25CA69496C160A3E4030
:103F40001740A770019740278C46110C0800394094
:103F5000E17061464904490C6160110E28400D4032
:103F60008021C9051140671C20706670FD77E161F2
:103F70000A490A406261002B0ED1FFF77FFF2070D3
:103F80003000FFF77BFF60700198FFF777FFA070AC
:103F90002800FFF773FFF8770020FEBD8080808047
:103FA0000222017F0300100001290FD0CA215A7795
:103FB0001A685162773951629068333901439160D0
:103FC000FF2100205162012218775A77704770470D
:103FD000F7B504000120002C5FD025005D352B785B
:103FE000DAB2002B05D123005C3320001A70FFF7F2
:103FF000EEFF022340212B702268E06813688B4398
:10400000E0211360C9000023884247D8802676014A
:10401000884201D101E01E00A362236B002B04D172
:104020000233884200D801232363A36AA76801935F
:104030006368A1693B4327693B4367693B43E76981
:104040003B43276A3B43019F3B438027BF000F4010
:104050003B431360236B022B06D113689C468023DD
:1040600067461B013B431360636A090C1843636B8B
:10407000184304231940802301430E4301995660DD
:104080009B01994201D1E36A1361D369064900207B
:104090000B40D361012320662B70FEBDF026360154
:1040A000B042B8D11E00B8E7FFF7FFFF0368074929
:1040B0001A680A401A609A682331FF318A439A606D
:1040C00020238367002303667047C046DFFEFFFF9F
:1040D000436F10B5212B0DD1010052310A880368BE
:1040E000002A08D180211A688A431A604022196880
:1040F0000A431A6010BDC26C147801321C85C26478
:104100000B88013B9BB20B80F4E7436F10B5212B6A
:104110000DD1010052310A880368002A08D180219C
:104120001A688A431A60402219680A431A6010BD4F
:10413000C46C22880234D205D20D1A85C4640B885F
:10414000013B9BB20B80F2E77047000070B5446FF3
:1041500003000220202C30D1013800292DD0002A64
:104160002BD080209D684001854206D11869002827
:1041700003D11F3C200021421FD11C00703426783F
:104180000220012E19D0D964190050310A804A80CA
:1041900000228021DA6721325A674901074A8D429D
:1041A00003D11969002900D1054A00205A66207000
:1041B0001A68802311680B43136070BDD14000085A
:1041C0000B41000870B5846F03000220202C44D1FD
:1041D0000138002941D0002A3FD080209C6840014E
:1041E000844206D11869002803D1012528002942FC
:1041F00033D11D0070352E780220012E2DD00138CC
:1042000028705965190058310A804A8080200021A1
:104210001A00196640015C32844221D119690029D3
:104220001CD11749118000220121DA6722329A67D6
:104230001A689068014380209160400111498442CE
:1042400003D11869002800D10F4900201966902376
:10425000287011685B000B43136070BDFF21E1E71C
:10426000002C04D119690029F8D07F21DAE78020D9
:1042700040058442D6D119690029F6D03F21D1E703
:10428000FF0100008D420008ED420008826F10B56A
:104290000368222A23D102005C329B8C12881340CF
:1042A000426D13700200436D5A3201334365138827
:1042B000013B9BB21380138899B2002B0ED1036887
:1042C000094C1A6822401A609A682334FF34A243CA
:1042D0009A60202301668367FEF7CAFC10BD08229E
:1042E00099690A439A61F9E7DFFEFFFF826F10B513
:1042F0000368222A21D101005C319C8C0988426D1F
:1043000021401180010002325A3142650A88013A87
:1043100092B20A800A8891B2002A0DD11A68094C1B
:1043200022401A609A682334FF34A2439A60202303
:1043300001668367FEF79CFC10BD082299690A4359
:104340009A61F9E7DFFEFFFFF8B503680400DA6958
:10435000504819689F6802420BD12020024200D1C8
:1043600076E0014200D173E0236E2000002B65D17E
:1043700065E0902501203E006D0006400D4035436C
:1043800066D0024205D0CD0503D51862E56F2843FB
:10439000E0670220024206D0002E04D01862E56FCA
:1043A00000182843E0670420024206D0002E04D003
:1043B0001862E56F02382843E0670820024207D000
:1043C00020250D40354303D01862E56F2843E06790
:1043D00080200001024206D04D0104D5186220233E
:1043E000E06F0343E367E36F002B28D020231A42DA
:1043F00006D0194204D0236E002B01D0200098472C
:104400002268E36F4026956828223540134020003B
:104410001D4319D0FFF74AFE23689A6832420FD035
:104420009A68E06EB2439A60002809D01A4B436341
:10443000FEF7F3FD002802D0E06E436B9847F8BD0D
:104440002000FEF735FCFAE7FEF732FCE567F6E7F9
:1044500080204003024206D07D0204D5186220006D
:1044600000F008FAEBE78020024203D0014201D0BD
:10447000636E7AE740200242E1D00142DFD01A6841
:1044800082431A6020236367002320006366FEF7DF
:10449000CFFBD4E70F0800009D440008406A0023CA
:1044A000020010B55A321380083A1380FEF700FC60
:1044B00010BD0000F8B504002569A1680268294311
:1044C0006569C36929431068554D19432840014364
:1044D000116051685348256A0140E068014351600A
:1044E000A16990682943504D284001439160802183
:1044F0004E484F4D0902824214D103204D4A126B9F
:104500000240013A022A42D84B48805C8B4250D18B
:10451000082800D97CE000F0C5FA3C7B227B807B38
:104520007B7B7400454882422BD1C0208026414AC3
:104530008002126B0F000240B602B2425FD00AD86E
:10454000002A24D080204002824264D0BB425FD047
:104550000120002344E08242F8D18B4237D16368C6
:104560005808374BC018616800F0A6FA83B20020E3
:104570001A00103AAA4212D901200023236663666A
:10458000F8BD3048824202D02F4882423ED18B4251
:1045900018D1FFF773F9636840005B08E2E70F2268
:1045A000190091430A001B0721685B0F1343CB607E
:1045B000E3E70828CCD800F06BFA05CB0ACB1ACB7E
:1045C000CBCB1D00FFF75AF963685B0802E0636814
:1045D00058081E4BC018616800F06EFA83B20020C4
:1045E0001A00103AAA42C7D82268D360C5E7FFF77D
:1045F00069F8E9E76368580880231B02EAE78B4201
:10460000F8D16368580880235B02ABE78B429FD1E7
:1046100001200023ACE78B42E9D1FFF753F8BAE75A
:10462000F369FFEFFFCFFFFFFFF4FFFF003801400A
:10463000EFFF000000100240067800080044004030
:104640000024F40000480040004C004000127A00B2
:10465000436A30B5DA0706D50168284C4A6822401B
:10466000846A22434A609A0706D50168244C4A6846
:104670002240C46A22434A605A0706D50168214C89
:104680004A682240046B22434A601A0706D5016833
:104690001D4C4A682240446B22434A60DA0606D524
:1046A00001681A4C8A682240846B22438A609A0609
:1046B00006D50168164C8A682240C46B22438A6082
:1046C0005A0610D50168134D4A68046C2A402243EB
:1046D0004A6080225203944205D14A680E4C22401F
:1046E000446C22434A601B0606D502680B49536896
:1046F0000B40816C0B43536030BDC046FFFFFDFF94
:10470000FFFFFEFFFFFFFBFFFF7FFFFFFFEFFFFF4E
:10471000FFDFFFFFFFFFEFFFFFFF9FFFFFFFF7FF41
:10472000F7B5802704000D00160001933F012268B1
:10473000D3692B405B1B59424B41B34201D000204F
:104740001CE0089B0133F3D0FEF7D4FB019B089AD1
:10475000C01A2368904201D8002A10D11A68134960
:104760000A401A609A68A331FF318A439A60202375
:104770006367A3670023032070342370FEBD042108
:104780001A680A42D3D0DA693A42D0D01F621A6856
:1047900006490A401A609A68A331FF318A439A6039
:1047A00020236367A367E367E4E7C0465FFEFFFF7C
:1047B00073B500260400C667FEF79CFB236805005E
:1047C0001B681B0715D423681B685B070AD580216B
:1047D0000E4B0022009320002B00C903FFF7A0FF1F
:1047E000002811D1202300206367A3677034207054
:1047F0000BE08021054B3200009389030300200069
:10480000FFF78EFF0028DED0032076BDFFFFFF01FB
:1048100010B5041E01D1012010BD436F002B04D13F
:10482000020070321370FFF78FFC242301212268ED
:104830006367136820008B431360FFF73BFE01287A
:10484000E9D0636A002B02D02000FFF701FF236844
:1048500007495A6820000A402A215A609A688A4308
:104860009A60012219680A431A60FFF7A1FFD3E793
:10487000FFB7FFFF704701207047000073B50024A9
:10488000012501262A00230001951C211A480094C5
:10489000FBF70DFE23002200009513211748019419
:1048A000FBF705FE2300220000950C21144801941B
:1048B000FBF7FDFD2300220000950B211148019418
:1048C000FBF7F5FD764223002200009508210E48F3
:1048D0000194FBF7ECFD31002300220000950B480A
:1048E0000194FBF7E4FD3100009523002200084805
:1048F0000194FBF7DCFD73BD540500209C040020EF
:10490000B0040020C4040020D8040020EC040020DF
:104910000005002010B5040003680322012111489E
:10492000FBF7CEFD6368032201210F48FBF7C8FDAA
:10493000A368032201210D48FBF7C2FDE3680322AF
:1049400001210B48FBF7BCFD236903220121094823
:10495000FBF7B6FD0322012163690748FBF7B0FDB1
:1049600010BDC0469C040020B0040020C4040020F8
:10497000D8040020EC040020000500207047704798
:10498000704700207047000037B500240C4D23000D
:10499000280001220F2101940094FBF788FD0120DB
:1049A000FBF750FD0123280022000F210193009402
:1049B0002300FBF77CFD0620FBF744FD37BDC04616
:1049C0008804002070B505000920FBF7B5FF04003E
:1049D0004D20FBF7B1FF63B20724112D15DD044311
:1049E000E4B2291C142D00DD142105397020034088
:1049F0000B438021494219430920C9B2FBF74EFFFE
:104A000021004D20FBF74AFF70BDA043042404435E
:104A1000E4B2291C022D00DA02210239E6E7000087
:104A200007B50023012104480A000091019349427F
:104A3000FBF73DFD07BDC046940E002007B50023DF
:104A4000012104480A00019300934942FBF72FFD1E
:104A500007BDC046940E0020064B10B51A7882425E
:104A600004D01870002802D1FFF7DAFF10BDFFF75D
:104A7000E5FFFBE7000400200300012110B5034817
:104A8000032B00D00021FBF71FFD10BD940E00206A
:104A900002B4714649084900095649008E4402BCD7
:104AA0007047C04602B4714649084900095C490094
:104AB0008E4402BC7047C046002243088B4274D328
:104AC00003098B425FD3030A8B4244D3030B8B420F
:104AD00028D3030C8B420DD3FF22090212BA030C18
:104AE0008B4202D31212090265D0030B8B4219D3F9
:104AF00000E0090AC30B8B4201D3CB03C01A524119
:104B0000830B8B4201D38B03C01A5241430B8B4260
:104B100001D34B03C01A5241030B8B4201D30B0349
:104B2000C01A5241C30A8B4201D3CB02C01A524170
:104B3000830A8B4201D38B02C01A5241430A8B4233
:104B400001D34B02C01A5241030A8B4201D30B021C
:104B5000C01A5241CDD2C3098B4201D3CB01C01A36
:104B6000524183098B4201D38B01C01A5241430940
:104B70008B4201D34B01C01A524103098B4201D32E
:104B80000B01C01A5241C3088B4201D3CB00C01A9B
:104B9000524183088B4201D38B00C01A5241430813
:104BA0008B4201D34B00C01A5241411A00D2014638
:104BB000524110467047FFE701B5002000F0F0F8C1
:104BC00002BDC0460029F7D076E7704703460B4385
:104BD0007FD4002243088B4274D303098B425FD3F6
:104BE000030A8B4244D3030B8B4228D3030C8B4222
:104BF0000DD3FF22090212BA030C8B4202D3121208
:104C0000090265D0030B8B4219D300E0090AC30BDC
:104C10008B4201D3CB03C01A5241830B8B4201D389
:104C20008B03C01A5241430B8B4201D34B03C01A72
:104C30005241030B8B4201D30B03C01A5241C30AEA
:104C40008B4201D3CB02C01A5241830A8B4201D35B
:104C50008B02C01A5241430A8B4201D34B02C01A45
:104C60005241030A8B4201D30B02C01A5241CDD2EA
:104C7000C3098B4201D3CB01C01A524183098B4235
:104C800001D38B01C01A524143098B4201D34B011E
:104C9000C01A524103098B4201D30B01C01A524181
:104CA000C3088B4201D3CB00C01A524183088B4208
:104CB00001D38B00C01A524143088B4201D34B00F1
:104CC000C01A5241411A00D2014652411046704763
:104CD0005DE0CA0F00D04942031000D34042534068
:104CE00000229C4603098B422DD3030A8B4212D328
:104CF000FC22890112BA030A8B420CD3890192115A
:104D00008B4208D3890192118B4204D389013AD096
:104D1000921100E08909C3098B4201D3CB01C01A6B
:104D2000524183098B4201D38B01C01A524143097E
:104D30008B4201D34B01C01A524103098B4201D36C
:104D40000B01C01A5241C3088B4201D3CB00C01AD9
:104D5000524183088B4201D38B00C01A5241D9D2F1
:104D600043088B4201D34B00C01A5241411A00D272
:104D70000146634652415B10104601D34042002B6E
:104D800000D54942704763465B1000D3404201B5ED
:104D9000002000F005F802BD0029F8D016E77047A2
:104DA0007047C0468446101C62468C46191C6346F8
:104DB00000E0C0461FB500F0D3FC002801D400215C
:104DC000C8421FBD10B500F01DFC4042013010BDAF
:104DD00010B500F0C5FC002801DB002010BD01204B
:104DE00010BDC04610B500F0BBFC002801DD00205E
:104DF00010BD012010BDC04610B500F03FFC0028DA
:104E000001DC002010BD012010BDC04610B500F02F
:104E100035FC002801DA002010BD012010BDC0467D
:104E2000002B11D1002A0FD1002900D1002802D077
:104E30000021C943081C07B4024802A1401802908F
:104E400003BDC0465DFFFFFF03B4684601B502988D
:104E500000F024F8019B9E4602B00CBC7047C0468F
:104E600070B500220C4B04000D00FFF7CFFF0028A7
:104E700004D12000290001F0E1FA70BD064B0022A8
:104E80002000290000F048FF01F0D8FA80231B061B
:104E90009C466044F1E7C0460000E041F0B557464B
:104EA0004E464546DE46E0B504000D009246994662
:104EB00083B08B4230D82DD04946504601F068FB74
:104EC00029000600200001F063FB331A9846203BBE
:104ED0009B4633D45A465346934042461F0053469E
:104EE00093401E00AF423AD8AF4200D178E05B4613
:104EF000A41BBD41002B00DA75E0002200230092C4
:104F0000019301235A469340019301234246934063
:104F1000009328E08242CFD900220023009201931F
:104F20000C9B002B01D01C605D600098019903B0C0
:104F30003CBC90469946A246AB46F0BD4246202373
:104F40009B1A5246DA40414613004A468A401700EF
:104F500042461F43534693401E00AF42C4D900222D
:104F60000023009201934346002BD9D0FB0772081F
:104F70001A4346467B080EE0AB4201D1A2420CD850
:104F8000A41A9D41012024196D410021013E2418DD
:104F90004D41002E06D0AB42EED9013E24196D41A1
:104FA000002EF8D1009801995B4600196941002B49
:104FB00024DB2B005A464446D3402A00E2401C0022
:104FC0005B461500002B2ADB26009E40330026009E
:104FD0004746BE403200801A9941009001919FE7F8
:104FE000A342BCD883E74246202300219B1A00221B
:104FF000009101920122DA40019286E74246202385
:105000009B1A2A0046469A402300F3404446134325
:105010002A00E2401C005B461500002BD4DA424611
:105020002F002023260097409B1ADE403B0033438D
:10503000CDE7C046F0B557464E464546DE46E0B59C
:10504000814605000C03480092461F0085B0240BE2
:10505000400DCE0F002859D0874B984200D198E0E0
:105060006B0FE4001C4380231B0423439846834BAF
:10507000ED009B4600239946834400933C037B004C
:105080005046240B5B0DFF0F002B67D07A4A9342EA
:1050900018D07A49420F8C46E400594614438022C6
:1050A00063441204CB1A14439B46C2000020330011
:1050B0007B409A464B460F2B00D9EFE070499B008E
:1050C000CB589F466F4B52469C462243E344002AEE
:1050D00000D095E049460223194389460024022066
:1050E000E5E700230024002552461B052343D20791
:1050F00013432800190005B03CBC90469946A246CF
:10510000AB46F0BD002400255B4BEDE74B46234347
:10511000984600D189E0002C00D1E0E1200001F0A8
:1051200019FA010002000B391D235B1A49461000D1
:10513000D940083884400B004D46234398468540AB
:1051400051483C03831A9B460023994600937B00F9
:105150005046240B5B0DFF0F002B97D15246224384
:1051600055D0002C00D1CAE1200001F0F3F9020073
:105170000B3A1D2301009B1A52460839DA408C4035
:10518000144352468A40414B58449B468344002076
:105190008DE74B462343984640D108239946063B6A
:1051A00000258346009369E7B246009B022BA9D0F5
:1051B000032B00D111E2012B93D0354A5A44002A27
:1051C00000DC3CE16B0700D0A7E1ED084346DB01C2
:1051D00006D542462F4B1A4090468022D2005A44B0
:1051E0002D4B9A428EDC4346520558075C0205431C
:1051F000240B530D78E7BA46A04615000090D4E77B
:105200004A4603231A439146032052464FE7494634
:105210000123194389460024012048E70C239946BD
:10522000093BA0468346009328E7042399460023C0
:105230009B4601330025009320E7002380249A46F3
:1052400000250D4B24034FE7802341461B031942E1
:1052500008D01C4206D11C432403BA461500064B55
:10526000240B41E78024434624031C432403B24615
:10527000014B240B38E7C046FF07000001FCFFFF8D
:105280007878000801F8FFFF0DFCFFFFF303000032
:10529000FF030000FFFFFFFEFE070000444500D2B1
:1052A00016E100D111E101235B429C462E004046ED
:1052B0000025E3442302140E1C431B0C99462304CF
:1052C0001F0C1202494600920197FFF77BFC020077
:1052D0007A430B04310C804619438A420BD90123CF
:1052E0005B429C460919E0448C4204D88A4202D9A8
:1052F000831E98460919881A4946FFF763FC09047A
:105300008C4631046646019A090C4243030031433E
:105310008A4204D90919013B8C4200D811E1891A4B
:105320004246009E12041A43330C1F00100C904694
:10533000029313043204160C32001B0C5A430396DA
:105340007B4346437843170CBC469B1963449E42FB
:1053500003D980267602B44660441E0C3018160429
:105360001B04360C9E19814200D29CE000D197E0CC
:10537000AE1B091AB54280414042081A844200D14E
:1053800011E14946FFF71EFC019A0B044243310C20
:10539000050019438A4207D90919013D8C4203D8F7
:1053A0008A4201D9851E0919881A4946FFF70AFC65
:1053B00009048C4631046646019A090C42430300F5
:1053C00031438A4207D90919013B8C4203D88A42EA
:1053D00001D9831E0919039E891A32002D041D4329
:1053E000029F2B041B0C5A437B439C46280C4643CC
:1053F000130CB444634478439E4203D9802676025A
:10540000B44660441E0C12041B04120C30189B1886
:10541000814206D302D001231D43CEE6002B00D1EA
:10542000CBE661186E1EA14200D2A4E0814200D2F8
:10543000C9E000D1D9E03500EDE701256D42012139
:10544000891A382900DD4CE61F2900DC7FE01F2384
:105450005B429A1A4346D340202904D04446654A09
:105460005A44944025436A1E954107222B43150058
:1054700000241D401A4200D1A1E00F2200241A404E
:10548000042A00D198E01A1D9A429B415B42E4181D
:105490001300220200D48FE001230024002523E61C
:1054A000B54200D364E743465A1E009B9C466544C0
:1054B0001F009D429B415B421B19C9188C423AD286
:1054C000884263D860D0904652E7AA4200D9EAE603
:1054D0004346DE0758086B081E43ED07EAE64846D8
:1054E00001F038F801000200153120321C2900DCDF
:1054F0001AE64B46083883400025984620E601F01E
:1055000029F803001A00153220301C2A00DC30E68E
:105510005446083B00229C4035E60F232B40042BC9
:1055200000D152E605235B42AB429B4104355B420E
:10553000ED0898444AE68C42C5D1AF42C0D99046A6
:1055400016E78A4200D8EAE6831E0919E7E62A4AE6
:1055500028005A44434695409340C8406A1E9541EE
:10556000444603432B43CC405A0792D00F221A40A3
:10557000042A88D18DE73500814200D04BE7009A9C
:10558000934200D047E718E6AE429CD902235B4223
:105590009C46009BE0449C4665449D429B415B4287
:1055A0001B19C918E4E6154A5A44002A00DC44E7EE
:1055B00001230025984409E665076402240BDB08F3
:1055C0001D43002390E5009E023D7200B242BF41A0
:1055D0007F423C1909190092CEE7802443462403F8
:1055E0001C432403064B240B7EE5009A9A42EAD31F
:1055F0003500C4E73E0400001E040000FF03000065
:10560000FF070000F0B54F464646D6469446914601
:105610001A03120B184DC0B54C000F0392465A00E6
:10562000060080463F0B0120640DC90F520DDB0FB1
:10563000AC420AD0AA4203D0944201D157450DD0C2
:105640001CBC90469946A246F0BD3D003543F7D1BB
:10565000A242F5D1524665462A43F1D10120C84500
:10566000EED1994206D0002CEAD13E433000461ECE
:10567000B041E5E70020E3E7FF070000F0B54E4644
:1056800045465746DE4604001800E0B516001B03E9
:105690001B0B324D0F034A0099464300A446B04607
:1056A0003F0B520DC90F5B0DC00FAA4229D0AB4270
:1056B00018D0002A2AD13C43A34665426541002BFD
:1056C00002D14C46264327D0002D15D1814228D047
:1056D00002200139084001383CBC90469946A24658
:1056E000AB46F0BD4D462E432FD1002AEED13C43B0
:1056F00065426541002DE9D00028EDD101204042EE
:10570000EAE73D00254320D19342EBD0002BDDD1C9
:105710004C462643DAD1DBE75B460020002BDBD08A
:10572000D6E79A420ADCE7DB4F45D1D810D00020FB
:105730004F45D1D20029E1D00800CDE7434258417E
:105740000223404218400138C6E702204042C3E726
:10575000C445BDD80020C445BED2EBE7FF0700001A
:10576000F0B54E4645465746DE4604001800E0B503
:1057700016001B031B0B314D0F034A0099464300D3
:10578000A446B0463F0B520DC90F5B0DC00FAA4295
:1057900011D0AB4214D0002A2FD13C43A34665421E
:1057A0006541002B14D14C46264311D15B460020A5
:1057B000002B17D010E03D00254312D193421CD19D
:1057C0004D462E430DD1002A04D13C43654265412C
:1057D000002D0DD1814216D0022001390840013838
:1057E00000E002203CBC90469946A246AB46F0BD84
:1057F0000028F7D101204042F4E7002BEAD14C46C3
:105800002643E7D1E8E79A4206DD434258410223A6
:10581000404218400138E5E79A42E9DB4F45DBD8C2
:1058200006D000204F45DDD20029E3D00800D9E79B
:10583000C445D1D80020C445D4D2F5E7FF07000005
:10584000F0B557464E464546DE46E0B598460C0351
:105850004B000600924687B0240B5B0DCF0F002B48
:105860006CD0DD4A934200D186E0420FE40014433D
:10587000802212041443D94AC5009446634400931D
:10588000002399469B46434642461E03D20F5B00C7
:1058900050469046360B5B0D00D178E0CE4A9342DD
:1058A0001DD0CE49420F8C4600996344F6008C46C9
:1058B000164380229C44120463461643C200002013
:1058C00000930099434601318C4649467B40019341
:1058D0000F2900D97EE0C24B890059588F465246A5
:1058E000009B324300D056E1BB4900268C466344FE
:1058F000494600930223194389460220E1E74346C3
:1059000001933400150083465B46022B5ED0032BC7
:1059100000D1F3E1012B00D018E100220024002582
:10592000019B12052243DB071A432800110007B030
:105930003CBC90469946A246AB46F0BD25000543C7
:1059400000D141E1002C00D1ADE1200000F002FEC9
:10595000010002000B391D2310005B1A31003500D5
:1059600008388440D94085400C439E48831A0093F0
:10597000002399469B4686E70500254300D01CE19D
:10598000082200930223002491469B467BE752465F
:10599000324300D10AE1002E00D176E1300000F060
:1059A000D9FD02000B3A1D2301009B1A524608390B
:1059B000DA408E40164352468A40009B8949181AA5
:1059C00003008C466344002000937AE700240025FE
:1059D000814AA5E72F0C2D042D0C2B00110C12046D
:1059E000120C53439846130028007B4399464843C2
:1059F0004844834640460B00000C824658467B4391
:105A000050440293814506D99A4680235B02994609
:105A1000CA4453460293030C9B4643461B040004AE
:105A20001B0C9846030043440493330C99462B0007
:105A30003604360C7343984633007B439A464B46F4
:105A40005D435F4343465544180C4019824503D9D2
:105A500080235B029A465744050CEB190593434695
:105A60001D042D0C00044019250C2404240C2700CF
:105A700057436A4390462A003B0C9A464A43614387
:105A8000414451448344884503D980235B029846AE
:105A900042443F040B0C3F0C0904C91927009846E7
:105AA0004B4677435C436E435D433B0C9946A419D8
:105AB0004C4442440395A64204D980235B02984695
:105AC00045440395029B3F045B441E008342804192
:105AD00023049846059B3F0C4744984676188E420F
